{
  "_format": "hh-sol-artifact-1",
  "contractName": "CreeperPool",
  "sourceName": "contracts/CreeperPool.sol",
  "abi": [
    {
      "inputs": [
        {
          "internalType": "address",
          "name": "_CEPcoin",
          "type": "address"
        },
        {
          "internalType": "address",
          "name": "_stablecoin",
          "type": "address"
        }
      ],
      "stateMutability": "nonpayable",
      "type": "constructor"
    },
    {
      "inputs": [
        {
          "internalType": "address",
          "name": "spender",
          "type": "address"
        },
        {
          "internalType": "uint256",
          "name": "allowance",
          "type": "uint256"
        },
        {
          "internalType": "uint256",
          "name": "needed",
          "type": "uint256"
        }
      ],
      "name": "ERC20InsufficientAllowance",
      "type": "error"
    },
    {
      "inputs": [
        {
          "internalType": "address",
          "name": "sender",
          "type": "address"
        },
        {
          "internalType": "uint256",
          "name": "balance",
          "type": "uint256"
        },
        {
          "internalType": "uint256",
          "name": "needed",
          "type": "uint256"
        }
      ],
      "name": "ERC20InsufficientBalance",
      "type": "error"
    },
    {
      "inputs": [
        {
          "internalType": "address",
          "name": "approver",
          "type": "address"
        }
      ],
      "name": "ERC20InvalidApprover",
      "type": "error"
    },
    {
      "inputs": [
        {
          "internalType": "address",
          "name": "receiver",
          "type": "address"
        }
      ],
      "name": "ERC20InvalidReceiver",
      "type": "error"
    },
    {
      "inputs": [
        {
          "internalType": "address",
          "name": "sender",
          "type": "address"
        }
      ],
      "name": "ERC20InvalidSender",
      "type": "error"
    },
    {
      "inputs": [
        {
          "internalType": "address",
          "name": "spender",
          "type": "address"
        }
      ],
      "name": "ERC20InvalidSpender",
      "type": "error"
    },
    {
      "anonymous": false,
      "inputs": [
        {
          "indexed": true,
          "internalType": "address",
          "name": "owner",
          "type": "address"
        },
        {
          "indexed": true,
          "internalType": "address",
          "name": "spender",
          "type": "address"
        },
        {
          "indexed": false,
          "internalType": "uint256",
          "name": "value",
          "type": "uint256"
        }
      ],
      "name": "Approval",
      "type": "event"
    },
    {
      "anonymous": false,
      "inputs": [
        {
          "indexed": true,
          "internalType": "address",
          "name": "provider",
          "type": "address"
        },
        {
          "indexed": false,
          "internalType": "uint256",
          "name": "amountCEPcoin",
          "type": "uint256"
        },
        {
          "indexed": false,
          "internalType": "uint256",
          "name": "amountStablecoin",
          "type": "uint256"
        },
        {
          "indexed": false,
          "internalType": "uint256",
          "name": "liquidity",
          "type": "uint256"
        }
      ],
      "name": "LiquidityAdded",
      "type": "event"
    },
    {
      "anonymous": false,
      "inputs": [
        {
          "indexed": true,
          "internalType": "address",
          "name": "provider",
          "type": "address"
        },
        {
          "indexed": false,
          "internalType": "uint256",
          "name": "amountCEPcoin",
          "type": "uint256"
        },
        {
          "indexed": false,
          "internalType": "uint256",
          "name": "amountStablecoin",
          "type": "uint256"
        },
        {
          "indexed": false,
          "internalType": "uint256",
          "name": "liquidity",
          "type": "uint256"
        }
      ],
      "name": "LiquidityRemoved",
      "type": "event"
    },
    {
      "anonymous": false,
      "inputs": [
        {
          "indexed": true,
          "internalType": "address",
          "name": "from",
          "type": "address"
        },
        {
          "indexed": true,
          "internalType": "address",
          "name": "to",
          "type": "address"
        },
        {
          "indexed": false,
          "internalType": "uint256",
          "name": "value",
          "type": "uint256"
        }
      ],
      "name": "Transfer",
      "type": "event"
    },
    {
      "inputs": [],
      "name": "CEPcoin",
      "outputs": [
        {
          "internalType": "contract IERC20",
          "name": "",
          "type": "address"
        }
      ],
      "stateMutability": "view",
      "type": "function"
    },
    {
      "inputs": [
        {
          "internalType": "uint256",
          "name": "amountCEPcoin",
          "type": "uint256"
        },
        {
          "internalType": "uint256",
          "name": "amountStablecoin",
          "type": "uint256"
        }
      ],
      "name": "addLiquidity",
      "outputs": [],
      "stateMutability": "nonpayable",
      "type": "function"
    },
    {
      "inputs": [
        {
          "internalType": "address",
          "name": "owner",
          "type": "address"
        },
        {
          "internalType": "address",
          "name": "spender",
          "type": "address"
        }
      ],
      "name": "allowance",
      "outputs": [
        {
          "internalType": "uint256",
          "name": "",
          "type": "uint256"
        }
      ],
      "stateMutability": "view",
      "type": "function"
    },
    {
      "inputs": [
        {
          "internalType": "address",
          "name": "spender",
          "type": "address"
        },
        {
          "internalType": "uint256",
          "name": "value",
          "type": "uint256"
        }
      ],
      "name": "approve",
      "outputs": [
        {
          "internalType": "bool",
          "name": "",
          "type": "bool"
        }
      ],
      "stateMutability": "nonpayable",
      "type": "function"
    },
    {
      "inputs": [
        {
          "internalType": "address",
          "name": "account",
          "type": "address"
        }
      ],
      "name": "balanceOf",
      "outputs": [
        {
          "internalType": "uint256",
          "name": "",
          "type": "uint256"
        }
      ],
      "stateMutability": "view",
      "type": "function"
    },
    {
      "inputs": [],
      "name": "decimals",
      "outputs": [
        {
          "internalType": "uint8",
          "name": "",
          "type": "uint8"
        }
      ],
      "stateMutability": "view",
      "type": "function"
    },
    {
      "inputs": [],
      "name": "getReserves",
      "outputs": [
        {
          "internalType": "uint256",
          "name": "",
          "type": "uint256"
        },
        {
          "internalType": "uint256",
          "name": "",
          "type": "uint256"
        }
      ],
      "stateMutability": "view",
      "type": "function"
    },
    {
      "inputs": [],
      "name": "name",
      "outputs": [
        {
          "internalType": "string",
          "name": "",
          "type": "string"
        }
      ],
      "stateMutability": "view",
      "type": "function"
    },
    {
      "inputs": [
        {
          "internalType": "uint256",
          "name": "liquidity",
          "type": "uint256"
        }
      ],
      "name": "removeLiquidity",
      "outputs": [],
      "stateMutability": "nonpayable",
      "type": "function"
    },
    {
      "inputs": [],
      "name": "reserveCEP",
      "outputs": [
        {
          "internalType": "uint256",
          "name": "",
          "type": "uint256"
        }
      ],
      "stateMutability": "view",
      "type": "function"
    },
    {
      "inputs": [],
      "name": "reserveStablecoin",
      "outputs": [
        {
          "internalType": "uint256",
          "name": "",
          "type": "uint256"
        }
      ],
      "stateMutability": "view",
      "type": "function"
    },
    {
      "inputs": [],
      "name": "stablecoin",
      "outputs": [
        {
          "internalType": "contract IERC20",
          "name": "",
          "type": "address"
        }
      ],
      "stateMutability": "view",
      "type": "function"
    },
    {
      "inputs": [],
      "name": "symbol",
      "outputs": [
        {
          "internalType": "string",
          "name": "",
          "type": "string"
        }
      ],
      "stateMutability": "view",
      "type": "function"
    },
    {
      "inputs": [],
      "name": "totalSupply",
      "outputs": [
        {
          "internalType": "uint256",
          "name": "",
          "type": "uint256"
        }
      ],
      "stateMutability": "view",
      "type": "function"
    },
    {
      "inputs": [
        {
          "internalType": "address",
          "name": "to",
          "type": "address"
        },
        {
          "internalType": "uint256",
          "name": "value",
          "type": "uint256"
        }
      ],
      "name": "transfer",
      "outputs": [
        {
          "internalType": "bool",
          "name": "",
          "type": "bool"
        }
      ],
      "stateMutability": "nonpayable",
      "type": "function"
    },
    {
      "inputs": [
        {
          "internalType": "address",
          "name": "from",
          "type": "address"
        },
        {
          "internalType": "address",
          "name": "to",
          "type": "address"
        },
        {
          "internalType": "uint256",
          "name": "value",
          "type": "uint256"
        }
      ],
      "name": "transferFrom",
      "outputs": [
        {
          "internalType": "bool",
          "name": "",
          "type": "bool"
        }
      ],
      "stateMutability": "nonpayable",
      "type": "function"
    }
  ],
  "bytecode": "0x608060405234801561001057600080fd5b5060405161210d38038061210d833981810160405281019061003291906101ac565b6040518060400160405280601181526020017f437265657065722d4c4e5820546f6b656e0000000000000000000000000000008152506040518060400160405280600781526020017f4345502d4c4e580000000000000000000000000000000000000000000000000081525081600390816100ad919061043c565b5080600490816100bd919061043c565b50505081600560006101000a81548173ffffffffffffffffffffffffffffffffffffffff021916908373ffffffffffffffffffffffffffffffffffffffff16021790555080600660006101000a81548173ffffffffffffffffffffffffffffffffffffffff021916908373ffffffffffffffffffffffffffffffffffffffff160217905550505061050e565b600080fd5b600073ffffffffffffffffffffffffffffffffffffffff82169050919050565b60006101798261014e565b9050919050565b6101898161016e565b811461019457600080fd5b50565b6000815190506101a681610180565b92915050565b600080604083850312156101c3576101c2610149565b5b60006101d185828601610197565b92505060206101e285828601610197565b9150509250929050565b600081519050919050565b7f4e487b7100000000000000000000000000000000000000000000000000000000600052604160045260246000fd5b7f4e487b7100000000000000000000000000000000000000000000000000000000600052602260045260246000fd5b6000600282049050600182168061026d57607f821691505b6020821081036102805761027f610226565b5b50919050565b60008190508160005260206000209050919050565b60006020601f8301049050919050565b600082821b905092915050565b6000600883026102e87fffffffffffffffffffffffffffffffffffffffffffffffffffffffffffffffff826102ab565b6102f286836102ab565b95508019841693508086168417925050509392505050565b6000819050919050565b6000819050919050565b600061033961033461032f8461030a565b610314565b61030a565b9050919050565b6000819050919050565b6103538361031e565b61036761035f82610340565b8484546102b8565b825550505050565b600090565b61037c61036f565b61038781848461034a565b505050565b5b818110156103ab576103a0600082610374565b60018101905061038d565b5050565b601f8211156103f0576103c181610286565b6103ca8461029b565b810160208510156103d9578190505b6103ed6103e58561029b565b83018261038c565b50505b505050565b600082821c905092915050565b6000610413600019846008026103f5565b1980831691505092915050565b600061042c8383610402565b9150826002028217905092915050565b610445826101ec565b67ffffffffffffffff81111561045e5761045d6101f7565b5b6104688254610255565b6104738282856103af565b600060209050601f8311600181146104a65760008415610494578287015190505b61049e8582610420565b865550610506565b601f1984166104b486610286565b60005b828110156104dc578489015182556001820191506020850194506020810190506104b7565b868310156104f957848901516104f5601f891682610402565b8355505b6001600288020188555050505b505050505050565b611bf08061051d6000396000f3fe608060405234801561001057600080fd5b50600436106101005760003560e01c806370a08231116100975780639cd441da116100665780639cd441da146102a2578063a9059cbb146102be578063dd62ed3e146102ee578063e9cbd8221461031e57610100565b806370a082311461021a57806395d89b411461024a57806397560dac146102685780639c8f9f231461028657610100565b806318160ddd116100d357806318160ddd1461019057806323b872dd146101ae578063313ce567146101de5780634b679245146101fc57610100565b806306fdde03146101055780630902f1ac14610123578063095ea7b31461014257806317d8eb7a14610172575b600080fd5b61010d61033c565b60405161011a919061141c565b60405180910390f35b61012b6103ce565b604051610139929190611457565b60405180910390f35b61015c6004803603810190610157919061150f565b6103df565b604051610169919061156a565b60405180910390f35b61017a610402565b6040516101879190611585565b60405180910390f35b610198610408565b6040516101a59190611585565b60405180910390f35b6101c860048036038101906101c391906115a0565b610412565b6040516101d5919061156a565b60405180910390f35b6101e6610441565b6040516101f3919061160f565b60405180910390f35b61020461044a565b6040516102119190611689565b60405180910390f35b610234600480360381019061022f91906116a4565b610470565b6040516102419190611585565b60405180910390f35b6102526104b8565b60405161025f919061141c565b60405180910390f35b61027061054a565b60405161027d9190611585565b60405180910390f35b6102a0600480360381019061029b91906116d1565b610550565b005b6102bc60048036038101906102b791906116fe565b6108c2565b005b6102d860048036038101906102d3919061150f565b610ba3565b6040516102e5919061156a565b60405180910390f35b6103086004803603810190610303919061173e565b610bc6565b6040516103159190611585565b60405180910390f35b610326610c4d565b6040516103339190611689565b60405180910390f35b60606003805461034b906117ad565b80601f0160208091040260200160405190810160405280929190818152602001828054610377906117ad565b80156103c45780601f10610399576101008083540402835291602001916103c4565b820191906000526020600020905b8154815290600101906020018083116103a757829003601f168201915b5050505050905090565b600080600754600854915091509091565b6000806103ea610c73565b90506103f7818585610c7b565b600191505092915050565b60075481565b6000600254905090565b60008061041d610c73565b905061042a858285610c8d565b610435858585610d22565b60019150509392505050565b60006012905090565b600560009054906101000a900473ffffffffffffffffffffffffffffffffffffffff1681565b60008060008373ffffffffffffffffffffffffffffffffffffffff1673ffffffffffffffffffffffffffffffffffffffff168152602001908152602001600020549050919050565b6060600480546104c7906117ad565b80601f01602080910402602001604051908101604052809291908181526020018280546104f3906117ad565b80156105405780601f1061051557610100808354040283529160200191610540565b820191906000526020600020905b81548152906001019060200180831161052357829003601f168201915b5050505050905090565b60085481565b60008111610593576040517f08c379a000000000000000000000000000000000000000000000000000000000815260040161058a9061182a565b60405180910390fd5b600061059d610408565b600754836105ab9190611879565b6105b591906118ea565b905060006105c1610408565b600854846105cf9190611879565b6105d991906118ea565b90506105e53384610e16565b600560009054906101000a900473ffffffffffffffffffffffffffffffffffffffff1673ffffffffffffffffffffffffffffffffffffffff1663a9059cbb33846040518363ffffffff1660e01b815260040161064292919061192a565b6020604051808303816000875af1158015610661573d6000803e3d6000fd5b505050506040513d601f19601f82011682018060405250810190610685919061197f565b50600660009054906101000a900473ffffffffffffffffffffffffffffffffffffffff1673ffffffffffffffffffffffffffffffffffffffff1663a9059cbb33836040518363ffffffff1660e01b81526004016106e392919061192a565b6020604051808303816000875af1158015610702573d6000803e3d6000fd5b505050506040513d601f19601f82011682018060405250810190610726919061197f565b50600560009054906101000a900473ffffffffffffffffffffffffffffffffffffffff1673ffffffffffffffffffffffffffffffffffffffff166370a08231306040518263ffffffff1660e01b815260040161078291906119ac565b602060405180830381865afa15801561079f573d6000803e3d6000fd5b505050506040513d601f19601f820116820180604052508101906107c391906119dc565b600781905550600660009054906101000a900473ffffffffffffffffffffffffffffffffffffffff1673ffffffffffffffffffffffffffffffffffffffff166370a08231306040518263ffffffff1660e01b815260040161082491906119ac565b602060405180830381865afa158015610841573d6000803e3d6000fd5b505050506040513d601f19601f8201168201806040525081019061086591906119dc565b6008819055503373ffffffffffffffffffffffffffffffffffffffff167f1dc8bb69df2b8e91fbdcbfcf93d951b3f0000f085a95fe3f7946d6161439245d8383866040516108b593929190611a09565b60405180910390a2505050565b6000821180156108d25750600081115b610911576040517f08c379a000000000000000000000000000000000000000000000000000000000815260040161090890611a8c565b60405180910390fd5b600560009054906101000a900473ffffffffffffffffffffffffffffffffffffffff1673ffffffffffffffffffffffffffffffffffffffff166323b872dd3330856040518463ffffffff1660e01b815260040161097093929190611aac565b6020604051808303816000875af115801561098f573d6000803e3d6000fd5b505050506040513d601f19601f820116820180604052508101906109b3919061197f565b50600660009054906101000a900473ffffffffffffffffffffffffffffffffffffffff1673ffffffffffffffffffffffffffffffffffffffff166323b872dd3330846040518463ffffffff1660e01b8152600401610a1393929190611aac565b6020604051808303816000875af1158015610a32573d6000803e3d6000fd5b505050506040513d601f19601f82011682018060405250810190610a56919061197f565b50600080610a62610408565b03610a8257610a7b8284610a769190611879565b610e98565b9050610acd565b610aca600754610a90610408565b85610a9b9190611879565b610aa591906118ea565b600854610ab0610408565b85610abb9190611879565b610ac591906118ea565b610ef5565b90505b60008111610b10576040517f08c379a0000000000000000000000000000000000000000000000000000000008152600401610b0790611b2f565b60405180910390fd5b610b1a3382610f0e565b8260076000828254610b2c9190611b4f565b925050819055508160086000828254610b459190611b4f565b925050819055503373ffffffffffffffffffffffffffffffffffffffff167f64b83944e79c3ce8d4c297411de637c3e102d064677aac0c163976ebdcd6f50e848484604051610b9693929190611a09565b60405180910390a2505050565b600080610bae610c73565b9050610bbb818585610d22565b600191505092915050565b6000600160008473ffffffffffffffffffffffffffffffffffffffff1673ffffffffffffffffffffffffffffffffffffffff16815260200190815260200160002060008373ffffffffffffffffffffffffffffffffffffffff1673ffffffffffffffffffffffffffffffffffffffff16815260200190815260200160002054905092915050565b600660009054906101000a900473ffffffffffffffffffffffffffffffffffffffff1681565b600033905090565b610c888383836001610f90565b505050565b6000610c998484610bc6565b90507fffffffffffffffffffffffffffffffffffffffffffffffffffffffffffffffff811015610d1c5781811015610d0c578281836040517ffb8f41b2000000000000000000000000000000000000000000000000000000008152600401610d0393929190611b83565b60405180910390fd5b610d1b84848484036000610f90565b5b50505050565b600073ffffffffffffffffffffffffffffffffffffffff168373ffffffffffffffffffffffffffffffffffffffff1603610d945760006040517f96c6fd1e000000000000000000000000000000000000000000000000000000008152600401610d8b91906119ac565b60405180910390fd5b600073ffffffffffffffffffffffffffffffffffffffff168273ffffffffffffffffffffffffffffffffffffffff1603610e065760006040517fec442f05000000000000000000000000000000000000000000000000000000008152600401610dfd91906119ac565b60405180910390fd5b610e11838383611167565b505050565b600073ffffffffffffffffffffffffffffffffffffffff168273ffffffffffffffffffffffffffffffffffffffff1603610e885760006040517f96c6fd1e000000000000000000000000000000000000000000000000000000008152600401610e7f91906119ac565b60405180910390fd5b610e9482600083611167565b5050565b6000806002600184610eaa9190611b4f565b610eb491906118ea565b90508291505b81811015610eef578091506002818285610ed491906118ea565b610ede9190611b4f565b610ee891906118ea565b9050610eba565b50919050565b6000818310610f045781610f06565b825b905092915050565b600073ffffffffffffffffffffffffffffffffffffffff168273ffffffffffffffffffffffffffffffffffffffff1603610f805760006040517fec442f05000000000000000000000000000000000000000000000000000000008152600401610f7791906119ac565b60405180910390fd5b610f8c60008383611167565b5050565b600073ffffffffffffffffffffffffffffffffffffffff168473ffffffffffffffffffffffffffffffffffffffff16036110025760006040517fe602df05000000000000000000000000000000000000000000000000000000008152600401610ff991906119ac565b60405180910390fd5b600073ffffffffffffffffffffffffffffffffffffffff168373ffffffffffffffffffffffffffffffffffffffff16036110745760006040517f94280d6200000000000000000000000000000000000000000000000000000000815260040161106b91906119ac565b60405180910390fd5b81600160008673ffffffffffffffffffffffffffffffffffffffff1673ffffffffffffffffffffffffffffffffffffffff16815260200190815260200160002060008573ffffffffffffffffffffffffffffffffffffffff1673ffffffffffffffffffffffffffffffffffffffff168152602001908152602001600020819055508015611161578273ffffffffffffffffffffffffffffffffffffffff168473ffffffffffffffffffffffffffffffffffffffff167f8c5be1e5ebec7d5bd14f71427d1e84f3dd0314c0f7b2291e5b200ac8c7c3b925846040516111589190611585565b60405180910390a35b50505050565b600073ffffffffffffffffffffffffffffffffffffffff168373ffffffffffffffffffffffffffffffffffffffff16036111b95780600260008282546111ad9190611b4f565b9250508190555061128c565b60008060008573ffffffffffffffffffffffffffffffffffffffff1673ffffffffffffffffffffffffffffffffffffffff16815260200190815260200160002054905081811015611245578381836040517fe450d38c00000000000000000000000000000000000000000000000000000000815260040161123c93929190611b83565b60405180910390fd5b8181036000808673ffffffffffffffffffffffffffffffffffffffff1673ffffffffffffffffffffffffffffffffffffffff16815260200190815260200160002081905550505b600073ffffffffffffffffffffffffffffffffffffffff168273ffffffffffffffffffffffffffffffffffffffff16036112d55780600260008282540392505081905550611322565b806000808473ffffffffffffffffffffffffffffffffffffffff1673ffffffffffffffffffffffffffffffffffffffff168152602001908152602001600020600082825401925050819055505b8173ffffffffffffffffffffffffffffffffffffffff168373ffffffffffffffffffffffffffffffffffffffff167fddf252ad1be2c89b69c2b068fc378daa952ba7f163c4a11628f55a4df523b3ef8360405161137f9190611585565b60405180910390a3505050565b600081519050919050565b600082825260208201905092915050565b60005b838110156113c65780820151818401526020810190506113ab565b60008484015250505050565b6000601f19601f8301169050919050565b60006113ee8261138c565b6113f88185611397565b93506114088185602086016113a8565b611411816113d2565b840191505092915050565b6000602082019050818103600083015261143681846113e3565b905092915050565b6000819050919050565b6114518161143e565b82525050565b600060408201905061146c6000830185611448565b6114796020830184611448565b9392505050565b600080fd5b600073ffffffffffffffffffffffffffffffffffffffff82169050919050565b60006114b082611485565b9050919050565b6114c0816114a5565b81146114cb57600080fd5b50565b6000813590506114dd816114b7565b92915050565b6114ec8161143e565b81146114f757600080fd5b50565b600081359050611509816114e3565b92915050565b6000806040838503121561152657611525611480565b5b6000611534858286016114ce565b9250506020611545858286016114fa565b9150509250929050565b60008115159050919050565b6115648161154f565b82525050565b600060208201905061157f600083018461155b565b92915050565b600060208201905061159a6000830184611448565b92915050565b6000806000606084860312156115b9576115b8611480565b5b60006115c7868287016114ce565b93505060206115d8868287016114ce565b92505060406115e9868287016114fa565b9150509250925092565b600060ff82169050919050565b611609816115f3565b82525050565b60006020820190506116246000830184611600565b92915050565b6000819050919050565b600061164f61164a61164584611485565b61162a565b611485565b9050919050565b600061166182611634565b9050919050565b600061167382611656565b9050919050565b61168381611668565b82525050565b600060208201905061169e600083018461167a565b92915050565b6000602082840312156116ba576116b9611480565b5b60006116c8848285016114ce565b91505092915050565b6000602082840312156116e7576116e6611480565b5b60006116f5848285016114fa565b91505092915050565b6000806040838503121561171557611714611480565b5b6000611723858286016114fa565b9250506020611734858286016114fa565b9150509250929050565b6000806040838503121561175557611754611480565b5b6000611763858286016114ce565b9250506020611774858286016114ce565b9150509250929050565b7f4e487b7100000000000000000000000000000000000000000000000000000000600052602260045260246000fd5b600060028204905060018216806117c557607f821691505b6020821081036117d8576117d761177e565b5b50919050565b7f4c6971756964697479206d7573742062652067726561746572207468616e2030600082015250565b6000611814602083611397565b915061181f826117de565b602082019050919050565b6000602082019050818103600083015261184381611807565b9050919050565b7f4e487b7100000000000000000000000000000000000000000000000000000000600052601160045260246000fd5b60006118848261143e565b915061188f8361143e565b925082820261189d8161143e565b915082820484148315176118b4576118b361184a565b5b5092915050565b7f4e487b7100000000000000000000000000000000000000000000000000000000600052601260045260246000fd5b60006118f58261143e565b91506119008361143e565b9250826119105761190f6118bb565b5b828204905092915050565b611924816114a5565b82525050565b600060408201905061193f600083018561191b565b61194c6020830184611448565b9392505050565b61195c8161154f565b811461196757600080fd5b50565b60008151905061197981611953565b92915050565b60006020828403121561199557611994611480565b5b60006119a38482850161196a565b91505092915050565b60006020820190506119c1600083018461191b565b92915050565b6000815190506119d6816114e3565b92915050565b6000602082840312156119f2576119f1611480565b5b6000611a00848285016119c7565b91505092915050565b6000606082019050611a1e6000830186611448565b611a2b6020830185611448565b611a386040830184611448565b949350505050565b7f416d6f756e7473206d7573742062652067726561746572207468616e20300000600082015250565b6000611a76601e83611397565b9150611a8182611a40565b602082019050919050565b60006020820190508181036000830152611aa581611a69565b9050919050565b6000606082019050611ac1600083018661191b565b611ace602083018561191b565b611adb6040830184611448565b949350505050565b7f496e73756666696369656e74206c6971756964697479206d696e746564000000600082015250565b6000611b19601d83611397565b9150611b2482611ae3565b602082019050919050565b60006020820190508181036000830152611b4881611b0c565b9050919050565b6000611b5a8261143e565b9150611b658361143e565b9250828201905080821115611b7d57611b7c61184a565b5b92915050565b6000606082019050611b98600083018661191b565b611ba56020830185611448565b611bb26040830184611448565b94935050505056fea264697066735822122089f00ebbdd2ec449a70daee7eed8c53a85350f3e594df41f2769ce432c1527a064736f6c634300081c0033",
  "linkReferences": {},
  "deployedLinkReferences": {}
}