{
  "_format": "hh-sol-artifact-1",
  "contractName": "CreeperPool",
  "sourceName": "contracts/CreeperPool.sol",
  "abi": [
    {
      "inputs": [
        {
          "internalType": "address",
          "name": "_CEPcoin",
          "type": "address"
        },
        {
          "internalType": "address",
          "name": "_stablecoin",
          "type": "address"
        }
      ],
      "stateMutability": "nonpayable",
      "type": "constructor"
    },
    {
      "inputs": [
        {
          "internalType": "address",
          "name": "spender",
          "type": "address"
        },
        {
          "internalType": "uint256",
          "name": "allowance",
          "type": "uint256"
        },
        {
          "internalType": "uint256",
          "name": "needed",
          "type": "uint256"
        }
      ],
      "name": "ERC20InsufficientAllowance",
      "type": "error"
    },
    {
      "inputs": [
        {
          "internalType": "address",
          "name": "sender",
          "type": "address"
        },
        {
          "internalType": "uint256",
          "name": "balance",
          "type": "uint256"
        },
        {
          "internalType": "uint256",
          "name": "needed",
          "type": "uint256"
        }
      ],
      "name": "ERC20InsufficientBalance",
      "type": "error"
    },
    {
      "inputs": [
        {
          "internalType": "address",
          "name": "approver",
          "type": "address"
        }
      ],
      "name": "ERC20InvalidApprover",
      "type": "error"
    },
    {
      "inputs": [
        {
          "internalType": "address",
          "name": "receiver",
          "type": "address"
        }
      ],
      "name": "ERC20InvalidReceiver",
      "type": "error"
    },
    {
      "inputs": [
        {
          "internalType": "address",
          "name": "sender",
          "type": "address"
        }
      ],
      "name": "ERC20InvalidSender",
      "type": "error"
    },
    {
      "inputs": [
        {
          "internalType": "address",
          "name": "spender",
          "type": "address"
        }
      ],
      "name": "ERC20InvalidSpender",
      "type": "error"
    },
    {
      "anonymous": false,
      "inputs": [
        {
          "indexed": true,
          "internalType": "address",
          "name": "owner",
          "type": "address"
        },
        {
          "indexed": true,
          "internalType": "address",
          "name": "spender",
          "type": "address"
        },
        {
          "indexed": false,
          "internalType": "uint256",
          "name": "value",
          "type": "uint256"
        }
      ],
      "name": "Approval",
      "type": "event"
    },
    {
      "anonymous": false,
      "inputs": [
        {
          "indexed": true,
          "internalType": "address",
          "name": "provider",
          "type": "address"
        },
        {
          "indexed": false,
          "internalType": "uint256",
          "name": "amountCEPcoin",
          "type": "uint256"
        },
        {
          "indexed": false,
          "internalType": "uint256",
          "name": "amountStablecoin",
          "type": "uint256"
        },
        {
          "indexed": false,
          "internalType": "uint256",
          "name": "liquidity",
          "type": "uint256"
        }
      ],
      "name": "LiquidityAdded",
      "type": "event"
    },
    {
      "anonymous": false,
      "inputs": [
        {
          "indexed": true,
          "internalType": "address",
          "name": "provider",
          "type": "address"
        },
        {
          "indexed": false,
          "internalType": "uint256",
          "name": "amountCEPcoin",
          "type": "uint256"
        },
        {
          "indexed": false,
          "internalType": "uint256",
          "name": "amountStablecoin",
          "type": "uint256"
        },
        {
          "indexed": false,
          "internalType": "uint256",
          "name": "liquidity",
          "type": "uint256"
        }
      ],
      "name": "LiquidityRemoved",
      "type": "event"
    },
    {
      "anonymous": false,
      "inputs": [
        {
          "indexed": true,
          "internalType": "address",
          "name": "from",
          "type": "address"
        },
        {
          "indexed": true,
          "internalType": "address",
          "name": "to",
          "type": "address"
        },
        {
          "indexed": false,
          "internalType": "uint256",
          "name": "value",
          "type": "uint256"
        }
      ],
      "name": "Transfer",
      "type": "event"
    },
    {
      "inputs": [],
      "name": "CEPcoin",
      "outputs": [
        {
          "internalType": "contract IERC20",
          "name": "",
          "type": "address"
        }
      ],
      "stateMutability": "view",
      "type": "function"
    },
    {
      "inputs": [
        {
          "internalType": "uint256",
          "name": "amountCEPcoin",
          "type": "uint256"
        },
        {
          "internalType": "uint256",
          "name": "amountStablecoin",
          "type": "uint256"
        }
      ],
      "name": "addLiquidity",
      "outputs": [],
      "stateMutability": "nonpayable",
      "type": "function"
    },
    {
      "inputs": [
        {
          "internalType": "address",
          "name": "owner",
          "type": "address"
        },
        {
          "internalType": "address",
          "name": "spender",
          "type": "address"
        }
      ],
      "name": "allowance",
      "outputs": [
        {
          "internalType": "uint256",
          "name": "",
          "type": "uint256"
        }
      ],
      "stateMutability": "view",
      "type": "function"
    },
    {
      "inputs": [
        {
          "internalType": "address",
          "name": "spender",
          "type": "address"
        },
        {
          "internalType": "uint256",
          "name": "value",
          "type": "uint256"
        }
      ],
      "name": "approve",
      "outputs": [
        {
          "internalType": "bool",
          "name": "",
          "type": "bool"
        }
      ],
      "stateMutability": "nonpayable",
      "type": "function"
    },
    {
      "inputs": [
        {
          "internalType": "address",
          "name": "buyContract",
          "type": "address"
        }
      ],
      "name": "approveBuyContract",
      "outputs": [],
      "stateMutability": "nonpayable",
      "type": "function"
    },
    {
      "inputs": [
        {
          "internalType": "address",
          "name": "account",
          "type": "address"
        }
      ],
      "name": "balanceOf",
      "outputs": [
        {
          "internalType": "uint256",
          "name": "",
          "type": "uint256"
        }
      ],
      "stateMutability": "view",
      "type": "function"
    },
    {
      "inputs": [],
      "name": "decimals",
      "outputs": [
        {
          "internalType": "uint8",
          "name": "",
          "type": "uint8"
        }
      ],
      "stateMutability": "view",
      "type": "function"
    },
    {
      "inputs": [],
      "name": "getReserves",
      "outputs": [
        {
          "internalType": "uint256",
          "name": "",
          "type": "uint256"
        },
        {
          "internalType": "uint256",
          "name": "",
          "type": "uint256"
        }
      ],
      "stateMutability": "view",
      "type": "function"
    },
    {
      "inputs": [],
      "name": "name",
      "outputs": [
        {
          "internalType": "string",
          "name": "",
          "type": "string"
        }
      ],
      "stateMutability": "view",
      "type": "function"
    },
    {
      "inputs": [],
      "name": "owner",
      "outputs": [
        {
          "internalType": "address",
          "name": "",
          "type": "address"
        }
      ],
      "stateMutability": "view",
      "type": "function"
    },
    {
      "inputs": [
        {
          "internalType": "uint256",
          "name": "liquidity",
          "type": "uint256"
        }
      ],
      "name": "removeLiquidity",
      "outputs": [],
      "stateMutability": "nonpayable",
      "type": "function"
    },
    {
      "inputs": [],
      "name": "reserveCEP",
      "outputs": [
        {
          "internalType": "uint256",
          "name": "",
          "type": "uint256"
        }
      ],
      "stateMutability": "view",
      "type": "function"
    },
    {
      "inputs": [],
      "name": "reserveStablecoin",
      "outputs": [
        {
          "internalType": "uint256",
          "name": "",
          "type": "uint256"
        }
      ],
      "stateMutability": "view",
      "type": "function"
    },
    {
      "inputs": [],
      "name": "stablecoin",
      "outputs": [
        {
          "internalType": "contract IERC20",
          "name": "",
          "type": "address"
        }
      ],
      "stateMutability": "view",
      "type": "function"
    },
    {
      "inputs": [],
      "name": "symbol",
      "outputs": [
        {
          "internalType": "string",
          "name": "",
          "type": "string"
        }
      ],
      "stateMutability": "view",
      "type": "function"
    },
    {
      "inputs": [],
      "name": "totalSupply",
      "outputs": [
        {
          "internalType": "uint256",
          "name": "",
          "type": "uint256"
        }
      ],
      "stateMutability": "view",
      "type": "function"
    },
    {
      "inputs": [
        {
          "internalType": "address",
          "name": "to",
          "type": "address"
        },
        {
          "internalType": "uint256",
          "name": "value",
          "type": "uint256"
        }
      ],
      "name": "transfer",
      "outputs": [
        {
          "internalType": "bool",
          "name": "",
          "type": "bool"
        }
      ],
      "stateMutability": "nonpayable",
      "type": "function"
    },
    {
      "inputs": [
        {
          "internalType": "address",
          "name": "from",
          "type": "address"
        },
        {
          "internalType": "address",
          "name": "to",
          "type": "address"
        },
        {
          "internalType": "uint256",
          "name": "value",
          "type": "uint256"
        }
      ],
      "name": "transferFrom",
      "outputs": [
        {
          "internalType": "bool",
          "name": "",
          "type": "bool"
        }
      ],
      "stateMutability": "nonpayable",
      "type": "function"
    }
  ],
  "bytecode": "0x608060405234801561001057600080fd5b50604051612384380380612384833981810160405281019061003291906101ed565b6040518060400160405280601181526020017f437265657065722d4c4e5820546f6b656e0000000000000000000000000000008152506040518060400160405280600781526020017f4345502d4c4e580000000000000000000000000000000000000000000000000081525081600390816100ad919061047d565b5080600490816100bd919061047d565b50505081600560006101000a81548173ffffffffffffffffffffffffffffffffffffffff021916908373ffffffffffffffffffffffffffffffffffffffff16021790555080600660006101000a81548173ffffffffffffffffffffffffffffffffffffffff021916908373ffffffffffffffffffffffffffffffffffffffff16021790555033600760006101000a81548173ffffffffffffffffffffffffffffffffffffffff021916908373ffffffffffffffffffffffffffffffffffffffff160217905550505061054f565b600080fd5b600073ffffffffffffffffffffffffffffffffffffffff82169050919050565b60006101ba8261018f565b9050919050565b6101ca816101af565b81146101d557600080fd5b50565b6000815190506101e7816101c1565b92915050565b600080604083850312156102045761020361018a565b5b6000610212858286016101d8565b9250506020610223858286016101d8565b9150509250929050565b600081519050919050565b7f4e487b7100000000000000000000000000000000000000000000000000000000600052604160045260246000fd5b7f4e487b7100000000000000000000000000000000000000000000000000000000600052602260045260246000fd5b600060028204905060018216806102ae57607f821691505b6020821081036102c1576102c0610267565b5b50919050565b60008190508160005260206000209050919050565b60006020601f8301049050919050565b600082821b905092915050565b6000600883026103297fffffffffffffffffffffffffffffffffffffffffffffffffffffffffffffffff826102ec565b61033386836102ec565b95508019841693508086168417925050509392505050565b6000819050919050565b6000819050919050565b600061037a6103756103708461034b565b610355565b61034b565b9050919050565b6000819050919050565b6103948361035f565b6103a86103a082610381565b8484546102f9565b825550505050565b600090565b6103bd6103b0565b6103c881848461038b565b505050565b5b818110156103ec576103e16000826103b5565b6001810190506103ce565b5050565b601f82111561043157610402816102c7565b61040b846102dc565b8101602085101561041a578190505b61042e610426856102dc565b8301826103cd565b50505b505050565b600082821c905092915050565b600061045460001984600802610436565b1980831691505092915050565b600061046d8383610443565b9150826002028217905092915050565b6104868261022d565b67ffffffffffffffff81111561049f5761049e610238565b5b6104a98254610296565b6104b48282856103f0565b600060209050601f8311600181146104e757600084156104d5578287015190505b6104df8582610461565b865550610547565b601f1984166104f5866102c7565b60005b8281101561051d578489015182556001820191506020850194506020810190506104f8565b8683101561053a5784890151610536601f891682610443565b8355505b6001600288020188555050505b505050505050565b611e268061055e6000396000f3fe608060405234801561001057600080fd5b50600436106101165760003560e01c80638da5cb5b116100a25780639cd441da116100715780639cd441da146102d6578063a1dd207b146102f2578063a9059cbb1461030e578063dd62ed3e1461033e578063e9cbd8221461036e57610116565b80638da5cb5b1461026057806395d89b411461027e57806397560dac1461029c5780639c8f9f23146102ba57610116565b806318160ddd116100e957806318160ddd146101a657806323b872dd146101c4578063313ce567146101f45780634b6792451461021257806370a082311461023057610116565b806306fdde031461011b5780630902f1ac14610139578063095ea7b31461015857806317d8eb7a14610188575b600080fd5b61012361038c565b60405161013091906115e6565b60405180910390f35b61014161041e565b60405161014f929190611621565b60405180910390f35b610172600480360381019061016d91906116d9565b61042f565b60405161017f9190611734565b60405180910390f35b610190610452565b60405161019d919061174f565b60405180910390f35b6101ae610458565b6040516101bb919061174f565b60405180910390f35b6101de60048036038101906101d9919061176a565b610462565b6040516101eb9190611734565b60405180910390f35b6101fc610491565b60405161020991906117d9565b60405180910390f35b61021a61049a565b6040516102279190611853565b60405180910390f35b61024a6004803603810190610245919061186e565b6104c0565b604051610257919061174f565b60405180910390f35b610268610508565b60405161027591906118aa565b60405180910390f35b61028661052e565b60405161029391906115e6565b60405180910390f35b6102a46105c0565b6040516102b1919061174f565b60405180910390f35b6102d460048036038101906102cf91906118c5565b6105c6565b005b6102f060048036038101906102eb91906118f2565b610938565b005b61030c6004803603810190610307919061186e565b610c19565b005b610328600480360381019061032391906116d9565b610d6d565b6040516103359190611734565b60405180910390f35b61035860048036038101906103539190611932565b610d90565b604051610365919061174f565b60405180910390f35b610376610e17565b6040516103839190611853565b60405180910390f35b60606003805461039b906119a1565b80601f01602080910402602001604051908101604052809291908181526020018280546103c7906119a1565b80156104145780601f106103e957610100808354040283529160200191610414565b820191906000526020600020905b8154815290600101906020018083116103f757829003601f168201915b5050505050905090565b600080600854600954915091509091565b60008061043a610e3d565b9050610447818585610e45565b600191505092915050565b60085481565b6000600254905090565b60008061046d610e3d565b905061047a858285610e57565b610485858585610eec565b60019150509392505050565b60006012905090565b600560009054906101000a900473ffffffffffffffffffffffffffffffffffffffff1681565b60008060008373ffffffffffffffffffffffffffffffffffffffff1673ffffffffffffffffffffffffffffffffffffffff168152602001908152602001600020549050919050565b600760009054906101000a900473ffffffffffffffffffffffffffffffffffffffff1681565b60606004805461053d906119a1565b80601f0160208091040260200160405190810160405280929190818152602001828054610569906119a1565b80156105b65780601f1061058b576101008083540402835291602001916105b6565b820191906000526020600020905b81548152906001019060200180831161059957829003601f168201915b5050505050905090565b60095481565b60008111610609576040517f08c379a000000000000000000000000000000000000000000000000000000000815260040161060090611a1e565b60405180910390fd5b6000610613610458565b600854836106219190611a6d565b61062b9190611ade565b90506000610637610458565b600954846106459190611a6d565b61064f9190611ade565b905061065b3384610fe0565b600560009054906101000a900473ffffffffffffffffffffffffffffffffffffffff1673ffffffffffffffffffffffffffffffffffffffff1663a9059cbb33846040518363ffffffff1660e01b81526004016106b8929190611b0f565b6020604051808303816000875af11580156106d7573d6000803e3d6000fd5b505050506040513d601f19601f820116820180604052508101906106fb9190611b64565b50600660009054906101000a900473ffffffffffffffffffffffffffffffffffffffff1673ffffffffffffffffffffffffffffffffffffffff1663a9059cbb33836040518363ffffffff1660e01b8152600401610759929190611b0f565b6020604051808303816000875af1158015610778573d6000803e3d6000fd5b505050506040513d601f19601f8201168201806040525081019061079c9190611b64565b50600560009054906101000a900473ffffffffffffffffffffffffffffffffffffffff1673ffffffffffffffffffffffffffffffffffffffff166370a08231306040518263ffffffff1660e01b81526004016107f891906118aa565b602060405180830381865afa158015610815573d6000803e3d6000fd5b505050506040513d601f19601f820116820180604052508101906108399190611ba6565b600881905550600660009054906101000a900473ffffffffffffffffffffffffffffffffffffffff1673ffffffffffffffffffffffffffffffffffffffff166370a08231306040518263ffffffff1660e01b815260040161089a91906118aa565b602060405180830381865afa1580156108b7573d6000803e3d6000fd5b505050506040513d601f19601f820116820180604052508101906108db9190611ba6565b6009819055503373ffffffffffffffffffffffffffffffffffffffff167f1dc8bb69df2b8e91fbdcbfcf93d951b3f0000f085a95fe3f7946d6161439245d83838660405161092b93929190611bd3565b60405180910390a2505050565b6000821180156109485750600081115b610987576040517f08c379a000000000000000000000000000000000000000000000000000000000815260040161097e90611c56565b60405180910390fd5b600560009054906101000a900473ffffffffffffffffffffffffffffffffffffffff1673ffffffffffffffffffffffffffffffffffffffff166323b872dd3330856040518463ffffffff1660e01b81526004016109e693929190611c76565b6020604051808303816000875af1158015610a05573d6000803e3d6000fd5b505050506040513d601f19601f82011682018060405250810190610a299190611b64565b50600660009054906101000a900473ffffffffffffffffffffffffffffffffffffffff1673ffffffffffffffffffffffffffffffffffffffff166323b872dd3330846040518463ffffffff1660e01b8152600401610a8993929190611c76565b6020604051808303816000875af1158015610aa8573d6000803e3d6000fd5b505050506040513d601f19601f82011682018060405250810190610acc9190611b64565b50600080610ad8610458565b03610af857610af18284610aec9190611a6d565b611062565b9050610b43565b610b40600854610b06610458565b85610b119190611a6d565b610b1b9190611ade565b600954610b26610458565b85610b319190611a6d565b610b3b9190611ade565b6110bf565b90505b60008111610b86576040517f08c379a0000000000000000000000000000000000000000000000000000000008152600401610b7d90611cf9565b60405180910390fd5b610b9033826110d8565b8260086000828254610ba29190611d19565b925050819055508160096000828254610bbb9190611d19565b925050819055503373ffffffffffffffffffffffffffffffffffffffff167f64b83944e79c3ce8d4c297411de637c3e102d064677aac0c163976ebdcd6f50e848484604051610c0c93929190611bd3565b60405180910390a2505050565b600760009054906101000a900473ffffffffffffffffffffffffffffffffffffffff1673ffffffffffffffffffffffffffffffffffffffff163373ffffffffffffffffffffffffffffffffffffffff1614610ca9576040517f08c379a0000000000000000000000000000000000000000000000000000000008152600401610ca090611d99565b60405180910390fd5b600560009054906101000a900473ffffffffffffffffffffffffffffffffffffffff1673ffffffffffffffffffffffffffffffffffffffff1663095ea7b3827fffffffffffffffffffffffffffffffffffffffffffffffffffffffffffffffff6040518363ffffffff1660e01b8152600401610d26929190611b0f565b6020604051808303816000875af1158015610d45573d6000803e3d6000fd5b505050506040513d601f19601f82011682018060405250810190610d699190611b64565b5050565b600080610d78610e3d565b9050610d85818585610eec565b600191505092915050565b6000600160008473ffffffffffffffffffffffffffffffffffffffff1673ffffffffffffffffffffffffffffffffffffffff16815260200190815260200160002060008373ffffffffffffffffffffffffffffffffffffffff1673ffffffffffffffffffffffffffffffffffffffff16815260200190815260200160002054905092915050565b600660009054906101000a900473ffffffffffffffffffffffffffffffffffffffff1681565b600033905090565b610e52838383600161115a565b505050565b6000610e638484610d90565b90507fffffffffffffffffffffffffffffffffffffffffffffffffffffffffffffffff811015610ee65781811015610ed6578281836040517ffb8f41b2000000000000000000000000000000000000000000000000000000008152600401610ecd93929190611db9565b60405180910390fd5b610ee58484848403600061115a565b5b50505050565b600073ffffffffffffffffffffffffffffffffffffffff168373ffffffffffffffffffffffffffffffffffffffff1603610f5e5760006040517f96c6fd1e000000000000000000000000000000000000000000000000000000008152600401610f5591906118aa565b60405180910390fd5b600073ffffffffffffffffffffffffffffffffffffffff168273ffffffffffffffffffffffffffffffffffffffff1603610fd05760006040517fec442f05000000000000000000000000000000000000000000000000000000008152600401610fc791906118aa565b60405180910390fd5b610fdb838383611331565b505050565b600073ffffffffffffffffffffffffffffffffffffffff168273ffffffffffffffffffffffffffffffffffffffff16036110525760006040517f96c6fd1e00000000000000000000000000000000000000000000000000000000815260040161104991906118aa565b60405180910390fd5b61105e82600083611331565b5050565b60008060026001846110749190611d19565b61107e9190611ade565b90508291505b818110156110b957809150600281828561109e9190611ade565b6110a89190611d19565b6110b29190611ade565b9050611084565b50919050565b60008183106110ce57816110d0565b825b905092915050565b600073ffffffffffffffffffffffffffffffffffffffff168273ffffffffffffffffffffffffffffffffffffffff160361114a5760006040517fec442f0500000000000000000000000000000000000000000000000000000000815260040161114191906118aa565b60405180910390fd5b61115660008383611331565b5050565b600073ffffffffffffffffffffffffffffffffffffffff168473ffffffffffffffffffffffffffffffffffffffff16036111cc5760006040517fe602df050000000000000000000000000000000000000000000000000000000081526004016111c391906118aa565b60405180910390fd5b600073ffffffffffffffffffffffffffffffffffffffff168373ffffffffffffffffffffffffffffffffffffffff160361123e5760006040517f94280d6200000000000000000000000000000000000000000000000000000000815260040161123591906118aa565b60405180910390fd5b81600160008673ffffffffffffffffffffffffffffffffffffffff1673ffffffffffffffffffffffffffffffffffffffff16815260200190815260200160002060008573ffffffffffffffffffffffffffffffffffffffff1673ffffffffffffffffffffffffffffffffffffffff16815260200190815260200160002081905550801561132b578273ffffffffffffffffffffffffffffffffffffffff168473ffffffffffffffffffffffffffffffffffffffff167f8c5be1e5ebec7d5bd14f71427d1e84f3dd0314c0f7b2291e5b200ac8c7c3b92584604051611322919061174f565b60405180910390a35b50505050565b600073ffffffffffffffffffffffffffffffffffffffff168373ffffffffffffffffffffffffffffffffffffffff16036113835780600260008282546113779190611d19565b92505081905550611456565b60008060008573ffffffffffffffffffffffffffffffffffffffff1673ffffffffffffffffffffffffffffffffffffffff1681526020019081526020016000205490508181101561140f578381836040517fe450d38c00000000000000000000000000000000000000000000000000000000815260040161140693929190611db9565b60405180910390fd5b8181036000808673ffffffffffffffffffffffffffffffffffffffff1673ffffffffffffffffffffffffffffffffffffffff16815260200190815260200160002081905550505b600073ffffffffffffffffffffffffffffffffffffffff168273ffffffffffffffffffffffffffffffffffffffff160361149f57806002600082825403925050819055506114ec565b806000808473ffffffffffffffffffffffffffffffffffffffff1673ffffffffffffffffffffffffffffffffffffffff168152602001908152602001600020600082825401925050819055505b8173ffffffffffffffffffffffffffffffffffffffff168373ffffffffffffffffffffffffffffffffffffffff167fddf252ad1be2c89b69c2b068fc378daa952ba7f163c4a11628f55a4df523b3ef83604051611549919061174f565b60405180910390a3505050565b600081519050919050565b600082825260208201905092915050565b60005b83811015611590578082015181840152602081019050611575565b60008484015250505050565b6000601f19601f8301169050919050565b60006115b882611556565b6115c28185611561565b93506115d2818560208601611572565b6115db8161159c565b840191505092915050565b6000602082019050818103600083015261160081846115ad565b905092915050565b6000819050919050565b61161b81611608565b82525050565b60006040820190506116366000830185611612565b6116436020830184611612565b9392505050565b600080fd5b600073ffffffffffffffffffffffffffffffffffffffff82169050919050565b600061167a8261164f565b9050919050565b61168a8161166f565b811461169557600080fd5b50565b6000813590506116a781611681565b92915050565b6116b681611608565b81146116c157600080fd5b50565b6000813590506116d3816116ad565b92915050565b600080604083850312156116f0576116ef61164a565b5b60006116fe85828601611698565b925050602061170f858286016116c4565b9150509250929050565b60008115159050919050565b61172e81611719565b82525050565b60006020820190506117496000830184611725565b92915050565b60006020820190506117646000830184611612565b92915050565b6000806000606084860312156117835761178261164a565b5b600061179186828701611698565b93505060206117a286828701611698565b92505060406117b3868287016116c4565b9150509250925092565b600060ff82169050919050565b6117d3816117bd565b82525050565b60006020820190506117ee60008301846117ca565b92915050565b6000819050919050565b600061181961181461180f8461164f565b6117f4565b61164f565b9050919050565b600061182b826117fe565b9050919050565b600061183d82611820565b9050919050565b61184d81611832565b82525050565b60006020820190506118686000830184611844565b92915050565b6000602082840312156118845761188361164a565b5b600061189284828501611698565b91505092915050565b6118a48161166f565b82525050565b60006020820190506118bf600083018461189b565b92915050565b6000602082840312156118db576118da61164a565b5b60006118e9848285016116c4565b91505092915050565b600080604083850312156119095761190861164a565b5b6000611917858286016116c4565b9250506020611928858286016116c4565b9150509250929050565b600080604083850312156119495761194861164a565b5b600061195785828601611698565b925050602061196885828601611698565b9150509250929050565b7f4e487b7100000000000000000000000000000000000000000000000000000000600052602260045260246000fd5b600060028204905060018216806119b957607f821691505b6020821081036119cc576119cb611972565b5b50919050565b7f4c6971756964697479206d7573742062652067726561746572207468616e2030600082015250565b6000611a08602083611561565b9150611a13826119d2565b602082019050919050565b60006020820190508181036000830152611a37816119fb565b9050919050565b7f4e487b7100000000000000000000000000000000000000000000000000000000600052601160045260246000fd5b6000611a7882611608565b9150611a8383611608565b9250828202611a9181611608565b91508282048414831517611aa857611aa7611a3e565b5b5092915050565b7f4e487b7100000000000000000000000000000000000000000000000000000000600052601260045260246000fd5b6000611ae982611608565b9150611af483611608565b925082611b0457611b03611aaf565b5b828204905092915050565b6000604082019050611b24600083018561189b565b611b316020830184611612565b9392505050565b611b4181611719565b8114611b4c57600080fd5b50565b600081519050611b5e81611b38565b92915050565b600060208284031215611b7a57611b7961164a565b5b6000611b8884828501611b4f565b91505092915050565b600081519050611ba0816116ad565b92915050565b600060208284031215611bbc57611bbb61164a565b5b6000611bca84828501611b91565b91505092915050565b6000606082019050611be86000830186611612565b611bf56020830185611612565b611c026040830184611612565b949350505050565b7f416d6f756e7473206d7573742062652067726561746572207468616e20300000600082015250565b6000611c40601e83611561565b9150611c4b82611c0a565b602082019050919050565b60006020820190508181036000830152611c6f81611c33565b9050919050565b6000606082019050611c8b600083018661189b565b611c98602083018561189b565b611ca56040830184611612565b949350505050565b7f496e73756666696369656e74206c6971756964697479206d696e746564000000600082015250565b6000611ce3601d83611561565b9150611cee82611cad565b602082019050919050565b60006020820190508181036000830152611d1281611cd6565b9050919050565b6000611d2482611608565b9150611d2f83611608565b9250828201905080821115611d4757611d46611a3e565b5b92915050565b7f4f6e6c79206f776e65722063616e20617070726f766500000000000000000000600082015250565b6000611d83601683611561565b9150611d8e82611d4d565b602082019050919050565b60006020820190508181036000830152611db281611d76565b9050919050565b6000606082019050611dce600083018661189b565b611ddb6020830185611612565b611de86040830184611612565b94935050505056fea26469706673582212204e7e7cd1579ef63efeb1ab64fcdcf51d22ec2bcd8c80e5341a45db5c15993cb564736f6c634300081c0033",
  "linkReferences": {},
  "deployedLinkReferences": {}
}