{
  "_format": "hh-sol-artifact-1",
  "contractName": "CreeperPool",
  "sourceName": "contracts/CreeperPool.sol",
  "abi": [
    {
      "inputs": [
        {
          "internalType": "address",
          "name": "_CEPcoin",
          "type": "address"
        },
        {
          "internalType": "address",
          "name": "_stablecoin",
          "type": "address"
        }
      ],
      "stateMutability": "nonpayable",
      "type": "constructor"
    },
    {
      "inputs": [
        {
          "internalType": "address",
          "name": "spender",
          "type": "address"
        },
        {
          "internalType": "uint256",
          "name": "allowance",
          "type": "uint256"
        },
        {
          "internalType": "uint256",
          "name": "needed",
          "type": "uint256"
        }
      ],
      "name": "ERC20InsufficientAllowance",
      "type": "error"
    },
    {
      "inputs": [
        {
          "internalType": "address",
          "name": "sender",
          "type": "address"
        },
        {
          "internalType": "uint256",
          "name": "balance",
          "type": "uint256"
        },
        {
          "internalType": "uint256",
          "name": "needed",
          "type": "uint256"
        }
      ],
      "name": "ERC20InsufficientBalance",
      "type": "error"
    },
    {
      "inputs": [
        {
          "internalType": "address",
          "name": "approver",
          "type": "address"
        }
      ],
      "name": "ERC20InvalidApprover",
      "type": "error"
    },
    {
      "inputs": [
        {
          "internalType": "address",
          "name": "receiver",
          "type": "address"
        }
      ],
      "name": "ERC20InvalidReceiver",
      "type": "error"
    },
    {
      "inputs": [
        {
          "internalType": "address",
          "name": "sender",
          "type": "address"
        }
      ],
      "name": "ERC20InvalidSender",
      "type": "error"
    },
    {
      "inputs": [
        {
          "internalType": "address",
          "name": "spender",
          "type": "address"
        }
      ],
      "name": "ERC20InvalidSpender",
      "type": "error"
    },
    {
      "anonymous": false,
      "inputs": [
        {
          "indexed": true,
          "internalType": "address",
          "name": "owner",
          "type": "address"
        },
        {
          "indexed": true,
          "internalType": "address",
          "name": "spender",
          "type": "address"
        },
        {
          "indexed": false,
          "internalType": "uint256",
          "name": "value",
          "type": "uint256"
        }
      ],
      "name": "Approval",
      "type": "event"
    },
    {
      "anonymous": false,
      "inputs": [
        {
          "indexed": true,
          "internalType": "address",
          "name": "provider",
          "type": "address"
        },
        {
          "indexed": false,
          "internalType": "uint256",
          "name": "amountCEPcoin",
          "type": "uint256"
        },
        {
          "indexed": false,
          "internalType": "uint256",
          "name": "amountStablecoin",
          "type": "uint256"
        },
        {
          "indexed": false,
          "internalType": "uint256",
          "name": "liquidity",
          "type": "uint256"
        }
      ],
      "name": "LiquidityAdded",
      "type": "event"
    },
    {
      "anonymous": false,
      "inputs": [
        {
          "indexed": true,
          "internalType": "address",
          "name": "provider",
          "type": "address"
        },
        {
          "indexed": false,
          "internalType": "uint256",
          "name": "amountCEPcoin",
          "type": "uint256"
        },
        {
          "indexed": false,
          "internalType": "uint256",
          "name": "amountStablecoin",
          "type": "uint256"
        },
        {
          "indexed": false,
          "internalType": "uint256",
          "name": "liquidity",
          "type": "uint256"
        }
      ],
      "name": "LiquidityRemoved",
      "type": "event"
    },
    {
      "anonymous": false,
      "inputs": [
        {
          "indexed": true,
          "internalType": "address",
          "name": "from",
          "type": "address"
        },
        {
          "indexed": true,
          "internalType": "address",
          "name": "to",
          "type": "address"
        },
        {
          "indexed": false,
          "internalType": "uint256",
          "name": "value",
          "type": "uint256"
        }
      ],
      "name": "Transfer",
      "type": "event"
    },
    {
      "inputs": [],
      "name": "CEPcoin",
      "outputs": [
        {
          "internalType": "contract IERC20",
          "name": "",
          "type": "address"
        }
      ],
      "stateMutability": "view",
      "type": "function"
    },
    {
      "inputs": [
        {
          "internalType": "uint256",
          "name": "amountCEPcoin",
          "type": "uint256"
        },
        {
          "internalType": "uint256",
          "name": "amountStablecoin",
          "type": "uint256"
        }
      ],
      "name": "addLiquidity",
      "outputs": [],
      "stateMutability": "nonpayable",
      "type": "function"
    },
    {
      "inputs": [
        {
          "internalType": "address",
          "name": "owner",
          "type": "address"
        },
        {
          "internalType": "address",
          "name": "spender",
          "type": "address"
        }
      ],
      "name": "allowance",
      "outputs": [
        {
          "internalType": "uint256",
          "name": "",
          "type": "uint256"
        }
      ],
      "stateMutability": "view",
      "type": "function"
    },
    {
      "inputs": [
        {
          "internalType": "address",
          "name": "spender",
          "type": "address"
        },
        {
          "internalType": "uint256",
          "name": "value",
          "type": "uint256"
        }
      ],
      "name": "approve",
      "outputs": [
        {
          "internalType": "bool",
          "name": "",
          "type": "bool"
        }
      ],
      "stateMutability": "nonpayable",
      "type": "function"
    },
    {
      "inputs": [
        {
          "internalType": "address",
          "name": "buyContract",
          "type": "address"
        }
      ],
      "name": "approveBuyContract",
      "outputs": [],
      "stateMutability": "nonpayable",
      "type": "function"
    },
    {
      "inputs": [
        {
          "internalType": "address",
          "name": "account",
          "type": "address"
        }
      ],
      "name": "balanceOf",
      "outputs": [
        {
          "internalType": "uint256",
          "name": "",
          "type": "uint256"
        }
      ],
      "stateMutability": "view",
      "type": "function"
    },
    {
      "inputs": [],
      "name": "decimals",
      "outputs": [
        {
          "internalType": "uint8",
          "name": "",
          "type": "uint8"
        }
      ],
      "stateMutability": "view",
      "type": "function"
    },
    {
      "inputs": [],
      "name": "getReserves",
      "outputs": [
        {
          "internalType": "uint256",
          "name": "",
          "type": "uint256"
        },
        {
          "internalType": "uint256",
          "name": "",
          "type": "uint256"
        }
      ],
      "stateMutability": "view",
      "type": "function"
    },
    {
      "inputs": [],
      "name": "name",
      "outputs": [
        {
          "internalType": "string",
          "name": "",
          "type": "string"
        }
      ],
      "stateMutability": "view",
      "type": "function"
    },
    {
      "inputs": [],
      "name": "owner",
      "outputs": [
        {
          "internalType": "address",
          "name": "",
          "type": "address"
        }
      ],
      "stateMutability": "view",
      "type": "function"
    },
    {
      "inputs": [
        {
          "internalType": "uint256",
          "name": "liquidity",
          "type": "uint256"
        }
      ],
      "name": "removeLiquidity",
      "outputs": [],
      "stateMutability": "nonpayable",
      "type": "function"
    },
    {
      "inputs": [],
      "name": "reserveCEP",
      "outputs": [
        {
          "internalType": "uint256",
          "name": "",
          "type": "uint256"
        }
      ],
      "stateMutability": "view",
      "type": "function"
    },
    {
      "inputs": [],
      "name": "reserveStablecoin",
      "outputs": [
        {
          "internalType": "uint256",
          "name": "",
          "type": "uint256"
        }
      ],
      "stateMutability": "view",
      "type": "function"
    },
    {
      "inputs": [],
      "name": "stablecoin",
      "outputs": [
        {
          "internalType": "contract IERC20",
          "name": "",
          "type": "address"
        }
      ],
      "stateMutability": "view",
      "type": "function"
    },
    {
      "inputs": [],
      "name": "symbol",
      "outputs": [
        {
          "internalType": "string",
          "name": "",
          "type": "string"
        }
      ],
      "stateMutability": "view",
      "type": "function"
    },
    {
      "inputs": [],
      "name": "totalSupply",
      "outputs": [
        {
          "internalType": "uint256",
          "name": "",
          "type": "uint256"
        }
      ],
      "stateMutability": "view",
      "type": "function"
    },
    {
      "inputs": [
        {
          "internalType": "address",
          "name": "to",
          "type": "address"
        },
        {
          "internalType": "uint256",
          "name": "value",
          "type": "uint256"
        }
      ],
      "name": "transfer",
      "outputs": [
        {
          "internalType": "bool",
          "name": "",
          "type": "bool"
        }
      ],
      "stateMutability": "nonpayable",
      "type": "function"
    },
    {
      "inputs": [
        {
          "internalType": "address",
          "name": "from",
          "type": "address"
        },
        {
          "internalType": "address",
          "name": "to",
          "type": "address"
        },
        {
          "internalType": "uint256",
          "name": "value",
          "type": "uint256"
        }
      ],
      "name": "transferFrom",
      "outputs": [
        {
          "internalType": "bool",
          "name": "",
          "type": "bool"
        }
      ],
      "stateMutability": "nonpayable",
      "type": "function"
    },
    {
      "inputs": [],
      "name": "updateReserves",
      "outputs": [],
      "stateMutability": "nonpayable",
      "type": "function"
    }
  ],
  "bytecode": "0x608060405234801561001057600080fd5b506040516124df3803806124df833981810160405281019061003291906101ed565b6040518060400160405280601181526020017f437265657065722d4c4e5820546f6b656e0000000000000000000000000000008152506040518060400160405280600781526020017f4345502d4c4e580000000000000000000000000000000000000000000000000081525081600390816100ad919061047d565b5080600490816100bd919061047d565b50505081600560006101000a81548173ffffffffffffffffffffffffffffffffffffffff021916908373ffffffffffffffffffffffffffffffffffffffff16021790555080600660006101000a81548173ffffffffffffffffffffffffffffffffffffffff021916908373ffffffffffffffffffffffffffffffffffffffff16021790555033600760006101000a81548173ffffffffffffffffffffffffffffffffffffffff021916908373ffffffffffffffffffffffffffffffffffffffff160217905550505061054f565b600080fd5b600073ffffffffffffffffffffffffffffffffffffffff82169050919050565b60006101ba8261018f565b9050919050565b6101ca816101af565b81146101d557600080fd5b50565b6000815190506101e7816101c1565b92915050565b600080604083850312156102045761020361018a565b5b6000610212858286016101d8565b9250506020610223858286016101d8565b9150509250929050565b600081519050919050565b7f4e487b7100000000000000000000000000000000000000000000000000000000600052604160045260246000fd5b7f4e487b7100000000000000000000000000000000000000000000000000000000600052602260045260246000fd5b600060028204905060018216806102ae57607f821691505b6020821081036102c1576102c0610267565b5b50919050565b60008190508160005260206000209050919050565b60006020601f8301049050919050565b600082821b905092915050565b6000600883026103297fffffffffffffffffffffffffffffffffffffffffffffffffffffffffffffffff826102ec565b61033386836102ec565b95508019841693508086168417925050509392505050565b6000819050919050565b6000819050919050565b600061037a6103756103708461034b565b610355565b61034b565b9050919050565b6000819050919050565b6103948361035f565b6103a86103a082610381565b8484546102f9565b825550505050565b600090565b6103bd6103b0565b6103c881848461038b565b505050565b5b818110156103ec576103e16000826103b5565b6001810190506103ce565b5050565b601f82111561043157610402816102c7565b61040b846102dc565b8101602085101561041a578190505b61042e610426856102dc565b8301826103cd565b50505b505050565b600082821c905092915050565b600061045460001984600802610436565b1980831691505092915050565b600061046d8383610443565b9150826002028217905092915050565b6104868261022d565b67ffffffffffffffff81111561049f5761049e610238565b5b6104a98254610296565b6104b48282856103f0565b600060209050601f8311600181146104e757600084156104d5578287015190505b6104df8582610461565b865550610547565b601f1984166104f5866102c7565b60005b8281101561051d578489015182556001820191506020850194506020810190506104f8565b8683101561053a5784890151610536601f891682610443565b8355505b6001600288020188555050505b505050505050565b611f818061055e6000396000f3fe608060405234801561001057600080fd5b50600436106101215760003560e01c80638da5cb5b116100ad578063a1dd207b11610071578063a1dd207b146102fd578063a9059cbb14610319578063dd62ed3e14610349578063e9cbd82214610379578063ebe1eb741461039757610121565b80638da5cb5b1461026b57806395d89b411461028957806397560dac146102a75780639c8f9f23146102c55780639cd441da146102e157610121565b806318160ddd116100f457806318160ddd146101b157806323b872dd146101cf578063313ce567146101ff5780634b6792451461021d57806370a082311461023b57610121565b806306fdde03146101265780630902f1ac14610144578063095ea7b31461016357806317d8eb7a14610193575b600080fd5b61012e6103a1565b60405161013b9190611741565b60405180910390f35b61014c610433565b60405161015a92919061177c565b60405180910390f35b61017d60048036038101906101789190611834565b610444565b60405161018a919061188f565b60405180910390f35b61019b610467565b6040516101a891906118aa565b60405180910390f35b6101b961046d565b6040516101c691906118aa565b60405180910390f35b6101e960048036038101906101e491906118c5565b610477565b6040516101f6919061188f565b60405180910390f35b6102076104a6565b6040516102149190611934565b60405180910390f35b6102256104af565b60405161023291906119ae565b60405180910390f35b610255600480360381019061025091906119c9565b6104d5565b60405161026291906118aa565b60405180910390f35b61027361051d565b6040516102809190611a05565b60405180910390f35b610291610543565b60405161029e9190611741565b60405180910390f35b6102af6105d5565b6040516102bc91906118aa565b60405180910390f35b6102df60048036038101906102da9190611a20565b6105db565b005b6102fb60048036038101906102f69190611a4d565b61094d565b005b610317600480360381019061031291906119c9565b610c2e565b005b610333600480360381019061032e9190611834565b610d82565b604051610340919061188f565b60405180910390f35b610363600480360381019061035e9190611a8d565b610da5565b60405161037091906118aa565b60405180910390f35b610381610e2c565b60405161038e91906119ae565b60405180910390f35b61039f610e52565b005b6060600380546103b090611afc565b80601f01602080910402602001604051908101604052809291908181526020018280546103dc90611afc565b80156104295780601f106103fe57610100808354040283529160200191610429565b820191906000526020600020905b81548152906001019060200180831161040c57829003601f168201915b5050505050905090565b600080600854600954915091509091565b60008061044f610f98565b905061045c818585610fa0565b600191505092915050565b60085481565b6000600254905090565b600080610482610f98565b905061048f858285610fb2565b61049a858585611047565b60019150509392505050565b60006012905090565b600560009054906101000a900473ffffffffffffffffffffffffffffffffffffffff1681565b60008060008373ffffffffffffffffffffffffffffffffffffffff1673ffffffffffffffffffffffffffffffffffffffff168152602001908152602001600020549050919050565b600760009054906101000a900473ffffffffffffffffffffffffffffffffffffffff1681565b60606004805461055290611afc565b80601f016020809104026020016040519081016040528092919081815260200182805461057e90611afc565b80156105cb5780601f106105a0576101008083540402835291602001916105cb565b820191906000526020600020905b8154815290600101906020018083116105ae57829003601f168201915b5050505050905090565b60095481565b6000811161061e576040517f08c379a000000000000000000000000000000000000000000000000000000000815260040161061590611b79565b60405180910390fd5b600061062861046d565b600854836106369190611bc8565b6106409190611c39565b9050600061064c61046d565b6009548461065a9190611bc8565b6106649190611c39565b9050610670338461113b565b600560009054906101000a900473ffffffffffffffffffffffffffffffffffffffff1673ffffffffffffffffffffffffffffffffffffffff1663a9059cbb33846040518363ffffffff1660e01b81526004016106cd929190611c6a565b6020604051808303816000875af11580156106ec573d6000803e3d6000fd5b505050506040513d601f19601f820116820180604052508101906107109190611cbf565b50600660009054906101000a900473ffffffffffffffffffffffffffffffffffffffff1673ffffffffffffffffffffffffffffffffffffffff1663a9059cbb33836040518363ffffffff1660e01b815260040161076e929190611c6a565b6020604051808303816000875af115801561078d573d6000803e3d6000fd5b505050506040513d601f19601f820116820180604052508101906107b19190611cbf565b50600560009054906101000a900473ffffffffffffffffffffffffffffffffffffffff1673ffffffffffffffffffffffffffffffffffffffff166370a08231306040518263ffffffff1660e01b815260040161080d9190611a05565b602060405180830381865afa15801561082a573d6000803e3d6000fd5b505050506040513d601f19601f8201168201806040525081019061084e9190611d01565b600881905550600660009054906101000a900473ffffffffffffffffffffffffffffffffffffffff1673ffffffffffffffffffffffffffffffffffffffff166370a08231306040518263ffffffff1660e01b81526004016108af9190611a05565b602060405180830381865afa1580156108cc573d6000803e3d6000fd5b505050506040513d601f19601f820116820180604052508101906108f09190611d01565b6009819055503373ffffffffffffffffffffffffffffffffffffffff167f1dc8bb69df2b8e91fbdcbfcf93d951b3f0000f085a95fe3f7946d6161439245d83838660405161094093929190611d2e565b60405180910390a2505050565b60008211801561095d5750600081115b61099c576040517f08c379a000000000000000000000000000000000000000000000000000000000815260040161099390611db1565b60405180910390fd5b600560009054906101000a900473ffffffffffffffffffffffffffffffffffffffff1673ffffffffffffffffffffffffffffffffffffffff166323b872dd3330856040518463ffffffff1660e01b81526004016109fb93929190611dd1565b6020604051808303816000875af1158015610a1a573d6000803e3d6000fd5b505050506040513d601f19601f82011682018060405250810190610a3e9190611cbf565b50600660009054906101000a900473ffffffffffffffffffffffffffffffffffffffff1673ffffffffffffffffffffffffffffffffffffffff166323b872dd3330846040518463ffffffff1660e01b8152600401610a9e93929190611dd1565b6020604051808303816000875af1158015610abd573d6000803e3d6000fd5b505050506040513d601f19601f82011682018060405250810190610ae19190611cbf565b50600080610aed61046d565b03610b0d57610b068284610b019190611bc8565b6111bd565b9050610b58565b610b55600854610b1b61046d565b85610b269190611bc8565b610b309190611c39565b600954610b3b61046d565b85610b469190611bc8565b610b509190611c39565b61121a565b90505b60008111610b9b576040517f08c379a0000000000000000000000000000000000000000000000000000000008152600401610b9290611e54565b60405180910390fd5b610ba53382611233565b8260086000828254610bb79190611e74565b925050819055508160096000828254610bd09190611e74565b925050819055503373ffffffffffffffffffffffffffffffffffffffff167f64b83944e79c3ce8d4c297411de637c3e102d064677aac0c163976ebdcd6f50e848484604051610c2193929190611d2e565b60405180910390a2505050565b600760009054906101000a900473ffffffffffffffffffffffffffffffffffffffff1673ffffffffffffffffffffffffffffffffffffffff163373ffffffffffffffffffffffffffffffffffffffff1614610cbe576040517f08c379a0000000000000000000000000000000000000000000000000000000008152600401610cb590611ef4565b60405180910390fd5b600560009054906101000a900473ffffffffffffffffffffffffffffffffffffffff1673ffffffffffffffffffffffffffffffffffffffff1663095ea7b3827fffffffffffffffffffffffffffffffffffffffffffffffffffffffffffffffff6040518363ffffffff1660e01b8152600401610d3b929190611c6a565b6020604051808303816000875af1158015610d5a573d6000803e3d6000fd5b505050506040513d601f19601f82011682018060405250810190610d7e9190611cbf565b5050565b600080610d8d610f98565b9050610d9a818585611047565b600191505092915050565b6000600160008473ffffffffffffffffffffffffffffffffffffffff1673ffffffffffffffffffffffffffffffffffffffff16815260200190815260200160002060008373ffffffffffffffffffffffffffffffffffffffff1673ffffffffffffffffffffffffffffffffffffffff16815260200190815260200160002054905092915050565b600660009054906101000a900473ffffffffffffffffffffffffffffffffffffffff1681565b600560009054906101000a900473ffffffffffffffffffffffffffffffffffffffff1673ffffffffffffffffffffffffffffffffffffffff166370a08231306040518263ffffffff1660e01b8152600401610ead9190611a05565b602060405180830381865afa158015610eca573d6000803e3d6000fd5b505050506040513d601f19601f82011682018060405250810190610eee9190611d01565b600881905550600660009054906101000a900473ffffffffffffffffffffffffffffffffffffffff1673ffffffffffffffffffffffffffffffffffffffff166370a08231306040518263ffffffff1660e01b8152600401610f4f9190611a05565b602060405180830381865afa158015610f6c573d6000803e3d6000fd5b505050506040513d601f19601f82011682018060405250810190610f909190611d01565b600981905550565b600033905090565b610fad83838360016112b5565b505050565b6000610fbe8484610da5565b90507fffffffffffffffffffffffffffffffffffffffffffffffffffffffffffffffff8110156110415781811015611031578281836040517ffb8f41b200000000000000000000000000000000000000000000000000000000815260040161102893929190611f14565b60405180910390fd5b611040848484840360006112b5565b5b50505050565b600073ffffffffffffffffffffffffffffffffffffffff168373ffffffffffffffffffffffffffffffffffffffff16036110b95760006040517f96c6fd1e0000000000000000000000000000000000000000000000000000000081526004016110b09190611a05565b60405180910390fd5b600073ffffffffffffffffffffffffffffffffffffffff168273ffffffffffffffffffffffffffffffffffffffff160361112b5760006040517fec442f050000000000000000000000000000000000000000000000000000000081526004016111229190611a05565b60405180910390fd5b61113683838361148c565b505050565b600073ffffffffffffffffffffffffffffffffffffffff168273ffffffffffffffffffffffffffffffffffffffff16036111ad5760006040517f96c6fd1e0000000000000000000000000000000000000000000000000000000081526004016111a49190611a05565b60405180910390fd5b6111b98260008361148c565b5050565b60008060026001846111cf9190611e74565b6111d99190611c39565b90508291505b818110156112145780915060028182856111f99190611c39565b6112039190611e74565b61120d9190611c39565b90506111df565b50919050565b6000818310611229578161122b565b825b905092915050565b600073ffffffffffffffffffffffffffffffffffffffff168273ffffffffffffffffffffffffffffffffffffffff16036112a55760006040517fec442f0500000000000000000000000000000000000000000000000000000000815260040161129c9190611a05565b60405180910390fd5b6112b16000838361148c565b5050565b600073ffffffffffffffffffffffffffffffffffffffff168473ffffffffffffffffffffffffffffffffffffffff16036113275760006040517fe602df0500000000000000000000000000000000000000000000000000000000815260040161131e9190611a05565b60405180910390fd5b600073ffffffffffffffffffffffffffffffffffffffff168373ffffffffffffffffffffffffffffffffffffffff16036113995760006040517f94280d620000000000000000000000000000000000000000000000000000000081526004016113909190611a05565b60405180910390fd5b81600160008673ffffffffffffffffffffffffffffffffffffffff1673ffffffffffffffffffffffffffffffffffffffff16815260200190815260200160002060008573ffffffffffffffffffffffffffffffffffffffff1673ffffffffffffffffffffffffffffffffffffffff168152602001908152602001600020819055508015611486578273ffffffffffffffffffffffffffffffffffffffff168473ffffffffffffffffffffffffffffffffffffffff167f8c5be1e5ebec7d5bd14f71427d1e84f3dd0314c0f7b2291e5b200ac8c7c3b9258460405161147d91906118aa565b60405180910390a35b50505050565b600073ffffffffffffffffffffffffffffffffffffffff168373ffffffffffffffffffffffffffffffffffffffff16036114de5780600260008282546114d29190611e74565b925050819055506115b1565b60008060008573ffffffffffffffffffffffffffffffffffffffff1673ffffffffffffffffffffffffffffffffffffffff1681526020019081526020016000205490508181101561156a578381836040517fe450d38c00000000000000000000000000000000000000000000000000000000815260040161156193929190611f14565b60405180910390fd5b8181036000808673ffffffffffffffffffffffffffffffffffffffff1673ffffffffffffffffffffffffffffffffffffffff16815260200190815260200160002081905550505b600073ffffffffffffffffffffffffffffffffffffffff168273ffffffffffffffffffffffffffffffffffffffff16036115fa5780600260008282540392505081905550611647565b806000808473ffffffffffffffffffffffffffffffffffffffff1673ffffffffffffffffffffffffffffffffffffffff168152602001908152602001600020600082825401925050819055505b8173ffffffffffffffffffffffffffffffffffffffff168373ffffffffffffffffffffffffffffffffffffffff167fddf252ad1be2c89b69c2b068fc378daa952ba7f163c4a11628f55a4df523b3ef836040516116a491906118aa565b60405180910390a3505050565b600081519050919050565b600082825260208201905092915050565b60005b838110156116eb5780820151818401526020810190506116d0565b60008484015250505050565b6000601f19601f8301169050919050565b6000611713826116b1565b61171d81856116bc565b935061172d8185602086016116cd565b611736816116f7565b840191505092915050565b6000602082019050818103600083015261175b8184611708565b905092915050565b6000819050919050565b61177681611763565b82525050565b6000604082019050611791600083018561176d565b61179e602083018461176d565b9392505050565b600080fd5b600073ffffffffffffffffffffffffffffffffffffffff82169050919050565b60006117d5826117aa565b9050919050565b6117e5816117ca565b81146117f057600080fd5b50565b600081359050611802816117dc565b92915050565b61181181611763565b811461181c57600080fd5b50565b60008135905061182e81611808565b92915050565b6000806040838503121561184b5761184a6117a5565b5b6000611859858286016117f3565b925050602061186a8582860161181f565b9150509250929050565b60008115159050919050565b61188981611874565b82525050565b60006020820190506118a46000830184611880565b92915050565b60006020820190506118bf600083018461176d565b92915050565b6000806000606084860312156118de576118dd6117a5565b5b60006118ec868287016117f3565b93505060206118fd868287016117f3565b925050604061190e8682870161181f565b9150509250925092565b600060ff82169050919050565b61192e81611918565b82525050565b60006020820190506119496000830184611925565b92915050565b6000819050919050565b600061197461196f61196a846117aa565b61194f565b6117aa565b9050919050565b600061198682611959565b9050919050565b60006119988261197b565b9050919050565b6119a88161198d565b82525050565b60006020820190506119c3600083018461199f565b92915050565b6000602082840312156119df576119de6117a5565b5b60006119ed848285016117f3565b91505092915050565b6119ff816117ca565b82525050565b6000602082019050611a1a60008301846119f6565b92915050565b600060208284031215611a3657611a356117a5565b5b6000611a448482850161181f565b91505092915050565b60008060408385031215611a6457611a636117a5565b5b6000611a728582860161181f565b9250506020611a838582860161181f565b9150509250929050565b60008060408385031215611aa457611aa36117a5565b5b6000611ab2858286016117f3565b9250506020611ac3858286016117f3565b9150509250929050565b7f4e487b7100000000000000000000000000000000000000000000000000000000600052602260045260246000fd5b60006002820490506001821680611b1457607f821691505b602082108103611b2757611b26611acd565b5b50919050565b7f4c6971756964697479206d7573742062652067726561746572207468616e2030600082015250565b6000611b636020836116bc565b9150611b6e82611b2d565b602082019050919050565b60006020820190508181036000830152611b9281611b56565b9050919050565b7f4e487b7100000000000000000000000000000000000000000000000000000000600052601160045260246000fd5b6000611bd382611763565b9150611bde83611763565b9250828202611bec81611763565b91508282048414831517611c0357611c02611b99565b5b5092915050565b7f4e487b7100000000000000000000000000000000000000000000000000000000600052601260045260246000fd5b6000611c4482611763565b9150611c4f83611763565b925082611c5f57611c5e611c0a565b5b828204905092915050565b6000604082019050611c7f60008301856119f6565b611c8c602083018461176d565b9392505050565b611c9c81611874565b8114611ca757600080fd5b50565b600081519050611cb981611c93565b92915050565b600060208284031215611cd557611cd46117a5565b5b6000611ce384828501611caa565b91505092915050565b600081519050611cfb81611808565b92915050565b600060208284031215611d1757611d166117a5565b5b6000611d2584828501611cec565b91505092915050565b6000606082019050611d43600083018661176d565b611d50602083018561176d565b611d5d604083018461176d565b949350505050565b7f416d6f756e7473206d7573742062652067726561746572207468616e20300000600082015250565b6000611d9b601e836116bc565b9150611da682611d65565b602082019050919050565b60006020820190508181036000830152611dca81611d8e565b9050919050565b6000606082019050611de660008301866119f6565b611df360208301856119f6565b611e00604083018461176d565b949350505050565b7f496e73756666696369656e74206c6971756964697479206d696e746564000000600082015250565b6000611e3e601d836116bc565b9150611e4982611e08565b602082019050919050565b60006020820190508181036000830152611e6d81611e31565b9050919050565b6000611e7f82611763565b9150611e8a83611763565b9250828201905080821115611ea257611ea1611b99565b5b92915050565b7f4f6e6c79206f776e65722063616e20617070726f766500000000000000000000600082015250565b6000611ede6016836116bc565b9150611ee982611ea8565b602082019050919050565b60006020820190508181036000830152611f0d81611ed1565b9050919050565b6000606082019050611f2960008301866119f6565b611f36602083018561176d565b611f43604083018461176d565b94935050505056fea264697066735822122036e0bbaf47ac954d83e85e12444a8d8947bee02fd6765fde0bb4aa22d566e55564736f6c634300081c0033",
  "linkReferences": {},
  "deployedLinkReferences": {}
}