{
  "_format": "hh-sol-artifact-1",
  "contractName": "TokenFaucet",
  "sourceName": "contracts/TokenFaucet.sol",
  "abi": [
    {
      "inputs": [
        {
          "internalType": "address",
          "name": "_lnx",
          "type": "address"
        },
        {
          "internalType": "address",
          "name": "_cep",
          "type": "address"
        },
        {
          "internalType": "address",
          "name": "_wbtc",
          "type": "address"
        },
        {
          "internalType": "address",
          "name": "_link",
          "type": "address"
        },
        {
          "internalType": "address",
          "name": "_usdt",
          "type": "address"
        },
        {
          "internalType": "address",
          "name": "_eth",
          "type": "address"
        }
      ],
      "stateMutability": "nonpayable",
      "type": "constructor"
    },
    {
      "anonymous": false,
      "inputs": [
        {
          "indexed": true,
          "internalType": "address",
          "name": "user",
          "type": "address"
        },
        {
          "indexed": false,
          "internalType": "address",
          "name": "token",
          "type": "address"
        },
        {
          "indexed": false,
          "internalType": "uint256",
          "name": "amount",
          "type": "uint256"
        }
      ],
      "name": "FaucetClaimed",
      "type": "event"
    },
    {
      "anonymous": false,
      "inputs": [
        {
          "indexed": true,
          "internalType": "address",
          "name": "owner",
          "type": "address"
        },
        {
          "indexed": false,
          "internalType": "address",
          "name": "token",
          "type": "address"
        },
        {
          "indexed": false,
          "internalType": "uint256",
          "name": "amount",
          "type": "uint256"
        }
      ],
      "name": "OwnerWithdrawal",
      "type": "event"
    },
    {
      "inputs": [],
      "name": "CEP",
      "outputs": [
        {
          "internalType": "contract IERC20",
          "name": "",
          "type": "address"
        }
      ],
      "stateMutability": "view",
      "type": "function"
    },
    {
      "inputs": [],
      "name": "ETH",
      "outputs": [
        {
          "internalType": "contract IERC20",
          "name": "",
          "type": "address"
        }
      ],
      "stateMutability": "view",
      "type": "function"
    },
    {
      "inputs": [],
      "name": "LINK",
      "outputs": [
        {
          "internalType": "contract IERC20",
          "name": "",
          "type": "address"
        }
      ],
      "stateMutability": "view",
      "type": "function"
    },
    {
      "inputs": [],
      "name": "LNX",
      "outputs": [
        {
          "internalType": "contract IERC20",
          "name": "",
          "type": "address"
        }
      ],
      "stateMutability": "view",
      "type": "function"
    },
    {
      "inputs": [],
      "name": "USDT",
      "outputs": [
        {
          "internalType": "contract IERC20",
          "name": "",
          "type": "address"
        }
      ],
      "stateMutability": "view",
      "type": "function"
    },
    {
      "inputs": [],
      "name": "WBTC",
      "outputs": [
        {
          "internalType": "contract IERC20",
          "name": "",
          "type": "address"
        }
      ],
      "stateMutability": "view",
      "type": "function"
    },
    {
      "inputs": [],
      "name": "amount",
      "outputs": [
        {
          "internalType": "uint256",
          "name": "",
          "type": "uint256"
        }
      ],
      "stateMutability": "view",
      "type": "function"
    },
    {
      "inputs": [
        {
          "internalType": "address",
          "name": "token",
          "type": "address"
        }
      ],
      "name": "claim",
      "outputs": [],
      "stateMutability": "nonpayable",
      "type": "function"
    },
    {
      "inputs": [],
      "name": "claimInterval",
      "outputs": [
        {
          "internalType": "uint256",
          "name": "",
          "type": "uint256"
        }
      ],
      "stateMutability": "view",
      "type": "function"
    },
    {
      "inputs": [
        {
          "internalType": "address",
          "name": "",
          "type": "address"
        }
      ],
      "name": "lastClaim",
      "outputs": [
        {
          "internalType": "uint256",
          "name": "",
          "type": "uint256"
        }
      ],
      "stateMutability": "view",
      "type": "function"
    },
    {
      "inputs": [],
      "name": "owner",
      "outputs": [
        {
          "internalType": "address",
          "name": "",
          "type": "address"
        }
      ],
      "stateMutability": "view",
      "type": "function"
    },
    {
      "inputs": [
        {
          "internalType": "uint256",
          "name": "_amount",
          "type": "uint256"
        }
      ],
      "name": "setAmount",
      "outputs": [],
      "stateMutability": "nonpayable",
      "type": "function"
    },
    {
      "inputs": [
        {
          "internalType": "uint256",
          "name": "_interval",
          "type": "uint256"
        }
      ],
      "name": "setClaimInterval",
      "outputs": [],
      "stateMutability": "nonpayable",
      "type": "function"
    },
    {
      "inputs": [
        {
          "internalType": "address",
          "name": "newOwner",
          "type": "address"
        }
      ],
      "name": "transferOwnership",
      "outputs": [],
      "stateMutability": "nonpayable",
      "type": "function"
    },
    {
      "inputs": [
        {
          "internalType": "address",
          "name": "token",
          "type": "address"
        },
        {
          "internalType": "uint256",
          "name": "_amount",
          "type": "uint256"
        }
      ],
      "name": "withdrawTokens",
      "outputs": [],
      "stateMutability": "nonpayable",
      "type": "function"
    }
  ],
  "bytecode": "0x6080604052600060025568056bc75e2d6310000060035534801561002257600080fd5b5060405161168538038061168583398181016040528101906100449190610278565b336000806101000a81548173ffffffffffffffffffffffffffffffffffffffff021916908373ffffffffffffffffffffffffffffffffffffffff16021790555085600460006101000a81548173ffffffffffffffffffffffffffffffffffffffff021916908373ffffffffffffffffffffffffffffffffffffffff16021790555084600560006101000a81548173ffffffffffffffffffffffffffffffffffffffff021916908373ffffffffffffffffffffffffffffffffffffffff16021790555083600660006101000a81548173ffffffffffffffffffffffffffffffffffffffff021916908373ffffffffffffffffffffffffffffffffffffffff16021790555082600760006101000a81548173ffffffffffffffffffffffffffffffffffffffff021916908373ffffffffffffffffffffffffffffffffffffffff16021790555081600860006101000a81548173ffffffffffffffffffffffffffffffffffffffff021916908373ffffffffffffffffffffffffffffffffffffffff16021790555080600960006101000a81548173ffffffffffffffffffffffffffffffffffffffff021916908373ffffffffffffffffffffffffffffffffffffffff160217905550505050505050610305565b600080fd5b600073ffffffffffffffffffffffffffffffffffffffff82169050919050565b60006102458261021a565b9050919050565b6102558161023a565b811461026057600080fd5b50565b6000815190506102728161024c565b92915050565b60008060008060008060c0878903121561029557610294610215565b5b60006102a389828a01610263565b96505060206102b489828a01610263565b95505060406102c589828a01610263565b94505060606102d689828a01610263565b93505060806102e789828a01610263565b92505060a06102f889828a01610263565b9150509295509295509295565b611371806103146000396000f3fe608060405234801561001057600080fd5b50600436106100f55760003560e01c80638322fff211610097578063c54e44eb11610066578063c54e44eb14610250578063e90152131461026e578063f2d57adf1461028c578063f2fde38b146102a8576100f5565b80638322fff2146101d85780638da5cb5b146101f6578063a627a26314610214578063aa8c217c14610232576100f5565b80631e83409a116100d35780631e83409a14610152578063271f88b41461016e5780634dede3de1461018a5780635c16e15e146101a8576100f5565b806306b091f9146100fa5780630b433a12146101165780631b6b6d2314610134575b600080fd5b610114600480360381019061010f9190610dfe565b6102c4565b005b61011e610565565b60405161012b9190610e4d565b60405180910390f35b61013c61056b565b6040516101499190610ec7565b60405180910390f35b61016c60048036038101906101679190610ee2565b610591565b005b61018860048036038101906101839190610f0f565b6109f5565b005b610192610a8d565b60405161019f9190610ec7565b60405180910390f35b6101c260048036038101906101bd9190610ee2565b610ab3565b6040516101cf9190610e4d565b60405180910390f35b6101e0610acb565b6040516101ed9190610ec7565b60405180910390f35b6101fe610af1565b60405161020b9190610f4b565b60405180910390f35b61021c610b15565b6040516102299190610ec7565b60405180910390f35b61023a610b3b565b6040516102479190610e4d565b60405180910390f35b610258610b41565b6040516102659190610ec7565b60405180910390f35b610276610b67565b6040516102839190610ec7565b60405180910390f35b6102a660048036038101906102a19190610f0f565b610b8d565b005b6102c260048036038101906102bd9190610ee2565b610c25565b005b60008054906101000a900473ffffffffffffffffffffffffffffffffffffffff1673ffffffffffffffffffffffffffffffffffffffff163373ffffffffffffffffffffffffffffffffffffffff1614610352576040517f08c379a000000000000000000000000000000000000000000000000000000000815260040161034990610fc3565b60405180910390fd5b60008273ffffffffffffffffffffffffffffffffffffffff166370a08231306040518263ffffffff1660e01b815260040161038d9190610f4b565b602060405180830381865afa1580156103aa573d6000803e3d6000fd5b505050506040513d601f19601f820116820180604052508101906103ce9190610ff8565b905080821115610413576040517f08c379a000000000000000000000000000000000000000000000000000000000815260040161040a90611071565b60405180910390fd5b8273ffffffffffffffffffffffffffffffffffffffff1663a9059cbb60008054906101000a900473ffffffffffffffffffffffffffffffffffffffff16846040518363ffffffff1660e01b815260040161046e929190611091565b6020604051808303816000875af115801561048d573d6000803e3d6000fd5b505050506040513d601f19601f820116820180604052508101906104b191906110f2565b6104f0576040517f08c379a00000000000000000000000000000000000000000000000000000000081526004016104e79061116b565b60405180910390fd5b60008054906101000a900473ffffffffffffffffffffffffffffffffffffffff1673ffffffffffffffffffffffffffffffffffffffff167f81bb8ab873c357dc0a1bc0671f71a0184e75a780388618f11b67a9504bf766f88484604051610558929190611091565b60405180910390a2505050565b60025481565b600760009054906101000a900473ffffffffffffffffffffffffffffffffffffffff1681565b600460009054906101000a900473ffffffffffffffffffffffffffffffffffffffff1673ffffffffffffffffffffffffffffffffffffffff168173ffffffffffffffffffffffffffffffffffffffff16148061063a5750600560009054906101000a900473ffffffffffffffffffffffffffffffffffffffff1673ffffffffffffffffffffffffffffffffffffffff168173ffffffffffffffffffffffffffffffffffffffff16145b806106925750600660009054906101000a900473ffffffffffffffffffffffffffffffffffffffff1673ffffffffffffffffffffffffffffffffffffffff168173ffffffffffffffffffffffffffffffffffffffff16145b806106ea5750600760009054906101000a900473ffffffffffffffffffffffffffffffffffffffff1673ffffffffffffffffffffffffffffffffffffffff168173ffffffffffffffffffffffffffffffffffffffff16145b806107425750600860009054906101000a900473ffffffffffffffffffffffffffffffffffffffff1673ffffffffffffffffffffffffffffffffffffffff168173ffffffffffffffffffffffffffffffffffffffff16145b8061079a5750600960009054906101000a900473ffffffffffffffffffffffffffffffffffffffff1673ffffffffffffffffffffffffffffffffffffffff168173ffffffffffffffffffffffffffffffffffffffff16145b6107d9576040517f08c379a00000000000000000000000000000000000000000000000000000000081526004016107d0906111d7565b60405180910390fd5b42600160003373ffffffffffffffffffffffffffffffffffffffff1673ffffffffffffffffffffffffffffffffffffffff1681526020019081526020016000208190555060008173ffffffffffffffffffffffffffffffffffffffff166370a08231306040518263ffffffff1660e01b81526004016108589190610f4b565b602060405180830381865afa158015610875573d6000803e3d6000fd5b505050506040513d601f19601f820116820180604052508101906108999190610ff8565b90506003548110156108e0576040517f08c379a00000000000000000000000000000000000000000000000000000000081526004016108d790611243565b60405180910390fd5b8173ffffffffffffffffffffffffffffffffffffffff1663a9059cbb336003546040518363ffffffff1660e01b815260040161091d929190611091565b6020604051808303816000875af115801561093c573d6000803e3d6000fd5b505050506040513d601f19601f8201168201806040525081019061096091906110f2565b61099f576040517f08c379a0000000000000000000000000000000000000000000000000000000008152600401610996906112af565b60405180910390fd5b3373ffffffffffffffffffffffffffffffffffffffff167f2dd15ef43547cfe81462e7864585958b6647ed1f7fa704635b498754071ce939836003546040516109e9929190611091565b60405180910390a25050565b60008054906101000a900473ffffffffffffffffffffffffffffffffffffffff1673ffffffffffffffffffffffffffffffffffffffff163373ffffffffffffffffffffffffffffffffffffffff1614610a83576040517f08c379a0000000000000000000000000000000000000000000000000000000008152600401610a7a90610fc3565b60405180910390fd5b8060038190555050565b600660009054906101000a900473ffffffffffffffffffffffffffffffffffffffff1681565b60016020528060005260406000206000915090505481565b600960009054906101000a900473ffffffffffffffffffffffffffffffffffffffff1681565b60008054906101000a900473ffffffffffffffffffffffffffffffffffffffff1681565b600560009054906101000a900473ffffffffffffffffffffffffffffffffffffffff1681565b60035481565b600860009054906101000a900473ffffffffffffffffffffffffffffffffffffffff1681565b600460009054906101000a900473ffffffffffffffffffffffffffffffffffffffff1681565b60008054906101000a900473ffffffffffffffffffffffffffffffffffffffff1673ffffffffffffffffffffffffffffffffffffffff163373ffffffffffffffffffffffffffffffffffffffff1614610c1b576040517f08c379a0000000000000000000000000000000000000000000000000000000008152600401610c1290610fc3565b60405180910390fd5b8060028190555050565b60008054906101000a900473ffffffffffffffffffffffffffffffffffffffff1673ffffffffffffffffffffffffffffffffffffffff163373ffffffffffffffffffffffffffffffffffffffff1614610cb3576040517f08c379a0000000000000000000000000000000000000000000000000000000008152600401610caa90610fc3565b60405180910390fd5b600073ffffffffffffffffffffffffffffffffffffffff168173ffffffffffffffffffffffffffffffffffffffff1603610d22576040517f08c379a0000000000000000000000000000000000000000000000000000000008152600401610d199061131b565b60405180910390fd5b806000806101000a81548173ffffffffffffffffffffffffffffffffffffffff021916908373ffffffffffffffffffffffffffffffffffffffff16021790555050565b600080fd5b600073ffffffffffffffffffffffffffffffffffffffff82169050919050565b6000610d9582610d6a565b9050919050565b610da581610d8a565b8114610db057600080fd5b50565b600081359050610dc281610d9c565b92915050565b6000819050919050565b610ddb81610dc8565b8114610de657600080fd5b50565b600081359050610df881610dd2565b92915050565b60008060408385031215610e1557610e14610d65565b5b6000610e2385828601610db3565b9250506020610e3485828601610de9565b9150509250929050565b610e4781610dc8565b82525050565b6000602082019050610e626000830184610e3e565b92915050565b6000819050919050565b6000610e8d610e88610e8384610d6a565b610e68565b610d6a565b9050919050565b6000610e9f82610e72565b9050919050565b6000610eb182610e94565b9050919050565b610ec181610ea6565b82525050565b6000602082019050610edc6000830184610eb8565b92915050565b600060208284031215610ef857610ef7610d65565b5b6000610f0684828501610db3565b91505092915050565b600060208284031215610f2557610f24610d65565b5b6000610f3384828501610de9565b91505092915050565b610f4581610d8a565b82525050565b6000602082019050610f606000830184610f3c565b92915050565b600082825260208201905092915050565b7f43616c6c6572206973206e6f7420746865206f776e6572000000000000000000600082015250565b6000610fad601783610f66565b9150610fb882610f77565b602082019050919050565b60006020820190508181036000830152610fdc81610fa0565b9050919050565b600081519050610ff281610dd2565b92915050565b60006020828403121561100e5761100d610d65565b5b600061101c84828501610fe3565b91505092915050565b7f496e73756666696369656e7420636f6e74726163742062616c616e6365000000600082015250565b600061105b601d83610f66565b915061106682611025565b602082019050919050565b6000602082019050818103600083015261108a8161104e565b9050919050565b60006040820190506110a66000830185610f3c565b6110b36020830184610e3e565b9392505050565b60008115159050919050565b6110cf816110ba565b81146110da57600080fd5b50565b6000815190506110ec816110c6565b92915050565b60006020828403121561110857611107610d65565b5b6000611116848285016110dd565b91505092915050565b7f546f6b656e207769746864726177616c206661696c6564000000000000000000600082015250565b6000611155601783610f66565b91506111608261111f565b602082019050919050565b6000602082019050818103600083015261118481611148565b9050919050565b7f496e76616c696420746f6b656e00000000000000000000000000000000000000600082015250565b60006111c1600d83610f66565b91506111cc8261118b565b602082019050919050565b600060208201905081810360008301526111f0816111b4565b9050919050565b7f4e6f7420656e6f75676820746f6b656e7320696e206661756365740000000000600082015250565b600061122d601b83610f66565b9150611238826111f7565b602082019050919050565b6000602082019050818103600083015261125c81611220565b9050919050565b7f546f6b656e207472616e73666572206661696c65640000000000000000000000600082015250565b6000611299601583610f66565b91506112a482611263565b602082019050919050565b600060208201905081810360008301526112c88161128c565b9050919050565b7f4e6577206f776e657220697320746865207a65726f2061646472657373000000600082015250565b6000611305601d83610f66565b9150611310826112cf565b602082019050919050565b60006020820190508181036000830152611334816112f8565b905091905056fea2646970667358221220ef672760b15e8b3fce1b10cdf96e39f47fd9e0906ef2fd484418c2e68ae3ec5a64736f6c634300081c0033",
  "linkReferences": {},
  "deployedLinkReferences": {}
}