{
  "_format": "hh-sol-artifact-1",
  "contractName": "TokenFaucet",
  "sourceName": "contracts/TokenFaucet.sol",
  "abi": [
    {
      "inputs": [
        {
          "internalType": "address",
          "name": "_lnx",
          "type": "address"
        },
        {
          "internalType": "address",
          "name": "_cep",
          "type": "address"
        }
      ],
      "stateMutability": "nonpayable",
      "type": "constructor"
    },
    {
      "anonymous": false,
      "inputs": [
        {
          "indexed": true,
          "internalType": "address",
          "name": "user",
          "type": "address"
        },
        {
          "indexed": false,
          "internalType": "address",
          "name": "token",
          "type": "address"
        },
        {
          "indexed": false,
          "internalType": "uint256",
          "name": "amount",
          "type": "uint256"
        }
      ],
      "name": "FaucetClaimed",
      "type": "event"
    },
    {
      "anonymous": false,
      "inputs": [
        {
          "indexed": true,
          "internalType": "address",
          "name": "owner",
          "type": "address"
        },
        {
          "indexed": false,
          "internalType": "address",
          "name": "token",
          "type": "address"
        },
        {
          "indexed": false,
          "internalType": "uint256",
          "name": "amount",
          "type": "uint256"
        }
      ],
      "name": "OwnerWithdrawal",
      "type": "event"
    },
    {
      "inputs": [],
      "name": "CEP",
      "outputs": [
        {
          "internalType": "contract IERC20",
          "name": "",
          "type": "address"
        }
      ],
      "stateMutability": "view",
      "type": "function"
    },
    {
      "inputs": [],
      "name": "LNX",
      "outputs": [
        {
          "internalType": "contract IERC20",
          "name": "",
          "type": "address"
        }
      ],
      "stateMutability": "view",
      "type": "function"
    },
    {
      "inputs": [],
      "name": "amount",
      "outputs": [
        {
          "internalType": "uint256",
          "name": "",
          "type": "uint256"
        }
      ],
      "stateMutability": "view",
      "type": "function"
    },
    {
      "inputs": [
        {
          "internalType": "address",
          "name": "token",
          "type": "address"
        }
      ],
      "name": "claim",
      "outputs": [],
      "stateMutability": "nonpayable",
      "type": "function"
    },
    {
      "inputs": [],
      "name": "claimInterval",
      "outputs": [
        {
          "internalType": "uint256",
          "name": "",
          "type": "uint256"
        }
      ],
      "stateMutability": "view",
      "type": "function"
    },
    {
      "inputs": [
        {
          "internalType": "address",
          "name": "",
          "type": "address"
        }
      ],
      "name": "lastClaim",
      "outputs": [
        {
          "internalType": "uint256",
          "name": "",
          "type": "uint256"
        }
      ],
      "stateMutability": "view",
      "type": "function"
    },
    {
      "inputs": [],
      "name": "owner",
      "outputs": [
        {
          "internalType": "address",
          "name": "",
          "type": "address"
        }
      ],
      "stateMutability": "view",
      "type": "function"
    },
    {
      "inputs": [
        {
          "internalType": "uint256",
          "name": "_amount",
          "type": "uint256"
        }
      ],
      "name": "setAmount",
      "outputs": [],
      "stateMutability": "nonpayable",
      "type": "function"
    },
    {
      "inputs": [
        {
          "internalType": "uint256",
          "name": "_interval",
          "type": "uint256"
        }
      ],
      "name": "setClaimInterval",
      "outputs": [],
      "stateMutability": "nonpayable",
      "type": "function"
    },
    {
      "inputs": [
        {
          "internalType": "address",
          "name": "newOwner",
          "type": "address"
        }
      ],
      "name": "transferOwnership",
      "outputs": [],
      "stateMutability": "nonpayable",
      "type": "function"
    },
    {
      "inputs": [
        {
          "internalType": "address",
          "name": "token",
          "type": "address"
        },
        {
          "internalType": "uint256",
          "name": "_amount",
          "type": "uint256"
        }
      ],
      "name": "withdrawTokens",
      "outputs": [],
      "stateMutability": "nonpayable",
      "type": "function"
    }
  ],
  "bytecode": "0x60806040526201518060025568056bc75e2d6310000060035534801561002457600080fd5b506040516113d43803806113d483398181016040528101906100469190610172565b336000806101000a81548173ffffffffffffffffffffffffffffffffffffffff021916908373ffffffffffffffffffffffffffffffffffffffff16021790555081600460006101000a81548173ffffffffffffffffffffffffffffffffffffffff021916908373ffffffffffffffffffffffffffffffffffffffff16021790555080600560006101000a81548173ffffffffffffffffffffffffffffffffffffffff021916908373ffffffffffffffffffffffffffffffffffffffff16021790555050506101b2565b600080fd5b600073ffffffffffffffffffffffffffffffffffffffff82169050919050565b600061013f82610114565b9050919050565b61014f81610134565b811461015a57600080fd5b50565b60008151905061016c81610146565b92915050565b600080604083850312156101895761018861010f565b5b60006101978582860161015d565b92505060206101a88582860161015d565b9150509250929050565b611213806101c16000396000f3fe608060405234801561001057600080fd5b50600436106100a95760003560e01c80638da5cb5b116100715780638da5cb5b14610150578063a627a2631461016e578063aa8c217c1461018c578063e9015213146101aa578063f2d57adf146101c8578063f2fde38b146101e4576100a9565b806306b091f9146100ae5780630b433a12146100ca5780631e83409a146100e8578063271f88b4146101045780635c16e15e14610120575b600080fd5b6100c860048036038101906100c39190610bd1565b610200565b005b6100d26104a1565b6040516100df9190610c20565b60405180910390f35b61010260048036038101906100fd9190610c3b565b6104a7565b005b61011e60048036038101906101199190610c68565b61083a565b005b61013a60048036038101906101359190610c3b565b6108d2565b6040516101479190610c20565b60405180910390f35b6101586108ea565b6040516101659190610ca4565b60405180910390f35b61017661090e565b6040516101839190610d1e565b60405180910390f35b610194610934565b6040516101a19190610c20565b60405180910390f35b6101b261093a565b6040516101bf9190610d1e565b60405180910390f35b6101e260048036038101906101dd9190610c68565b610960565b005b6101fe60048036038101906101f99190610c3b565b6109f8565b005b60008054906101000a900473ffffffffffffffffffffffffffffffffffffffff1673ffffffffffffffffffffffffffffffffffffffff163373ffffffffffffffffffffffffffffffffffffffff161461028e576040517f08c379a000000000000000000000000000000000000000000000000000000000815260040161028590610d96565b60405180910390fd5b60008273ffffffffffffffffffffffffffffffffffffffff166370a08231306040518263ffffffff1660e01b81526004016102c99190610ca4565b602060405180830381865afa1580156102e6573d6000803e3d6000fd5b505050506040513d601f19601f8201168201806040525081019061030a9190610dcb565b90508082111561034f576040517f08c379a000000000000000000000000000000000000000000000000000000000815260040161034690610e44565b60405180910390fd5b8273ffffffffffffffffffffffffffffffffffffffff1663a9059cbb60008054906101000a900473ffffffffffffffffffffffffffffffffffffffff16846040518363ffffffff1660e01b81526004016103aa929190610e64565b6020604051808303816000875af11580156103c9573d6000803e3d6000fd5b505050506040513d601f19601f820116820180604052508101906103ed9190610ec5565b61042c576040517f08c379a000000000000000000000000000000000000000000000000000000000815260040161042390610f3e565b60405180910390fd5b60008054906101000a900473ffffffffffffffffffffffffffffffffffffffff1673ffffffffffffffffffffffffffffffffffffffff167f81bb8ab873c357dc0a1bc0671f71a0184e75a780388618f11b67a9504bf766f88484604051610494929190610e64565b60405180910390a2505050565b60025481565b600460009054906101000a900473ffffffffffffffffffffffffffffffffffffffff1673ffffffffffffffffffffffffffffffffffffffff168173ffffffffffffffffffffffffffffffffffffffff1614806105505750600560009054906101000a900473ffffffffffffffffffffffffffffffffffffffff1673ffffffffffffffffffffffffffffffffffffffff168173ffffffffffffffffffffffffffffffffffffffff16145b61058f576040517f08c379a000000000000000000000000000000000000000000000000000000000815260040161058690610faa565b60405180910390fd5b600254600160003373ffffffffffffffffffffffffffffffffffffffff1673ffffffffffffffffffffffffffffffffffffffff168152602001908152602001600020546105dc9190610ff9565b42101561061e576040517f08c379a000000000000000000000000000000000000000000000000000000000815260040161061590611079565b60405180910390fd5b42600160003373ffffffffffffffffffffffffffffffffffffffff1673ffffffffffffffffffffffffffffffffffffffff1681526020019081526020016000208190555060008173ffffffffffffffffffffffffffffffffffffffff166370a08231306040518263ffffffff1660e01b815260040161069d9190610ca4565b602060405180830381865afa1580156106ba573d6000803e3d6000fd5b505050506040513d601f19601f820116820180604052508101906106de9190610dcb565b9050600354811015610725576040517f08c379a000000000000000000000000000000000000000000000000000000000815260040161071c906110e5565b60405180910390fd5b8173ffffffffffffffffffffffffffffffffffffffff1663a9059cbb336003546040518363ffffffff1660e01b8152600401610762929190610e64565b6020604051808303816000875af1158015610781573d6000803e3d6000fd5b505050506040513d601f19601f820116820180604052508101906107a59190610ec5565b6107e4576040517f08c379a00000000000000000000000000000000000000000000000000000000081526004016107db90611151565b60405180910390fd5b3373ffffffffffffffffffffffffffffffffffffffff167f2dd15ef43547cfe81462e7864585958b6647ed1f7fa704635b498754071ce9398360035460405161082e929190610e64565b60405180910390a25050565b60008054906101000a900473ffffffffffffffffffffffffffffffffffffffff1673ffffffffffffffffffffffffffffffffffffffff163373ffffffffffffffffffffffffffffffffffffffff16146108c8576040517f08c379a00000000000000000000000000000000000000000000000000000000081526004016108bf90610d96565b60405180910390fd5b8060038190555050565b60016020528060005260406000206000915090505481565b60008054906101000a900473ffffffffffffffffffffffffffffffffffffffff1681565b600560009054906101000a900473ffffffffffffffffffffffffffffffffffffffff1681565b60035481565b600460009054906101000a900473ffffffffffffffffffffffffffffffffffffffff1681565b60008054906101000a900473ffffffffffffffffffffffffffffffffffffffff1673ffffffffffffffffffffffffffffffffffffffff163373ffffffffffffffffffffffffffffffffffffffff16146109ee576040517f08c379a00000000000000000000000000000000000000000000000000000000081526004016109e590610d96565b60405180910390fd5b8060028190555050565b60008054906101000a900473ffffffffffffffffffffffffffffffffffffffff1673ffffffffffffffffffffffffffffffffffffffff163373ffffffffffffffffffffffffffffffffffffffff1614610a86576040517f08c379a0000000000000000000000000000000000000000000000000000000008152600401610a7d90610d96565b60405180910390fd5b600073ffffffffffffffffffffffffffffffffffffffff168173ffffffffffffffffffffffffffffffffffffffff1603610af5576040517f08c379a0000000000000000000000000000000000000000000000000000000008152600401610aec906111bd565b60405180910390fd5b806000806101000a81548173ffffffffffffffffffffffffffffffffffffffff021916908373ffffffffffffffffffffffffffffffffffffffff16021790555050565b600080fd5b600073ffffffffffffffffffffffffffffffffffffffff82169050919050565b6000610b6882610b3d565b9050919050565b610b7881610b5d565b8114610b8357600080fd5b50565b600081359050610b9581610b6f565b92915050565b6000819050919050565b610bae81610b9b565b8114610bb957600080fd5b50565b600081359050610bcb81610ba5565b92915050565b60008060408385031215610be857610be7610b38565b5b6000610bf685828601610b86565b9250506020610c0785828601610bbc565b9150509250929050565b610c1a81610b9b565b82525050565b6000602082019050610c356000830184610c11565b92915050565b600060208284031215610c5157610c50610b38565b5b6000610c5f84828501610b86565b91505092915050565b600060208284031215610c7e57610c7d610b38565b5b6000610c8c84828501610bbc565b91505092915050565b610c9e81610b5d565b82525050565b6000602082019050610cb96000830184610c95565b92915050565b6000819050919050565b6000610ce4610cdf610cda84610b3d565b610cbf565b610b3d565b9050919050565b6000610cf682610cc9565b9050919050565b6000610d0882610ceb565b9050919050565b610d1881610cfd565b82525050565b6000602082019050610d336000830184610d0f565b92915050565b600082825260208201905092915050565b7f43616c6c6572206973206e6f7420746865206f776e6572000000000000000000600082015250565b6000610d80601783610d39565b9150610d8b82610d4a565b602082019050919050565b60006020820190508181036000830152610daf81610d73565b9050919050565b600081519050610dc581610ba5565b92915050565b600060208284031215610de157610de0610b38565b5b6000610def84828501610db6565b91505092915050565b7f496e73756666696369656e7420636f6e74726163742062616c616e6365000000600082015250565b6000610e2e601d83610d39565b9150610e3982610df8565b602082019050919050565b60006020820190508181036000830152610e5d81610e21565b9050919050565b6000604082019050610e796000830185610c95565b610e866020830184610c11565b9392505050565b60008115159050919050565b610ea281610e8d565b8114610ead57600080fd5b50565b600081519050610ebf81610e99565b92915050565b600060208284031215610edb57610eda610b38565b5b6000610ee984828501610eb0565b91505092915050565b7f546f6b656e207769746864726177616c206661696c6564000000000000000000600082015250565b6000610f28601783610d39565b9150610f3382610ef2565b602082019050919050565b60006020820190508181036000830152610f5781610f1b565b9050919050565b7f496e76616c696420746f6b656e00000000000000000000000000000000000000600082015250565b6000610f94600d83610d39565b9150610f9f82610f5e565b602082019050919050565b60006020820190508181036000830152610fc381610f87565b9050919050565b7f4e487b7100000000000000000000000000000000000000000000000000000000600052601160045260246000fd5b600061100482610b9b565b915061100f83610b9b565b925082820190508082111561102757611026610fca565b5b92915050565b7f5761697420323420686f75727300000000000000000000000000000000000000600082015250565b6000611063600d83610d39565b915061106e8261102d565b602082019050919050565b6000602082019050818103600083015261109281611056565b9050919050565b7f4e6f7420656e6f75676820746f6b656e7320696e206661756365740000000000600082015250565b60006110cf601b83610d39565b91506110da82611099565b602082019050919050565b600060208201905081810360008301526110fe816110c2565b9050919050565b7f546f6b656e207472616e73666572206661696c65640000000000000000000000600082015250565b600061113b601583610d39565b915061114682611105565b602082019050919050565b6000602082019050818103600083015261116a8161112e565b9050919050565b7f4e6577206f776e657220697320746865207a65726f2061646472657373000000600082015250565b60006111a7601d83610d39565b91506111b282611171565b602082019050919050565b600060208201905081810360008301526111d68161119a565b905091905056fea26469706673582212208de932446d42d9b7ea7fbd8663fc8cfb58e7c9711eb33d7eba507da1826c91ce64736f6c634300081c0033",
  "linkReferences": {},
  "deployedLinkReferences": {}
}