{
  "_format": "hh-sol-artifact-1",
  "contractName": "SwapETH",
  "sourceName": "contracts/SwapETH.sol",
  "abi": [
    {
      "inputs": [
        {
          "internalType": "address",
          "name": "_cepToken",
          "type": "address"
        },
        {
          "internalType": "address",
          "name": "_lnxToken",
          "type": "address"
        },
        {
          "internalType": "address",
          "name": "_liquidityPool",
          "type": "address"
        }
      ],
      "stateMutability": "nonpayable",
      "type": "constructor"
    },
    {
      "inputs": [],
      "name": "RATE",
      "outputs": [
        {
          "internalType": "uint256",
          "name": "",
          "type": "uint256"
        }
      ],
      "stateMutability": "view",
      "type": "function"
    },
    {
      "inputs": [],
      "name": "cepToken",
      "outputs": [
        {
          "internalType": "contract IERC20",
          "name": "",
          "type": "address"
        }
      ],
      "stateMutability": "view",
      "type": "function"
    },
    {
      "inputs": [],
      "name": "liquidityPool",
      "outputs": [
        {
          "internalType": "contract TokenPool",
          "name": "",
          "type": "address"
        }
      ],
      "stateMutability": "view",
      "type": "function"
    },
    {
      "inputs": [],
      "name": "lnxToken",
      "outputs": [
        {
          "internalType": "contract IERC20",
          "name": "",
          "type": "address"
        }
      ],
      "stateMutability": "view",
      "type": "function"
    },
    {
      "inputs": [],
      "name": "owner",
      "outputs": [
        {
          "internalType": "address",
          "name": "",
          "type": "address"
        }
      ],
      "stateMutability": "view",
      "type": "function"
    },
    {
      "inputs": [],
      "name": "serviceFee",
      "outputs": [
        {
          "internalType": "uint256",
          "name": "",
          "type": "uint256"
        }
      ],
      "stateMutability": "view",
      "type": "function"
    },
    {
      "inputs": [
        {
          "internalType": "uint256",
          "name": "_fee",
          "type": "uint256"
        }
      ],
      "name": "setServiceFee",
      "outputs": [],
      "stateMutability": "nonpayable",
      "type": "function"
    },
    {
      "inputs": [
        {
          "internalType": "uint256",
          "name": "_cepAmount",
          "type": "uint256"
        }
      ],
      "name": "swapCEPForLNX",
      "outputs": [],
      "stateMutability": "nonpayable",
      "type": "function"
    },
    {
      "inputs": [
        {
          "internalType": "uint256",
          "name": "_lnxAmount",
          "type": "uint256"
        }
      ],
      "name": "swapLNXForCEP",
      "outputs": [],
      "stateMutability": "nonpayable",
      "type": "function"
    }
  ],
  "bytecode": "0x6080604052601e60035534801561001557600080fd5b50604051611292380380611292833981810160405281019061003791906101a5565b826000806101000a81548173ffffffffffffffffffffffffffffffffffffffff021916908373ffffffffffffffffffffffffffffffffffffffff16021790555081600160006101000a81548173ffffffffffffffffffffffffffffffffffffffff021916908373ffffffffffffffffffffffffffffffffffffffff16021790555080600260006101000a81548173ffffffffffffffffffffffffffffffffffffffff021916908373ffffffffffffffffffffffffffffffffffffffff16021790555033600460006101000a81548173ffffffffffffffffffffffffffffffffffffffff021916908373ffffffffffffffffffffffffffffffffffffffff1602179055505050506101f8565b600080fd5b600073ffffffffffffffffffffffffffffffffffffffff82169050919050565b600061017282610147565b9050919050565b61018281610167565b811461018d57600080fd5b50565b60008151905061019f81610179565b92915050565b6000806000606084860312156101be576101bd610142565b5b60006101cc86828701610190565b93505060206101dd86828701610190565b92505060406101ee86828701610190565b9150509250925092565b61108b806102076000396000f3fe608060405234801561001057600080fd5b50600436106100935760003560e01c8063665a11ca11610066578063665a11ca1461010c57806374896c371461012a57806377c5ac4c146101465780638abdf5aa146101645780638da5cb5b1461018257610093565b806301d8c71a146100985780630d0aaf48146100b65780635cdf76f8146100d2578063664e9704146100ee575b600080fd5b6100a06101a0565b6040516100ad9190610a76565b60405180910390f35b6100d060048036038101906100cb9190610acc565b6101c6565b005b6100ec60048036038101906100e79190610acc565b610558565b005b6100f6610637565b6040516101039190610b08565b60405180910390f35b61011461063c565b6040516101219190610b44565b60405180910390f35b610144600480360381019061013f9190610acc565b610662565b005b61014e6109a7565b60405161015b9190610a76565b60405180910390f35b61016c6109cb565b6040516101799190610b08565b60405180910390f35b61018a6109d1565b6040516101979190610b80565b60405180910390f35b600160009054906101000a900473ffffffffffffffffffffffffffffffffffffffff1681565b60006002826101d59190610bca565b14610215576040517f08c379a000000000000000000000000000000000000000000000000000000000815260040161020c90610c7e565b60405180910390fd5b60006002826102249190610ccd565b905060006103e8600354836102399190610cfe565b6102439190610ccd565b9050600160009054906101000a900473ffffffffffffffffffffffffffffffffffffffff1673ffffffffffffffffffffffffffffffffffffffff166323b872dd33600260009054906101000a900473ffffffffffffffffffffffffffffffffffffffff16866040518463ffffffff1660e01b81526004016102c693929190610d40565b6020604051808303816000875af11580156102e5573d6000803e3d6000fd5b505050506040513d601f19601f820116820180604052508101906103099190610daf565b610348576040517f08c379a000000000000000000000000000000000000000000000000000000000815260040161033f90610e28565b60405180910390fd5b60008054906101000a900473ffffffffffffffffffffffffffffffffffffffff1673ffffffffffffffffffffffffffffffffffffffff166323b872dd600260009054906101000a900473ffffffffffffffffffffffffffffffffffffffff163384866103b49190610e48565b6040518463ffffffff1660e01b81526004016103d293929190610d40565b6020604051808303816000875af11580156103f1573d6000803e3d6000fd5b505050506040513d601f19601f820116820180604052508101906104159190610daf565b610454576040517f08c379a000000000000000000000000000000000000000000000000000000000815260040161044b90610ec8565b60405180910390fd5b60008054906101000a900473ffffffffffffffffffffffffffffffffffffffff1673ffffffffffffffffffffffffffffffffffffffff1663a9059cbb600460009054906101000a900473ffffffffffffffffffffffffffffffffffffffff16836040518363ffffffff1660e01b81526004016104d1929190610ee8565b6020604051808303816000875af11580156104f0573d6000803e3d6000fd5b505050506040513d601f19601f820116820180604052508101906105149190610daf565b610553576040517f08c379a000000000000000000000000000000000000000000000000000000000815260040161054a90610f5d565b60405180910390fd5b505050565b600460009054906101000a900473ffffffffffffffffffffffffffffffffffffffff1673ffffffffffffffffffffffffffffffffffffffff163373ffffffffffffffffffffffffffffffffffffffff16146105e8576040517f08c379a00000000000000000000000000000000000000000000000000000000081526004016105df90610fc9565b60405180910390fd5b6101f481111561062d576040517f08c379a000000000000000000000000000000000000000000000000000000000815260040161062490611035565b60405180910390fd5b8060038190555050565b600281565b600260009054906101000a900473ffffffffffffffffffffffffffffffffffffffff1681565b60006002826106719190610cfe565b905060006103e8600354836106869190610cfe565b6106909190610ccd565b905060008054906101000a900473ffffffffffffffffffffffffffffffffffffffff1673ffffffffffffffffffffffffffffffffffffffff166323b872dd33600260009054906101000a900473ffffffffffffffffffffffffffffffffffffffff16866040518463ffffffff1660e01b815260040161071193929190610d40565b6020604051808303816000875af1158015610730573d6000803e3d6000fd5b505050506040513d601f19601f820116820180604052508101906107549190610daf565b610793576040517f08c379a000000000000000000000000000000000000000000000000000000000815260040161078a90610ec8565b60405180910390fd5b600160009054906101000a900473ffffffffffffffffffffffffffffffffffffffff1673ffffffffffffffffffffffffffffffffffffffff166323b872dd600260009054906101000a900473ffffffffffffffffffffffffffffffffffffffff163384866108019190610e48565b6040518463ffffffff1660e01b815260040161081f93929190610d40565b6020604051808303816000875af115801561083e573d6000803e3d6000fd5b505050506040513d601f19601f820116820180604052508101906108629190610daf565b6108a1576040517f08c379a000000000000000000000000000000000000000000000000000000000815260040161089890610e28565b60405180910390fd5b600160009054906101000a900473ffffffffffffffffffffffffffffffffffffffff1673ffffffffffffffffffffffffffffffffffffffff1663a9059cbb600460009054906101000a900473ffffffffffffffffffffffffffffffffffffffff16836040518363ffffffff1660e01b8152600401610920929190610ee8565b6020604051808303816000875af115801561093f573d6000803e3d6000fd5b505050506040513d601f19601f820116820180604052508101906109639190610daf565b6109a2576040517f08c379a000000000000000000000000000000000000000000000000000000000815260040161099990610f5d565b60405180910390fd5b505050565b60008054906101000a900473ffffffffffffffffffffffffffffffffffffffff1681565b60035481565b600460009054906101000a900473ffffffffffffffffffffffffffffffffffffffff1681565b600073ffffffffffffffffffffffffffffffffffffffff82169050919050565b6000819050919050565b6000610a3c610a37610a32846109f7565b610a17565b6109f7565b9050919050565b6000610a4e82610a21565b9050919050565b6000610a6082610a43565b9050919050565b610a7081610a55565b82525050565b6000602082019050610a8b6000830184610a67565b92915050565b600080fd5b6000819050919050565b610aa981610a96565b8114610ab457600080fd5b50565b600081359050610ac681610aa0565b92915050565b600060208284031215610ae257610ae1610a91565b5b6000610af084828501610ab7565b91505092915050565b610b0281610a96565b82525050565b6000602082019050610b1d6000830184610af9565b92915050565b6000610b2e82610a43565b9050919050565b610b3e81610b23565b82525050565b6000602082019050610b596000830184610b35565b92915050565b6000610b6a826109f7565b9050919050565b610b7a81610b5f565b82525050565b6000602082019050610b956000830184610b71565b92915050565b7f4e487b7100000000000000000000000000000000000000000000000000000000600052601260045260246000fd5b6000610bd582610a96565b9150610be083610a96565b925082610bf057610bef610b9b565b5b828206905092915050565b600082825260208201905092915050565b7f4c4e5820616d6f756e74206d757374206265206d756c7469706c65206f66205260008201527f4154450000000000000000000000000000000000000000000000000000000000602082015250565b6000610c68602383610bfb565b9150610c7382610c0c565b604082019050919050565b60006020820190508181036000830152610c9781610c5b565b9050919050565b7f4e487b7100000000000000000000000000000000000000000000000000000000600052601160045260246000fd5b6000610cd882610a96565b9150610ce383610a96565b925082610cf357610cf2610b9b565b5b828204905092915050565b6000610d0982610a96565b9150610d1483610a96565b9250828202610d2281610a96565b91508282048414831517610d3957610d38610c9e565b5b5092915050565b6000606082019050610d556000830186610b71565b610d626020830185610b71565b610d6f6040830184610af9565b949350505050565b60008115159050919050565b610d8c81610d77565b8114610d9757600080fd5b50565b600081519050610da981610d83565b92915050565b600060208284031215610dc557610dc4610a91565b5b6000610dd384828501610d9a565b91505092915050565b7f4c4e58207472616e73666572206661696c656400000000000000000000000000600082015250565b6000610e12601383610bfb565b9150610e1d82610ddc565b602082019050919050565b60006020820190508181036000830152610e4181610e05565b9050919050565b6000610e5382610a96565b9150610e5e83610a96565b9250828203905081811115610e7657610e75610c9e565b5b92915050565b7f434550207472616e73666572206661696c656400000000000000000000000000600082015250565b6000610eb2601383610bfb565b9150610ebd82610e7c565b602082019050919050565b60006020820190508181036000830152610ee181610ea5565b9050919050565b6000604082019050610efd6000830185610b71565b610f0a6020830184610af9565b9392505050565b7f466565207472616e73666572206661696c656400000000000000000000000000600082015250565b6000610f47601383610bfb565b9150610f5282610f11565b602082019050919050565b60006020820190508181036000830152610f7681610f3a565b9050919050565b7f4e6f7420746865206f776e657200000000000000000000000000000000000000600082015250565b6000610fb3600d83610bfb565b9150610fbe82610f7d565b602082019050919050565b60006020820190508181036000830152610fe281610fa6565b9050919050565b7f46656520746f6f206869676821204d61783a2035250000000000000000000000600082015250565b600061101f601583610bfb565b915061102a82610fe9565b602082019050919050565b6000602082019050818103600083015261104e81611012565b905091905056fea2646970667358221220bcdc6bd0af925f1f54a219ff69b872e66c420ef14aca22acccf6e1909ebfc89464736f6c634300081c0033",
  "linkReferences": {},
  "deployedLinkReferences": {}
}