{
  "_format": "hh-sol-artifact-1",
  "contractName": "SwapToken",
  "sourceName": "contracts/SwapToken.sol",
  "abi": [
    {
      "inputs": [
        {
          "internalType": "address",
          "name": "_tokenLNX",
          "type": "address"
        },
        {
          "internalType": "address",
          "name": "_tokenCEP",
          "type": "address"
        }
      ],
      "stateMutability": "nonpayable",
      "type": "constructor"
    },
    {
      "anonymous": false,
      "inputs": [
        {
          "indexed": false,
          "internalType": "uint256",
          "name": "newFeePercentage",
          "type": "uint256"
        }
      ],
      "name": "FeeUpdated",
      "type": "event"
    },
    {
      "anonymous": false,
      "inputs": [
        {
          "indexed": true,
          "internalType": "address",
          "name": "owner",
          "type": "address"
        },
        {
          "indexed": false,
          "internalType": "uint256",
          "name": "amount",
          "type": "uint256"
        }
      ],
      "name": "FeesWithdrawn",
      "type": "event"
    },
    {
      "anonymous": false,
      "inputs": [
        {
          "indexed": true,
          "internalType": "address",
          "name": "user",
          "type": "address"
        },
        {
          "indexed": false,
          "internalType": "address",
          "name": "token",
          "type": "address"
        },
        {
          "indexed": false,
          "internalType": "uint256",
          "name": "amount",
          "type": "uint256"
        }
      ],
      "name": "LiquidityDeposited",
      "type": "event"
    },
    {
      "anonymous": false,
      "inputs": [
        {
          "indexed": true,
          "internalType": "address",
          "name": "owner",
          "type": "address"
        },
        {
          "indexed": false,
          "internalType": "address",
          "name": "token",
          "type": "address"
        },
        {
          "indexed": false,
          "internalType": "uint256",
          "name": "amount",
          "type": "uint256"
        }
      ],
      "name": "LiquidityWithdrawn",
      "type": "event"
    },
    {
      "anonymous": false,
      "inputs": [
        {
          "indexed": true,
          "internalType": "address",
          "name": "user",
          "type": "address"
        },
        {
          "indexed": false,
          "internalType": "address",
          "name": "fromToken",
          "type": "address"
        },
        {
          "indexed": false,
          "internalType": "uint256",
          "name": "amountIn",
          "type": "uint256"
        },
        {
          "indexed": false,
          "internalType": "address",
          "name": "toToken",
          "type": "address"
        },
        {
          "indexed": false,
          "internalType": "uint256",
          "name": "amountOut",
          "type": "uint256"
        }
      ],
      "name": "Swapped",
      "type": "event"
    },
    {
      "inputs": [
        {
          "internalType": "address",
          "name": "_token",
          "type": "address"
        },
        {
          "internalType": "uint256",
          "name": "_amount",
          "type": "uint256"
        }
      ],
      "name": "depositLiquidity",
      "outputs": [],
      "stateMutability": "nonpayable",
      "type": "function"
    },
    {
      "inputs": [],
      "name": "feePercentage",
      "outputs": [
        {
          "internalType": "uint256",
          "name": "",
          "type": "uint256"
        }
      ],
      "stateMutability": "view",
      "type": "function"
    },
    {
      "inputs": [
        {
          "internalType": "address",
          "name": "_token",
          "type": "address"
        }
      ],
      "name": "getPoolBalance",
      "outputs": [
        {
          "internalType": "uint256",
          "name": "",
          "type": "uint256"
        }
      ],
      "stateMutability": "view",
      "type": "function"
    },
    {
      "inputs": [],
      "name": "owner",
      "outputs": [
        {
          "internalType": "address",
          "name": "",
          "type": "address"
        }
      ],
      "stateMutability": "view",
      "type": "function"
    },
    {
      "inputs": [],
      "name": "rate",
      "outputs": [
        {
          "internalType": "uint256",
          "name": "",
          "type": "uint256"
        }
      ],
      "stateMutability": "view",
      "type": "function"
    },
    {
      "inputs": [
        {
          "internalType": "uint256",
          "name": "_newFeePercentage",
          "type": "uint256"
        }
      ],
      "name": "setFeePercentage",
      "outputs": [],
      "stateMutability": "nonpayable",
      "type": "function"
    },
    {
      "inputs": [
        {
          "internalType": "address",
          "name": "fromToken",
          "type": "address"
        },
        {
          "internalType": "uint256",
          "name": "amount",
          "type": "uint256"
        }
      ],
      "name": "swap",
      "outputs": [],
      "stateMutability": "nonpayable",
      "type": "function"
    },
    {
      "inputs": [],
      "name": "tokenCEP",
      "outputs": [
        {
          "internalType": "contract IERC20",
          "name": "",
          "type": "address"
        }
      ],
      "stateMutability": "view",
      "type": "function"
    },
    {
      "inputs": [],
      "name": "tokenLNX",
      "outputs": [
        {
          "internalType": "contract IERC20",
          "name": "",
          "type": "address"
        }
      ],
      "stateMutability": "view",
      "type": "function"
    },
    {
      "inputs": [
        {
          "internalType": "address",
          "name": "_token",
          "type": "address"
        }
      ],
      "name": "withdrawFees",
      "outputs": [],
      "stateMutability": "nonpayable",
      "type": "function"
    },
    {
      "inputs": [
        {
          "internalType": "address",
          "name": "_token",
          "type": "address"
        },
        {
          "internalType": "uint256",
          "name": "_amount",
          "type": "uint256"
        }
      ],
      "name": "withdrawLiquidity",
      "outputs": [],
      "stateMutability": "nonpayable",
      "type": "function"
    }
  ],
  "bytecode": "0x60c060405234801561001057600080fd5b50604051611d4a380380611d4a8339818101604052810190610032919061015c565b8173ffffffffffffffffffffffffffffffffffffffff1660808173ffffffffffffffffffffffffffffffffffffffff16815250508073ffffffffffffffffffffffffffffffffffffffff1660a08173ffffffffffffffffffffffffffffffffffffffff1681525050671bc16d674ec80000600181905550601e60008190555033600260006101000a81548173ffffffffffffffffffffffffffffffffffffffff021916908373ffffffffffffffffffffffffffffffffffffffff160217905550505061019c565b600080fd5b600073ffffffffffffffffffffffffffffffffffffffff82169050919050565b6000610129826100fe565b9050919050565b6101398161011e565b811461014457600080fd5b50565b60008151905061015681610130565b92915050565b60008060408385031215610173576101726100f9565b5b600061018185828601610147565b925050602061019285828601610147565b9150509250929050565b60805160a051611b2e61021c600039600081816102e7015281816105b50152818161087501528181610a4201528181610c3e01528181610ccf01528181610d4d0152610d78015260008181610292015281816105600152818161082001528181610b8201528181610be901528181610d270152610d9e0152611b2e6000f3fe608060405234801561001057600080fd5b50600436106100a95760003560e01c80639b0cdbce116100715780639b0cdbce1461013e578063a001ecdd1461015c578063ae06c1b71461017a578063b58857fc14610196578063d004f0f7146101b4578063d28682ea146101d0576100a9565b806306d47de9146100ae578063164e68de146100ca5780632c4e722e146100e657806339b41b4a146101045780638da5cb5b14610120575b600080fd5b6100c860048036038101906100c391906112cd565b610200565b005b6100e460048036038101906100df919061130d565b6104ce565b005b6100ee610818565b6040516100fb9190611349565b60405180910390f35b61011e600480360381019061011991906112cd565b61081e565b005b610128610a1a565b6040516101359190611373565b60405180910390f35b610146610a40565b60405161015391906113ed565b60405180910390f35b610164610a64565b6040516101719190611349565b60405180910390f35b610194600480360381019061018f9190611408565b610a6a565b005b61019e610b80565b6040516101ab91906113ed565b60405180910390f35b6101ce60048036038101906101c991906112cd565b610ba4565b005b6101ea60048036038101906101e5919061130d565b6111b1565b6040516101f79190611349565b60405180910390f35b600260009054906101000a900473ffffffffffffffffffffffffffffffffffffffff1673ffffffffffffffffffffffffffffffffffffffff163373ffffffffffffffffffffffffffffffffffffffff1614610290576040517f08c379a000000000000000000000000000000000000000000000000000000000815260040161028790611492565b60405180910390fd5b7f000000000000000000000000000000000000000000000000000000000000000073ffffffffffffffffffffffffffffffffffffffff168273ffffffffffffffffffffffffffffffffffffffff16148061033557507f000000000000000000000000000000000000000000000000000000000000000073ffffffffffffffffffffffffffffffffffffffff168273ffffffffffffffffffffffffffffffffffffffff16145b610374576040517f08c379a000000000000000000000000000000000000000000000000000000000815260040161036b906114fe565b60405180910390fd5b600081116103b7576040517f08c379a00000000000000000000000000000000000000000000000000000000081526004016103ae9061156a565b60405180910390fd5b8173ffffffffffffffffffffffffffffffffffffffff1663a9059cbb600260009054906101000a900473ffffffffffffffffffffffffffffffffffffffff16836040518363ffffffff1660e01b815260040161041492919061158a565b6020604051808303816000875af1158015610433573d6000803e3d6000fd5b505050506040513d601f19601f8201168201806040525081019061045791906115eb565b50600260009054906101000a900473ffffffffffffffffffffffffffffffffffffffff1673ffffffffffffffffffffffffffffffffffffffff167f83aa598dd3e269af677698c6847b3ba594a67d286a771d01099aafa911a91b6483836040516104c292919061158a565b60405180910390a25050565b600260009054906101000a900473ffffffffffffffffffffffffffffffffffffffff1673ffffffffffffffffffffffffffffffffffffffff163373ffffffffffffffffffffffffffffffffffffffff161461055e576040517f08c379a000000000000000000000000000000000000000000000000000000000815260040161055590611492565b60405180910390fd5b7f000000000000000000000000000000000000000000000000000000000000000073ffffffffffffffffffffffffffffffffffffffff168173ffffffffffffffffffffffffffffffffffffffff16148061060357507f000000000000000000000000000000000000000000000000000000000000000073ffffffffffffffffffffffffffffffffffffffff168173ffffffffffffffffffffffffffffffffffffffff16145b610642576040517f08c379a0000000000000000000000000000000000000000000000000000000008152600401610639906114fe565b60405180910390fd5b60008173ffffffffffffffffffffffffffffffffffffffff166370a08231306040518263ffffffff1660e01b815260040161067d9190611373565b602060405180830381865afa15801561069a573d6000803e3d6000fd5b505050506040513d601f19601f820116820180604052508101906106be919061162d565b905060008111610703576040517f08c379a00000000000000000000000000000000000000000000000000000000081526004016106fa906116a6565b60405180910390fd5b8173ffffffffffffffffffffffffffffffffffffffff1663a9059cbb600260009054906101000a900473ffffffffffffffffffffffffffffffffffffffff16836040518363ffffffff1660e01b815260040161076092919061158a565b6020604051808303816000875af115801561077f573d6000803e3d6000fd5b505050506040513d601f19601f820116820180604052508101906107a391906115eb565b50600260009054906101000a900473ffffffffffffffffffffffffffffffffffffffff1673ffffffffffffffffffffffffffffffffffffffff167fc0819c13be868895eb93e40eaceb96de976442fa1d404e5c55f14bb65a8c489a8260405161080c9190611349565b60405180910390a25050565b60015481565b7f000000000000000000000000000000000000000000000000000000000000000073ffffffffffffffffffffffffffffffffffffffff168273ffffffffffffffffffffffffffffffffffffffff1614806108c357507f000000000000000000000000000000000000000000000000000000000000000073ffffffffffffffffffffffffffffffffffffffff168273ffffffffffffffffffffffffffffffffffffffff16145b610902576040517f08c379a00000000000000000000000000000000000000000000000000000000081526004016108f9906114fe565b60405180910390fd5b60008111610945576040517f08c379a000000000000000000000000000000000000000000000000000000000815260040161093c9061156a565b60405180910390fd5b8173ffffffffffffffffffffffffffffffffffffffff166323b872dd3330846040518463ffffffff1660e01b8152600401610982939291906116c6565b6020604051808303816000875af11580156109a1573d6000803e3d6000fd5b505050506040513d601f19601f820116820180604052508101906109c591906115eb565b503373ffffffffffffffffffffffffffffffffffffffff167fc72a439d25ca984ced5b3d76fd3fa4c85e46f52177e4f18cbcbe98433a58cc868383604051610a0e92919061158a565b60405180910390a25050565b600260009054906101000a900473ffffffffffffffffffffffffffffffffffffffff1681565b7f000000000000000000000000000000000000000000000000000000000000000081565b60005481565b600260009054906101000a900473ffffffffffffffffffffffffffffffffffffffff1673ffffffffffffffffffffffffffffffffffffffff163373ffffffffffffffffffffffffffffffffffffffff1614610afa576040517f08c379a0000000000000000000000000000000000000000000000000000000008152600401610af190611492565b60405180910390fd5b6103e8811115610b3f576040517f08c379a0000000000000000000000000000000000000000000000000000000008152600401610b3690611749565b60405180910390fd5b806000819055507f8c4d35e54a3f2ef1134138fd8ea3daee6a3c89e10d2665996babdf70261e2c7681604051610b759190611349565b60405180910390a150565b7f000000000000000000000000000000000000000000000000000000000000000081565b60008111610be7576040517f08c379a0000000000000000000000000000000000000000000000000000000008152600401610bde9061156a565b60405180910390fd5b7f000000000000000000000000000000000000000000000000000000000000000073ffffffffffffffffffffffffffffffffffffffff168273ffffffffffffffffffffffffffffffffffffffff161480610c8c57507f000000000000000000000000000000000000000000000000000000000000000073ffffffffffffffffffffffffffffffffffffffff168273ffffffffffffffffffffffffffffffffffffffff16145b610ccb576040517f08c379a0000000000000000000000000000000000000000000000000000000008152600401610cc2906114fe565b60405180910390fd5b60007f000000000000000000000000000000000000000000000000000000000000000073ffffffffffffffffffffffffffffffffffffffff168373ffffffffffffffffffffffffffffffffffffffff16149050600081610d4b577f0000000000000000000000000000000000000000000000000000000000000000610d6d565b7f00000000000000000000000000000000000000000000000000000000000000005b9050600082610d9c577f0000000000000000000000000000000000000000000000000000000000000000610dbe565b7f00000000000000000000000000000000000000000000000000000000000000005b9050838273ffffffffffffffffffffffffffffffffffffffff1663dd62ed3e33306040518363ffffffff1660e01b8152600401610dfc929190611769565b602060405180830381865afa158015610e19573d6000803e3d6000fd5b505050506040513d601f19601f82011682018060405250810190610e3d919061162d565b1015610e7e576040517f08c379a0000000000000000000000000000000000000000000000000000000008152600401610e75906117de565b60405180910390fd5b600061271060005486610e91919061182d565b610e9b919061189e565b905060008186610eab91906118cf565b9050600085610ec75760015482610ec2919061189e565b610ed6565b60015482610ed5919061182d565b5b905060008111610f1b576040517f08c379a0000000000000000000000000000000000000000000000000000000008152600401610f129061194f565b60405180910390fd5b808473ffffffffffffffffffffffffffffffffffffffff166370a08231306040518263ffffffff1660e01b8152600401610f559190611373565b602060405180830381865afa158015610f72573d6000803e3d6000fd5b505050506040513d601f19601f82011682018060405250810190610f96919061162d565b1015610fd7576040517f08c379a0000000000000000000000000000000000000000000000000000000008152600401610fce906119bb565b60405180910390fd5b8473ffffffffffffffffffffffffffffffffffffffff166323b872dd33308a6040518463ffffffff1660e01b8152600401611014939291906116c6565b6020604051808303816000875af1158015611033573d6000803e3d6000fd5b505050506040513d601f19601f8201168201806040525081019061105791906115eb565b611096576040517f08c379a000000000000000000000000000000000000000000000000000000000815260040161108d90611a27565b60405180910390fd5b8373ffffffffffffffffffffffffffffffffffffffff1663a9059cbb33836040518363ffffffff1660e01b81526004016110d192919061158a565b6020604051808303816000875af11580156110f0573d6000803e3d6000fd5b505050506040513d601f19601f8201168201806040525081019061111491906115eb565b611153576040517f08c379a000000000000000000000000000000000000000000000000000000000815260040161114a90611a93565b60405180910390fd5b3373ffffffffffffffffffffffffffffffffffffffff167f692315744755ee6d80decaeb993d4b1bb95ff5db042cc47b32d5a7d858b019028989878560405161119f9493929190611ab3565b60405180910390a25050505050505050565b60008173ffffffffffffffffffffffffffffffffffffffff166370a08231306040518263ffffffff1660e01b81526004016111ec9190611373565b602060405180830381865afa158015611209573d6000803e3d6000fd5b505050506040513d601f19601f8201168201806040525081019061122d919061162d565b9050919050565b600080fd5b600073ffffffffffffffffffffffffffffffffffffffff82169050919050565b600061126482611239565b9050919050565b61127481611259565b811461127f57600080fd5b50565b6000813590506112918161126b565b92915050565b6000819050919050565b6112aa81611297565b81146112b557600080fd5b50565b6000813590506112c7816112a1565b92915050565b600080604083850312156112e4576112e3611234565b5b60006112f285828601611282565b9250506020611303858286016112b8565b9150509250929050565b60006020828403121561132357611322611234565b5b600061133184828501611282565b91505092915050565b61134381611297565b82525050565b600060208201905061135e600083018461133a565b92915050565b61136d81611259565b82525050565b60006020820190506113886000830184611364565b92915050565b6000819050919050565b60006113b36113ae6113a984611239565b61138e565b611239565b9050919050565b60006113c582611398565b9050919050565b60006113d7826113ba565b9050919050565b6113e7816113cc565b82525050565b600060208201905061140260008301846113de565b92915050565b60006020828403121561141e5761141d611234565b5b600061142c848285016112b8565b91505092915050565b600082825260208201905092915050565b7f4e6f7420636f6e7472616374206f776e65720000000000000000000000000000600082015250565b600061147c601283611435565b915061148782611446565b602082019050919050565b600060208201905081810360008301526114ab8161146f565b9050919050565b7f496e76616c696420746f6b656e00000000000000000000000000000000000000600082015250565b60006114e8600d83611435565b91506114f3826114b2565b602082019050919050565b60006020820190508181036000830152611517816114db565b9050919050565b7f416d6f756e74206d7573742062652067726561746572207468616e207a65726f600082015250565b6000611554602083611435565b915061155f8261151e565b602082019050919050565b6000602082019050818103600083015261158381611547565b9050919050565b600060408201905061159f6000830185611364565b6115ac602083018461133a565b9392505050565b60008115159050919050565b6115c8816115b3565b81146115d357600080fd5b50565b6000815190506115e5816115bf565b92915050565b60006020828403121561160157611600611234565b5b600061160f848285016115d6565b91505092915050565b600081519050611627816112a1565b92915050565b60006020828403121561164357611642611234565b5b600061165184828501611618565b91505092915050565b7f4e6f206665657320746f20776974686472617700000000000000000000000000600082015250565b6000611690601383611435565b915061169b8261165a565b602082019050919050565b600060208201905081810360008301526116bf81611683565b9050919050565b60006060820190506116db6000830186611364565b6116e86020830185611364565b6116f5604083018461133a565b949350505050565b7f46656520746f6f20686967680000000000000000000000000000000000000000600082015250565b6000611733600c83611435565b915061173e826116fd565b602082019050919050565b6000602082019050818103600083015261176281611726565b9050919050565b600060408201905061177e6000830185611364565b61178b6020830184611364565b9392505050565b7f496e73756666696369656e7420616c6c6f77616e636500000000000000000000600082015250565b60006117c8601683611435565b91506117d382611792565b602082019050919050565b600060208201905081810360008301526117f7816117bb565b9050919050565b7f4e487b7100000000000000000000000000000000000000000000000000000000600052601160045260246000fd5b600061183882611297565b915061184383611297565b925082820261185181611297565b91508282048414831517611868576118676117fe565b5b5092915050565b7f4e487b7100000000000000000000000000000000000000000000000000000000600052601260045260246000fd5b60006118a982611297565b91506118b483611297565b9250826118c4576118c361186f565b5b828204905092915050565b60006118da82611297565b91506118e583611297565b92508282039050818111156118fd576118fc6117fe565b5b92915050565b7f5377617020616d6f756e7420746f6f20736d616c6c0000000000000000000000600082015250565b6000611939601583611435565b915061194482611903565b602082019050919050565b600060208201905081810360008301526119688161192c565b9050919050565b7f4e6f7420656e6f756768206c6971756964697479000000000000000000000000600082015250565b60006119a5601483611435565b91506119b08261196f565b602082019050919050565b600060208201905081810360008301526119d481611998565b9050919050565b7f5472616e73666572206661696c65640000000000000000000000000000000000600082015250565b6000611a11600f83611435565b9150611a1c826119db565b602082019050919050565b60006020820190508181036000830152611a4081611a04565b9050919050565b7f53776170206661696c6564000000000000000000000000000000000000000000600082015250565b6000611a7d600b83611435565b9150611a8882611a47565b602082019050919050565b60006020820190508181036000830152611aac81611a70565b9050919050565b6000608082019050611ac86000830187611364565b611ad5602083018661133a565b611ae26040830185611364565b611aef606083018461133a565b9594505050505056fea264697066735822122012b9fe89244c09abd999eec63c6d326b6a8ab39bf3f879b502bcbfa078790ee564736f6c634300081c0033",
  "linkReferences": {},
  "deployedLinkReferences": {}
}