{
  "_format": "hh-sol-artifact-1",
  "contractName": "TokenPool",
  "sourceName": "contracts/TokenPool.sol",
  "abi": [
    {
      "inputs": [
        {
          "internalType": "address",
          "name": "_cepToken",
          "type": "address"
        },
        {
          "internalType": "address",
          "name": "_lnxToken",
          "type": "address"
        }
      ],
      "stateMutability": "nonpayable",
      "type": "constructor"
    },
    {
      "inputs": [],
      "name": "cepToken",
      "outputs": [
        {
          "internalType": "contract IERC20",
          "name": "",
          "type": "address"
        }
      ],
      "stateMutability": "view",
      "type": "function"
    },
    {
      "inputs": [
        {
          "internalType": "uint256",
          "name": "cepAmount",
          "type": "uint256"
        },
        {
          "internalType": "uint256",
          "name": "lnxAmount",
          "type": "uint256"
        }
      ],
      "name": "depositTokens",
      "outputs": [],
      "stateMutability": "nonpayable",
      "type": "function"
    },
    {
      "inputs": [],
      "name": "getReserves",
      "outputs": [
        {
          "internalType": "uint256",
          "name": "cepReserve",
          "type": "uint256"
        },
        {
          "internalType": "uint256",
          "name": "lnxReserve",
          "type": "uint256"
        }
      ],
      "stateMutability": "view",
      "type": "function"
    },
    {
      "inputs": [],
      "name": "lnxToken",
      "outputs": [
        {
          "internalType": "contract IERC20",
          "name": "",
          "type": "address"
        }
      ],
      "stateMutability": "view",
      "type": "function"
    },
    {
      "inputs": [],
      "name": "owner",
      "outputs": [
        {
          "internalType": "address",
          "name": "",
          "type": "address"
        }
      ],
      "stateMutability": "view",
      "type": "function"
    },
    {
      "inputs": [
        {
          "internalType": "uint256",
          "name": "cepAmount",
          "type": "uint256"
        },
        {
          "internalType": "uint256",
          "name": "lnxAmount",
          "type": "uint256"
        }
      ],
      "name": "withdrawTokens",
      "outputs": [],
      "stateMutability": "nonpayable",
      "type": "function"
    }
  ],
  "bytecode": "0x608060405234801561001057600080fd5b50604051610e0d380380610e0d8339818101604052810190610032919061015e565b816000806101000a81548173ffffffffffffffffffffffffffffffffffffffff021916908373ffffffffffffffffffffffffffffffffffffffff16021790555080600160006101000a81548173ffffffffffffffffffffffffffffffffffffffff021916908373ffffffffffffffffffffffffffffffffffffffff16021790555033600260006101000a81548173ffffffffffffffffffffffffffffffffffffffff021916908373ffffffffffffffffffffffffffffffffffffffff160217905550505061019e565b600080fd5b600073ffffffffffffffffffffffffffffffffffffffff82169050919050565b600061012b82610100565b9050919050565b61013b81610120565b811461014657600080fd5b50565b60008151905061015881610132565b92915050565b60008060408385031215610175576101746100fb565b5b600061018385828601610149565b925050602061019485828601610149565b9150509250929050565b610c60806101ad6000396000f3fe608060405234801561001057600080fd5b50600436106100625760003560e01c806301d8c71a146100675780630902f1ac1461008557806377c5ac4c146100a45780638da5cb5b146100c2578063ba7bd2aa146100e0578063f16ad51e146100fc575b600080fd5b61006f610118565b60405161007c91906107ec565b60405180910390f35b61008d61013e565b60405161009b929190610820565b60405180910390f35b6100ac61027f565b6040516100b991906107ec565b60405180910390f35b6100ca6102a3565b6040516100d7919061086a565b60405180910390f35b6100fa60048036038101906100f591906108b6565b6102c9565b005b610116600480360381019061011191906108b6565b610519565b005b600160009054906101000a900473ffffffffffffffffffffffffffffffffffffffff1681565b60008060008054906101000a900473ffffffffffffffffffffffffffffffffffffffff1673ffffffffffffffffffffffffffffffffffffffff166370a08231306040518263ffffffff1660e01b815260040161019a919061086a565b602060405180830381865afa1580156101b7573d6000803e3d6000fd5b505050506040513d601f19601f820116820180604052508101906101db919061090b565b600160009054906101000a900473ffffffffffffffffffffffffffffffffffffffff1673ffffffffffffffffffffffffffffffffffffffff166370a08231306040518263ffffffff1660e01b8152600401610236919061086a565b602060405180830381865afa158015610253573d6000803e3d6000fd5b505050506040513d601f19601f82011682018060405250810190610277919061090b565b915091509091565b60008054906101000a900473ffffffffffffffffffffffffffffffffffffffff1681565b600260009054906101000a900473ffffffffffffffffffffffffffffffffffffffff1681565b600260009054906101000a900473ffffffffffffffffffffffffffffffffffffffff1673ffffffffffffffffffffffffffffffffffffffff163373ffffffffffffffffffffffffffffffffffffffff1614610359576040517f08c379a000000000000000000000000000000000000000000000000000000000815260040161035090610995565b60405180910390fd5b60008054906101000a900473ffffffffffffffffffffffffffffffffffffffff1673ffffffffffffffffffffffffffffffffffffffff1663a9059cbb33846040518363ffffffff1660e01b81526004016103b49291906109b5565b6020604051808303816000875af11580156103d3573d6000803e3d6000fd5b505050506040513d601f19601f820116820180604052508101906103f79190610a16565b610436576040517f08c379a000000000000000000000000000000000000000000000000000000000815260040161042d90610a8f565b60405180910390fd5b600160009054906101000a900473ffffffffffffffffffffffffffffffffffffffff1673ffffffffffffffffffffffffffffffffffffffff1663a9059cbb33836040518363ffffffff1660e01b81526004016104939291906109b5565b6020604051808303816000875af11580156104b2573d6000803e3d6000fd5b505050506040513d601f19601f820116820180604052508101906104d69190610a16565b610515576040517f08c379a000000000000000000000000000000000000000000000000000000000815260040161050c90610afb565b60405180910390fd5b5050565b600260009054906101000a900473ffffffffffffffffffffffffffffffffffffffff1673ffffffffffffffffffffffffffffffffffffffff163373ffffffffffffffffffffffffffffffffffffffff16146105a9576040517f08c379a00000000000000000000000000000000000000000000000000000000081526004016105a090610995565b60405180910390fd5b60008054906101000a900473ffffffffffffffffffffffffffffffffffffffff1673ffffffffffffffffffffffffffffffffffffffff166323b872dd3330856040518463ffffffff1660e01b815260040161060693929190610b1b565b6020604051808303816000875af1158015610625573d6000803e3d6000fd5b505050506040513d601f19601f820116820180604052508101906106499190610a16565b610688576040517f08c379a000000000000000000000000000000000000000000000000000000000815260040161067f90610b9e565b60405180910390fd5b600160009054906101000a900473ffffffffffffffffffffffffffffffffffffffff1673ffffffffffffffffffffffffffffffffffffffff166323b872dd3330846040518463ffffffff1660e01b81526004016106e793929190610b1b565b6020604051808303816000875af1158015610706573d6000803e3d6000fd5b505050506040513d601f19601f8201168201806040525081019061072a9190610a16565b610769576040517f08c379a000000000000000000000000000000000000000000000000000000000815260040161076090610c0a565b60405180910390fd5b5050565b600073ffffffffffffffffffffffffffffffffffffffff82169050919050565b6000819050919050565b60006107b26107ad6107a88461076d565b61078d565b61076d565b9050919050565b60006107c482610797565b9050919050565b60006107d6826107b9565b9050919050565b6107e6816107cb565b82525050565b600060208201905061080160008301846107dd565b92915050565b6000819050919050565b61081a81610807565b82525050565b60006040820190506108356000830185610811565b6108426020830184610811565b9392505050565b60006108548261076d565b9050919050565b61086481610849565b82525050565b600060208201905061087f600083018461085b565b92915050565b600080fd5b61089381610807565b811461089e57600080fd5b50565b6000813590506108b08161088a565b92915050565b600080604083850312156108cd576108cc610885565b5b60006108db858286016108a1565b92505060206108ec858286016108a1565b9150509250929050565b6000815190506109058161088a565b92915050565b60006020828403121561092157610920610885565b5b600061092f848285016108f6565b91505092915050565b600082825260208201905092915050565b7f4e6f7420636f6e7472616374206f776e65720000000000000000000000000000600082015250565b600061097f601283610938565b915061098a82610949565b602082019050919050565b600060208201905081810360008301526109ae81610972565b9050919050565b60006040820190506109ca600083018561085b565b6109d76020830184610811565b9392505050565b60008115159050919050565b6109f3816109de565b81146109fe57600080fd5b50565b600081519050610a10816109ea565b92915050565b600060208284031215610a2c57610a2b610885565b5b6000610a3a84828501610a01565b91505092915050565b7f576974686472617720434550206661696c656400000000000000000000000000600082015250565b6000610a79601383610938565b9150610a8482610a43565b602082019050919050565b60006020820190508181036000830152610aa881610a6c565b9050919050565b7f5769746864726177204c4e58206661696c656400000000000000000000000000600082015250565b6000610ae5601383610938565b9150610af082610aaf565b602082019050919050565b60006020820190508181036000830152610b1481610ad8565b9050919050565b6000606082019050610b30600083018661085b565b610b3d602083018561085b565b610b4a6040830184610811565b949350505050565b7f4465706f73697420434550206661696c65640000000000000000000000000000600082015250565b6000610b88601283610938565b9150610b9382610b52565b602082019050919050565b60006020820190508181036000830152610bb781610b7b565b9050919050565b7f4465706f736974204c4e58206661696c65640000000000000000000000000000600082015250565b6000610bf4601283610938565b9150610bff82610bbe565b602082019050919050565b60006020820190508181036000830152610c2381610be7565b905091905056fea2646970667358221220e390dcff00a6f5796fa4348cdccd530e4b7e272d3c5771bee5e6004dd1e7f00764736f6c634300081c0033",
  "linkReferences": {},
  "deployedLinkReferences": {}
}