{
  "_format": "hh-sol-artifact-1",
  "contractName": "PriceFeed",
  "sourceName": "contracts/PriceFeed.sol",
  "abi": [
    {
      "inputs": [],
      "stateMutability": "nonpayable",
      "type": "constructor"
    },
    {
      "inputs": [],
      "name": "getLatestBtcPrice",
      "outputs": [
        {
          "internalType": "int256",
          "name": "",
          "type": "int256"
        }
      ],
      "stateMutability": "view",
      "type": "function"
    },
    {
      "inputs": [],
      "name": "getLatestDaiPrice",
      "outputs": [
        {
          "internalType": "int256",
          "name": "",
          "type": "int256"
        }
      ],
      "stateMutability": "view",
      "type": "function"
    },
    {
      "inputs": [],
      "name": "getLatestEthPrice",
      "outputs": [
        {
          "internalType": "int256",
          "name": "",
          "type": "int256"
        }
      ],
      "stateMutability": "view",
      "type": "function"
    },
    {
      "inputs": [],
      "name": "getLatestLinkPrice",
      "outputs": [
        {
          "internalType": "int256",
          "name": "",
          "type": "int256"
        }
      ],
      "stateMutability": "view",
      "type": "function"
    }
  ],
  "bytecode": "0x608060405234801561001057600080fd5b5073694aa1769357215de4fac081bf1f309adc3253066000806101000a81548173ffffffffffffffffffffffffffffffffffffffff021916908373ffffffffffffffffffffffffffffffffffffffff160217905550731b44f3514812d835eb1bdb0acb33d3fa3351ee43600160006101000a81548173ffffffffffffffffffffffffffffffffffffffff021916908373ffffffffffffffffffffffffffffffffffffffff1602179055507314866185b1962b63c3ea9e03bc1da838bab34c19600260006101000a81548173ffffffffffffffffffffffffffffffffffffffff021916908373ffffffffffffffffffffffffffffffffffffffff16021790555073c59e3633baac79493d908e63626716e204a45edf600360006101000a81548173ffffffffffffffffffffffffffffffffffffffff021916908373ffffffffffffffffffffffffffffffffffffffff1602179055506104d9806101736000396000f3fe608060405234801561001057600080fd5b506004361061004c5760003560e01c806330c0b9ec14610051578063759a6ab21461006f5780637b9629db1461008d578063f5512459146100ab575b600080fd5b6100596100c9565b6040516100669190610364565b60405180910390f35b610077610168565b6040516100849190610364565b60405180910390f35b610095610209565b6040516100a29190610364565b60405180910390f35b6100b36102aa565b6040516100c09190610364565b60405180910390f35b60008060008054906101000a900473ffffffffffffffffffffffffffffffffffffffff1673ffffffffffffffffffffffffffffffffffffffff1663feaf968c6040518163ffffffff1660e01b815260040160a060405180830381865afa158015610137573d6000803e3d6000fd5b505050506040513d601f19601f8201168201806040525081019061015b9190610428565b5050509150508091505090565b600080600360009054906101000a900473ffffffffffffffffffffffffffffffffffffffff1673ffffffffffffffffffffffffffffffffffffffff1663feaf968c6040518163ffffffff1660e01b815260040160a060405180830381865afa1580156101d8573d6000803e3d6000fd5b505050506040513d601f19601f820116820180604052508101906101fc9190610428565b5050509150508091505090565b600080600160009054906101000a900473ffffffffffffffffffffffffffffffffffffffff1673ffffffffffffffffffffffffffffffffffffffff1663feaf968c6040518163ffffffff1660e01b815260040160a060405180830381865afa158015610279573d6000803e3d6000fd5b505050506040513d601f19601f8201168201806040525081019061029d9190610428565b5050509150508091505090565b600080600260009054906101000a900473ffffffffffffffffffffffffffffffffffffffff1673ffffffffffffffffffffffffffffffffffffffff1663feaf968c6040518163ffffffff1660e01b815260040160a060405180830381865afa15801561031a573d6000803e3d6000fd5b505050506040513d601f19601f8201168201806040525081019061033e9190610428565b5050509150508091505090565b6000819050919050565b61035e8161034b565b82525050565b60006020820190506103796000830184610355565b92915050565b600080fd5b600069ffffffffffffffffffff82169050919050565b6103a381610384565b81146103ae57600080fd5b50565b6000815190506103c08161039a565b92915050565b6103cf8161034b565b81146103da57600080fd5b50565b6000815190506103ec816103c6565b92915050565b6000819050919050565b610405816103f2565b811461041057600080fd5b50565b600081519050610422816103fc565b92915050565b600080600080600060a086880312156104445761044361037f565b5b6000610452888289016103b1565b9550506020610463888289016103dd565b945050604061047488828901610413565b935050606061048588828901610413565b9250506080610496888289016103b1565b915050929550929590935056fea26469706673582212207f57bfc99165faf2f59851d54a9e571e1be2f3025f5a04547514652e2e8791a264736f6c634300081c0033",
  "linkReferences": {},
  "deployedLinkReferences": {}
}