{
  "_format": "hh-sol-artifact-1",
  "contractName": "SendETH",
  "sourceName": "contracts/SendETH.sol",
  "abi": [
    {
      "anonymous": false,
      "inputs": [
        {
          "indexed": false,
          "internalType": "address",
          "name": "from",
          "type": "address"
        },
        {
          "indexed": false,
          "internalType": "address",
          "name": "to",
          "type": "address"
        },
        {
          "indexed": false,
          "internalType": "uint256",
          "name": "amount",
          "type": "uint256"
        }
      ],
      "name": "Sent",
      "type": "event"
    },
    {
      "inputs": [
        {
          "internalType": "address payable",
          "name": "_to",
          "type": "address"
        }
      ],
      "name": "sendETH",
      "outputs": [],
      "stateMutability": "payable",
      "type": "function"
    }
  ],
  "bytecode": "0x6080604052348015600f57600080fd5b5061031a8061001f6000396000f3fe60806040526004361061001e5760003560e01c806321b1e5f814610023575b600080fd5b61003d6004803603810190610038919061016a565b61003f565b005b60003411610082576040517f08c379a0000000000000000000000000000000000000000000000000000000008152600401610079906101f4565b60405180910390fd5b8073ffffffffffffffffffffffffffffffffffffffff166108fc349081150290604051600060405180830381858888f193505050501580156100c8573d6000803e3d6000fd5b507f3990db2d31862302a685e8086b5755072a6e2b5b780af1ee81ece35ee3cd33453382346040516100fc939291906102ad565b60405180910390a150565b600080fd5b600073ffffffffffffffffffffffffffffffffffffffff82169050919050565b60006101378261010c565b9050919050565b6101478161012c565b811461015257600080fd5b50565b6000813590506101648161013e565b92915050565b6000602082840312156101805761017f610107565b5b600061018e84828501610155565b91505092915050565b600082825260208201905092915050565b7f53656e6420736f6d652045544800000000000000000000000000000000000000600082015250565b60006101de600d83610197565b91506101e9826101a8565b602082019050919050565b6000602082019050818103600083015261020d816101d1565b9050919050565b600061021f8261010c565b9050919050565b61022f81610214565b82525050565b6000819050919050565b600061025a6102556102508461010c565b610235565b61010c565b9050919050565b600061026c8261023f565b9050919050565b600061027e82610261565b9050919050565b61028e81610273565b82525050565b6000819050919050565b6102a781610294565b82525050565b60006060820190506102c26000830186610226565b6102cf6020830185610285565b6102dc604083018461029e565b94935050505056fea2646970667358221220b9cac5db749e28d557b06523daeb9161d53c8579b4af3077180a9c69011f29b764736f6c634300081c0033",
  "linkReferences": {},
  "deployedLinkReferences": {}
}