{
  "_format": "hh-sol-artifact-1",
  "contractName": "CreeperMarketplace",
  "sourceName": "contracts/CreeperMarketPlace.sol",
  "abi": [
    {
      "inputs": [],
      "stateMutability": "nonpayable",
      "type": "constructor"
    },
    {
      "inputs": [],
      "name": "ReentrancyGuardReentrantCall",
      "type": "error"
    },
    {
      "anonymous": false,
      "inputs": [
        {
          "indexed": false,
          "internalType": "string",
          "name": "message",
          "type": "string"
        },
        {
          "indexed": false,
          "internalType": "uint256",
          "name": "value",
          "type": "uint256"
        },
        {
          "indexed": false,
          "internalType": "address",
          "name": "addr",
          "type": "address"
        }
      ],
      "name": "DebugLog",
      "type": "event"
    },
    {
      "anonymous": false,
      "inputs": [
        {
          "indexed": true,
          "internalType": "uint256",
          "name": "itemId",
          "type": "uint256"
        },
        {
          "indexed": true,
          "internalType": "address",
          "name": "nftContract",
          "type": "address"
        },
        {
          "indexed": true,
          "internalType": "uint256",
          "name": "tokenId",
          "type": "uint256"
        },
        {
          "indexed": false,
          "internalType": "address",
          "name": "seller",
          "type": "address"
        },
        {
          "indexed": false,
          "internalType": "address",
          "name": "owner",
          "type": "address"
        },
        {
          "indexed": false,
          "internalType": "uint256",
          "name": "price",
          "type": "uint256"
        },
        {
          "indexed": false,
          "internalType": "bool",
          "name": "sold",
          "type": "bool"
        }
      ],
      "name": "MarketplaceItemCreated",
      "type": "event"
    },
    {
      "inputs": [
        {
          "internalType": "address",
          "name": "nftContract",
          "type": "address"
        },
        {
          "internalType": "uint256",
          "name": "tokenId",
          "type": "uint256"
        },
        {
          "internalType": "uint256",
          "name": "price",
          "type": "uint256"
        }
      ],
      "name": "createMarketplaceItem",
      "outputs": [],
      "stateMutability": "payable",
      "type": "function"
    },
    {
      "inputs": [
        {
          "internalType": "address",
          "name": "nftContract",
          "type": "address"
        },
        {
          "internalType": "uint256",
          "name": "itemId",
          "type": "uint256"
        }
      ],
      "name": "createMarketplaceSale",
      "outputs": [],
      "stateMutability": "payable",
      "type": "function"
    },
    {
      "inputs": [],
      "name": "fetchItemsCreated",
      "outputs": [
        {
          "components": [
            {
              "internalType": "uint256",
              "name": "itemId",
              "type": "uint256"
            },
            {
              "internalType": "address",
              "name": "nftContract",
              "type": "address"
            },
            {
              "internalType": "uint256",
              "name": "tokenId",
              "type": "uint256"
            },
            {
              "internalType": "address payable",
              "name": "seller",
              "type": "address"
            },
            {
              "internalType": "address payable",
              "name": "owner",
              "type": "address"
            },
            {
              "internalType": "uint256",
              "name": "price",
              "type": "uint256"
            },
            {
              "internalType": "bool",
              "name": "sold",
              "type": "bool"
            }
          ],
          "internalType": "struct CreeperMarketplace.MarketplaceItem[]",
          "name": "",
          "type": "tuple[]"
        }
      ],
      "stateMutability": "view",
      "type": "function"
    },
    {
      "inputs": [],
      "name": "fetchMarketplaceItems",
      "outputs": [
        {
          "components": [
            {
              "internalType": "uint256",
              "name": "itemId",
              "type": "uint256"
            },
            {
              "internalType": "address",
              "name": "nftContract",
              "type": "address"
            },
            {
              "internalType": "uint256",
              "name": "tokenId",
              "type": "uint256"
            },
            {
              "internalType": "address payable",
              "name": "seller",
              "type": "address"
            },
            {
              "internalType": "address payable",
              "name": "owner",
              "type": "address"
            },
            {
              "internalType": "uint256",
              "name": "price",
              "type": "uint256"
            },
            {
              "internalType": "bool",
              "name": "sold",
              "type": "bool"
            }
          ],
          "internalType": "struct CreeperMarketplace.MarketplaceItem[]",
          "name": "",
          "type": "tuple[]"
        }
      ],
      "stateMutability": "view",
      "type": "function"
    },
    {
      "inputs": [],
      "name": "fetchMyNFTs",
      "outputs": [
        {
          "components": [
            {
              "internalType": "uint256",
              "name": "itemId",
              "type": "uint256"
            },
            {
              "internalType": "address",
              "name": "nftContract",
              "type": "address"
            },
            {
              "internalType": "uint256",
              "name": "tokenId",
              "type": "uint256"
            },
            {
              "internalType": "address payable",
              "name": "seller",
              "type": "address"
            },
            {
              "internalType": "address payable",
              "name": "owner",
              "type": "address"
            },
            {
              "internalType": "uint256",
              "name": "price",
              "type": "uint256"
            },
            {
              "internalType": "bool",
              "name": "sold",
              "type": "bool"
            }
          ],
          "internalType": "struct CreeperMarketplace.MarketplaceItem[]",
          "name": "",
          "type": "tuple[]"
        }
      ],
      "stateMutability": "view",
      "type": "function"
    },
    {
      "inputs": [],
      "name": "getListingPrice",
      "outputs": [
        {
          "internalType": "uint256",
          "name": "",
          "type": "uint256"
        }
      ],
      "stateMutability": "view",
      "type": "function"
    },
    {
      "inputs": [
        {
          "internalType": "address",
          "name": "nftContract",
          "type": "address"
        },
        {
          "internalType": "uint256",
          "name": "tokenId",
          "type": "uint256"
        }
      ],
      "name": "getNFTListingPrice",
      "outputs": [
        {
          "internalType": "uint256",
          "name": "",
          "type": "uint256"
        }
      ],
      "stateMutability": "view",
      "type": "function"
    },
    {
      "inputs": [],
      "name": "withdrawFees",
      "outputs": [],
      "stateMutability": "nonpayable",
      "type": "function"
    },
    {
      "inputs": [
        {
          "internalType": "address",
          "name": "nftContract",
          "type": "address"
        },
        {
          "internalType": "uint256",
          "name": "itemId",
          "type": "uint256"
        }
      ],
      "name": "withdrawListing",
      "outputs": [],
      "stateMutability": "nonpayable",
      "type": "function"
    }
  ],
  "bytecode": "0x608060405266038d7ea4c68000600455348015601a57600080fd5b50600160008190555033600360006101000a81548173ffffffffffffffffffffffffffffffffffffffff021916908373ffffffffffffffffffffffffffffffffffffffff160217905550612b03806100736000396000f3fe6080604052600436106100855760003560e01c8063202e374011610059578063202e37401461012557806334c64ae414610150578063476343ee1461018d578063bf4892bb146101a4578063f064c32e146101c057610085565b8062a672921461008a57806301ae591a146100b357806305ae31e4146100de57806312e85585146100fa575b600080fd5b34801561009657600080fd5b506100b160048036038101906100ac9190611c0c565b6101eb565b005b3480156100bf57600080fd5b506100c861056e565b6040516100d59190611de3565b60405180910390f35b6100f860048036038101906100f39190611e05565b61081b565b005b34801561010657600080fd5b5061010f610b8e565b60405161011c9190611e67565b60405180910390f35b34801561013157600080fd5b5061013a610b98565b6040516101479190611de3565b60405180910390f35b34801561015c57600080fd5b5061017760048036038101906101729190611c0c565b610ed8565b6040516101849190611e67565b60405180910390f35b34801561019957600080fd5b506101a2610f91565b005b6101be60048036038101906101b99190611c0c565b61108c565b005b3480156101cc57600080fd5b506101d561173e565b6040516101e29190611de3565b60405180910390f35b6101f3611a7e565b6000600560008381526020019081526020016000209050600015158160060160009054906101000a900460ff16151514610262576040517f08c379a000000000000000000000000000000000000000000000000000000000815260040161025990611edf565b60405180910390fd5b3373ffffffffffffffffffffffffffffffffffffffff168160030160009054906101000a900473ffffffffffffffffffffffffffffffffffffffff1673ffffffffffffffffffffffffffffffffffffffff16146102f4576040517f08c379a00000000000000000000000000000000000000000000000000000000081526004016102eb90611f4b565b60405180910390fd5b3073ffffffffffffffffffffffffffffffffffffffff168373ffffffffffffffffffffffffffffffffffffffff16636352211e83600201546040518263ffffffff1660e01b81526004016103489190611e67565b602060405180830381865afa158015610365573d6000803e3d6000fd5b505050506040513d601f19601f820116820180604052508101906103899190611f80565b73ffffffffffffffffffffffffffffffffffffffff16146103df576040517f08c379a00000000000000000000000000000000000000000000000000000000081526004016103d69061201f565b60405180910390fd5b600560008381526020019081526020016000206000808201600090556001820160006101000a81549073ffffffffffffffffffffffffffffffffffffffff021916905560028201600090556003820160006101000a81549073ffffffffffffffffffffffffffffffffffffffff02191690556004820160006101000a81549073ffffffffffffffffffffffffffffffffffffffff021916905560058201600090556006820160006101000a81549060ff02191690555050600660008473ffffffffffffffffffffffffffffffffffffffff1673ffffffffffffffffffffffffffffffffffffffff168152602001908152602001600020600082600201548152602001908152602001600020600090558273ffffffffffffffffffffffffffffffffffffffff166323b872dd303384600201546040518463ffffffff1660e01b815260040161052f9392919061204e565b600060405180830381600087803b15801561054957600080fd5b505af115801561055d573d6000803e3d6000fd5b505050505061056a611ac4565b5050565b6060600061057c6001611ace565b9050600061058a6002611ace565b6105946001611ace565b61059e91906120b4565b90506000808267ffffffffffffffff8111156105bd576105bc6120e8565b5b6040519080825280602002602001820160405280156105f657816020015b6105e3611af2565b8152602001906001900390816105db5790505b5090506000600190505b84811161081057600073ffffffffffffffffffffffffffffffffffffffff166005600083815260200190815260200160002060040160009054906101000a900473ffffffffffffffffffffffffffffffffffffffff1673ffffffffffffffffffffffffffffffffffffffff16036107fd576000600560008381526020019081526020016000209050806040518060e0016040529081600082015481526020016001820160009054906101000a900473ffffffffffffffffffffffffffffffffffffffff1673ffffffffffffffffffffffffffffffffffffffff1673ffffffffffffffffffffffffffffffffffffffff168152602001600282015481526020016003820160009054906101000a900473ffffffffffffffffffffffffffffffffffffffff1673ffffffffffffffffffffffffffffffffffffffff1673ffffffffffffffffffffffffffffffffffffffff1681526020016004820160009054906101000a900473ffffffffffffffffffffffffffffffffffffffff1673ffffffffffffffffffffffffffffffffffffffff1673ffffffffffffffffffffffffffffffffffffffff168152602001600582015481526020016006820160009054906101000a900460ff1615151515815250508385815181106107e2576107e1612117565b5b602002602001018190525083806107f890612146565b945050505b808061080890612146565b915050610600565b508094505050505090565b610823611a7e565b60008111610866576040517f08c379a000000000000000000000000000000000000000000000000000000000815260040161085d906121da565b60405180910390fd5b60045434146108aa576040517f08c379a00000000000000000000000000000000000000000000000000000000081526004016108a19061226c565b60405180910390fd5b6108b46001611adc565b60006108c06001611ace565b90506040518060e001604052808281526020018573ffffffffffffffffffffffffffffffffffffffff1681526020018481526020013373ffffffffffffffffffffffffffffffffffffffff168152602001600073ffffffffffffffffffffffffffffffffffffffff16815260200183815260200160001515815250600560008381526020019081526020016000206000820151816000015560208201518160010160006101000a81548173ffffffffffffffffffffffffffffffffffffffff021916908373ffffffffffffffffffffffffffffffffffffffff1602179055506040820151816002015560608201518160030160006101000a81548173ffffffffffffffffffffffffffffffffffffffff021916908373ffffffffffffffffffffffffffffffffffffffff16021790555060808201518160040160006101000a81548173ffffffffffffffffffffffffffffffffffffffff021916908373ffffffffffffffffffffffffffffffffffffffff16021790555060a0820151816005015560c08201518160060160006101000a81548160ff02191690831515021790555090505080600660008673ffffffffffffffffffffffffffffffffffffffff1673ffffffffffffffffffffffffffffffffffffffff1681526020019081526020016000206000858152602001908152602001600020819055508373ffffffffffffffffffffffffffffffffffffffff166323b872dd3330866040518463ffffffff1660e01b8152600401610af69392919061204e565b600060405180830381600087803b158015610b1057600080fd5b505af1158015610b24573d6000803e3d6000fd5b50505050828473ffffffffffffffffffffffffffffffffffffffff16827f77c313154b797ac3eb630bba7605410c9aed6942c3f1860d362056bb90fcd74e336000876000604051610b78949392919061229b565b60405180910390a450610b89611ac4565b505050565b6000600454905090565b60606000610ba66001611ace565b905060008060005b83811015610c48573373ffffffffffffffffffffffffffffffffffffffff1660056000600184610bde91906122e0565b815260200190815260200160002060040160009054906101000a900473ffffffffffffffffffffffffffffffffffffffff1673ffffffffffffffffffffffffffffffffffffffff1603610c3b57600183610c3891906122e0565b92505b8080600101915050610bae565b5060008267ffffffffffffffff811115610c6557610c646120e8565b5b604051908082528060200260200182016040528015610c9e57816020015b610c8b611af2565b815260200190600190039081610c835790505b50905060005b84811015610ecd573373ffffffffffffffffffffffffffffffffffffffff1660056000600184610cd491906122e0565b815260200190815260200160002060040160009054906101000a900473ffffffffffffffffffffffffffffffffffffffff1673ffffffffffffffffffffffffffffffffffffffff1603610ec0576000600182610d3091906122e0565b90506000600560008381526020019081526020016000209050806040518060e0016040529081600082015481526020016001820160009054906101000a900473ffffffffffffffffffffffffffffffffffffffff1673ffffffffffffffffffffffffffffffffffffffff1673ffffffffffffffffffffffffffffffffffffffff168152602001600282015481526020016003820160009054906101000a900473ffffffffffffffffffffffffffffffffffffffff1673ffffffffffffffffffffffffffffffffffffffff1673ffffffffffffffffffffffffffffffffffffffff1681526020016004820160009054906101000a900473ffffffffffffffffffffffffffffffffffffffff1673ffffffffffffffffffffffffffffffffffffffff1673ffffffffffffffffffffffffffffffffffffffff168152602001600582015481526020016006820160009054906101000a900460ff161515151581525050848681518110610ea357610ea2612117565b5b6020026020010181905250600185610ebb91906122e0565b945050505b8080600101915050610ca4565b508094505050505090565b600080600660008573ffffffffffffffffffffffffffffffffffffffff1673ffffffffffffffffffffffffffffffffffffffff168152602001908152602001600020600084815260200190815260200160002054905060008111610f71576040517f08c379a0000000000000000000000000000000000000000000000000000000008152600401610f6890612360565b60405180910390fd5b600560008281526020019081526020016000206005015491505092915050565b600360009054906101000a900473ffffffffffffffffffffffffffffffffffffffff1673ffffffffffffffffffffffffffffffffffffffff163373ffffffffffffffffffffffffffffffffffffffff1614611021576040517f08c379a0000000000000000000000000000000000000000000000000000000008152600401611018906123f2565b60405180910390fd5b600360009054906101000a900473ffffffffffffffffffffffffffffffffffffffff1673ffffffffffffffffffffffffffffffffffffffff166108fc479081150290604051600060405180830381858888f19350505050158015611089573d6000803e3d6000fd5b50565b611094611a7e565b6000600560008381526020019081526020016000206005015490506000600560008481526020019081526020016000206002015490507fe4a22e7fa81f1f9d37485b7c2f7cf03c62ee8ad83d8aab3734d60f57e37d290b83336040516110fb92919061245e565b60405180910390a1600015156005600085815260200190815260200160002060060160009054906101000a900460ff1615151461116d576040517f08c379a000000000000000000000000000000000000000000000000000000000815260040161116490611edf565b60405180910390fd5b7fe4a22e7fa81f1f9d37485b7c2f7cf03c62ee8ad83d8aab3734d60f57e37d290b343360405161119e9291906124e6565b60405180910390a18134146111e8576040517f08c379a00000000000000000000000000000000000000000000000000000000081526004016111df90612594565b60405180910390fd5b7fe4a22e7fa81f1f9d37485b7c2f7cf03c62ee8ad83d8aab3734d60f57e37d290b8130604051611219929190612600565b60405180910390a13073ffffffffffffffffffffffffffffffffffffffff168473ffffffffffffffffffffffffffffffffffffffff16636352211e836040518263ffffffff1660e01b81526004016112719190611e67565b602060405180830381865afa15801561128e573d6000803e3d6000fd5b505050506040513d601f19601f820116820180604052508101906112b29190611f80565b73ffffffffffffffffffffffffffffffffffffffff1614611308576040517f08c379a00000000000000000000000000000000000000000000000000000000081526004016112ff90612688565b60405180910390fd5b7fe4a22e7fa81f1f9d37485b7c2f7cf03c62ee8ad83d8aab3734d60f57e37d290b346005600086815260200190815260200160002060030160009054906101000a900473ffffffffffffffffffffffffffffffffffffffff1660405161136f929190612753565b60405180910390a160006005600085815260200190815260200160002060030160009054906101000a900473ffffffffffffffffffffffffffffffffffffffff1673ffffffffffffffffffffffffffffffffffffffff16346040516113d3906127c0565b60006040518083038185875af1925050503d8060008114611410576040519150601f19603f3d011682016040523d82523d6000602084013e611415565b606091505b5050905080611459576040517f08c379a000000000000000000000000000000000000000000000000000000000815260040161145090612821565b60405180910390fd5b7fe4a22e7fa81f1f9d37485b7c2f7cf03c62ee8ad83d8aab3734d60f57e37d290b823360405161148a92919061288d565b60405180910390a1336005600086815260200190815260200160002060040160006101000a81548173ffffffffffffffffffffffffffffffffffffffff021916908373ffffffffffffffffffffffffffffffffffffffff16021790555060016005600086815260200190815260200160002060060160006101000a81548160ff0219169083151502179055506115206002611adc565b7fe4a22e7fa81f1f9d37485b7c2f7cf03c62ee8ad83d8aab3734d60f57e37d290b600454600360009054906101000a900473ffffffffffffffffffffffffffffffffffffffff16604051611575929190612915565b60405180910390a16000600360009054906101000a900473ffffffffffffffffffffffffffffffffffffffff1673ffffffffffffffffffffffffffffffffffffffff166004546040516115c7906127c0565b60006040518083038185875af1925050503d8060008114611604576040519150601f19603f3d011682016040523d82523d6000602084013e611609565b606091505b505090508061164d576040517f08c379a00000000000000000000000000000000000000000000000000000000081526004016116449061299d565b60405180910390fd5b7fe4a22e7fa81f1f9d37485b7c2f7cf03c62ee8ad83d8aab3734d60f57e37d290b833360405161167e929190612a09565b60405180910390a18573ffffffffffffffffffffffffffffffffffffffff166323b872dd3033866040518463ffffffff1660e01b81526004016116c39392919061204e565b600060405180830381600087803b1580156116dd57600080fd5b505af11580156116f1573d6000803e3d6000fd5b505050507fe4a22e7fa81f1f9d37485b7c2f7cf03c62ee8ad83d8aab3734d60f57e37d290b8333604051611726929190612a91565b60405180910390a15050505061173a611ac4565b5050565b6060600061174c6001611ace565b905060008060005b838110156117ee573373ffffffffffffffffffffffffffffffffffffffff166005600060018461178491906122e0565b815260200190815260200160002060030160009054906101000a900473ffffffffffffffffffffffffffffffffffffffff1673ffffffffffffffffffffffffffffffffffffffff16036117e1576001836117de91906122e0565b92505b8080600101915050611754565b5060008267ffffffffffffffff81111561180b5761180a6120e8565b5b60405190808252806020026020018201604052801561184457816020015b611831611af2565b8152602001906001900390816118295790505b50905060005b84811015611a73573373ffffffffffffffffffffffffffffffffffffffff166005600060018461187a91906122e0565b815260200190815260200160002060030160009054906101000a900473ffffffffffffffffffffffffffffffffffffffff1673ffffffffffffffffffffffffffffffffffffffff1603611a665760006001826118d691906122e0565b90506000600560008381526020019081526020016000209050806040518060e0016040529081600082015481526020016001820160009054906101000a900473ffffffffffffffffffffffffffffffffffffffff1673ffffffffffffffffffffffffffffffffffffffff1673ffffffffffffffffffffffffffffffffffffffff168152602001600282015481526020016003820160009054906101000a900473ffffffffffffffffffffffffffffffffffffffff1673ffffffffffffffffffffffffffffffffffffffff1673ffffffffffffffffffffffffffffffffffffffff1681526020016004820160009054906101000a900473ffffffffffffffffffffffffffffffffffffffff1673ffffffffffffffffffffffffffffffffffffffff1673ffffffffffffffffffffffffffffffffffffffff168152602001600582015481526020016006820160009054906101000a900460ff161515151581525050848681518110611a4957611a48612117565b5b6020026020010181905250600185611a6191906122e0565b945050505b808060010191505061184a565b508094505050505090565b600260005403611aba576040517f3ee5aeb500000000000000000000000000000000000000000000000000000000815260040160405180910390fd5b6002600081905550565b6001600081905550565b600081600001549050919050565b6001816000016000828254019250508190555050565b6040518060e0016040528060008152602001600073ffffffffffffffffffffffffffffffffffffffff16815260200160008152602001600073ffffffffffffffffffffffffffffffffffffffff168152602001600073ffffffffffffffffffffffffffffffffffffffff168152602001600081526020016000151581525090565b600080fd5b600073ffffffffffffffffffffffffffffffffffffffff82169050919050565b6000611ba382611b78565b9050919050565b611bb381611b98565b8114611bbe57600080fd5b50565b600081359050611bd081611baa565b92915050565b6000819050919050565b611be981611bd6565b8114611bf457600080fd5b50565b600081359050611c0681611be0565b92915050565b60008060408385031215611c2357611c22611b73565b5b6000611c3185828601611bc1565b9250506020611c4285828601611bf7565b9150509250929050565b600081519050919050565b600082825260208201905092915050565b6000819050602082019050919050565b611c8181611bd6565b82525050565b611c9081611b98565b82525050565b6000611ca182611b78565b9050919050565b611cb181611c96565b82525050565b60008115159050919050565b611ccc81611cb7565b82525050565b60e082016000820151611ce86000850182611c78565b506020820151611cfb6020850182611c87565b506040820151611d0e6040850182611c78565b506060820151611d216060850182611ca8565b506080820151611d346080850182611ca8565b5060a0820151611d4760a0850182611c78565b5060c0820151611d5a60c0850182611cc3565b50505050565b6000611d6c8383611cd2565b60e08301905092915050565b6000602082019050919050565b6000611d9082611c4c565b611d9a8185611c57565b9350611da583611c68565b8060005b83811015611dd6578151611dbd8882611d60565b9750611dc883611d78565b925050600181019050611da9565b5085935050505092915050565b60006020820190508181036000830152611dfd8184611d85565b905092915050565b600080600060608486031215611e1e57611e1d611b73565b5b6000611e2c86828701611bc1565b9350506020611e3d86828701611bf7565b9250506040611e4e86828701611bf7565b9150509250925092565b611e6181611bd6565b82525050565b6000602082019050611e7c6000830184611e58565b92915050565b600082825260208201905092915050565b7f4974656d20616c726561647920736f6c64000000000000000000000000000000600082015250565b6000611ec9601183611e82565b9150611ed482611e93565b602082019050919050565b60006020820190508181036000830152611ef881611ebc565b9050919050565b7f596f7520617265206e6f74207468652073656c6c657200000000000000000000600082015250565b6000611f35601683611e82565b9150611f4082611eff565b602082019050919050565b60006020820190508181036000830152611f6481611f28565b9050919050565b600081519050611f7a81611baa565b92915050565b600060208284031215611f9657611f95611b73565b5b6000611fa484828501611f6b565b91505092915050565b7f4d61726b6574706c61636520646f6573206e6f74206f776e2074686973204e4660008201527f5400000000000000000000000000000000000000000000000000000000000000602082015250565b6000612009602183611e82565b915061201482611fad565b604082019050919050565b6000602082019050818103600083015261203881611ffc565b9050919050565b61204881611b98565b82525050565b6000606082019050612063600083018661203f565b612070602083018561203f565b61207d6040830184611e58565b949350505050565b7f4e487b7100000000000000000000000000000000000000000000000000000000600052601160045260246000fd5b60006120bf82611bd6565b91506120ca83611bd6565b92508282039050818111156120e2576120e1612085565b5b92915050565b7f4e487b7100000000000000000000000000000000000000000000000000000000600052604160045260246000fd5b7f4e487b7100000000000000000000000000000000000000000000000000000000600052603260045260246000fd5b600061215182611bd6565b91507fffffffffffffffffffffffffffffffffffffffffffffffffffffffffffffffff820361218357612182612085565b5b600182019050919050565b7f5072696365206d757374206265206174206c6561737420312077656900000000600082015250565b60006121c4601c83611e82565b91506121cf8261218e565b602082019050919050565b600060208201905081810360008301526121f3816121b7565b9050919050565b7f5072696365206d75737420626520657175616c20746f206c697374696e67207060008201527f7269636500000000000000000000000000000000000000000000000000000000602082015250565b6000612256602483611e82565b9150612261826121fa565b604082019050919050565b6000602082019050818103600083015261228581612249565b9050919050565b61229581611cb7565b82525050565b60006080820190506122b0600083018761203f565b6122bd602083018661203f565b6122ca6040830185611e58565b6122d7606083018461228c565b95945050505050565b60006122eb82611bd6565b91506122f683611bd6565b925082820190508082111561230e5761230d612085565b5b92915050565b7f4e4654206e6f74206c6973746564000000000000000000000000000000000000600082015250565b600061234a600e83611e82565b915061235582612314565b602082019050919050565b600060208201905081810360008301526123798161233d565b9050919050565b7f4f6e6c7920746865206d61726b6574706c616365206f776e65722063616e207760008201527f6974686472617720666565730000000000000000000000000000000000000000602082015250565b60006123dc602c83611e82565b91506123e782612380565b604082019050919050565b6000602082019050818103600083015261240b816123cf565b9050919050565b7f436865636b696e67206966206974656d20697320736f6c640000000000000000600082015250565b6000612448601883611e82565b915061245382612412565b602082019050919050565b600060608201905081810360008301526124778161243b565b90506124866020830185611e58565b612493604083018461203f565b9392505050565b7f436865636b696e67207072696365206d61746368000000000000000000000000600082015250565b60006124d0601483611e82565b91506124db8261249a565b602082019050919050565b600060608201905081810360008301526124ff816124c3565b905061250e6020830185611e58565b61251b604083018461203f565b9392505050565b7f506c65617365207375626d6974207468652061736b696e67207072696365206960008201527f6e206f7264657220746f20636f6d706c65746520746865207075726368617365602082015250565b600061257e604083611e82565b915061258982612522565b604082019050919050565b600060208201905081810360008301526125ad81612571565b9050919050565b7f436865636b696e6720636f6e7472616374206f776e6572736869700000000000600082015250565b60006125ea601b83611e82565b91506125f5826125b4565b602082019050919050565b60006060820190508181036000830152612619816125dd565b90506126286020830185611e58565b612635604083018461203f565b9392505050565b7f436f6e747261637420646f6573206e6f74206f776e204e465400000000000000600082015250565b6000612672601983611e82565b915061267d8261263c565b602082019050919050565b600060208201905081810360008301526126a181612665565b9050919050565b7f5472616e7366657272696e672066756e647320746f2073656c6c657200000000600082015250565b60006126de601c83611e82565b91506126e9826126a8565b602082019050919050565b6000819050919050565b600061271961271461270f84611b78565b6126f4565b611b78565b9050919050565b600061272b826126fe565b9050919050565b600061273d82612720565b9050919050565b61274d81612732565b82525050565b6000606082019050818103600083015261276c816126d1565b905061277b6020830185611e58565b6127886040830184612744565b9392505050565b600081905092915050565b50565b60006127aa60008361278f565b91506127b58261279a565b600082019050919050565b60006127cb8261279d565b9150819050919050565b7f5472616e7366657220746f2073656c6c6572206661696c656400000000000000600082015250565b600061280b601983611e82565b9150612816826127d5565b602082019050919050565b6000602082019050818103600083015261283a816127fe565b9050919050565b7f5570646174696e67206f776e6572736869700000000000000000000000000000600082015250565b6000612877601283611e82565b915061288282612841565b602082019050919050565b600060608201905081810360008301526128a68161286a565b90506128b56020830185611e58565b6128c2604083018461203f565b9392505050565b7f5472616e7366657272696e67206c697374696e67206665650000000000000000600082015250565b60006128ff601883611e82565b915061290a826128c9565b602082019050919050565b6000606082019050818103600083015261292e816128f2565b905061293d6020830185611e58565b61294a6040830184612744565b9392505050565b7f5472616e7366657220746f206f776e6572206661696c65640000000000000000600082015250565b6000612987601883611e82565b915061299282612951565b602082019050919050565b600060208201905081810360008301526129b68161297a565b9050919050565b7f5472616e7366657272696e67204e465400000000000000000000000000000000600082015250565b60006129f3601083611e82565b91506129fe826129bd565b602082019050919050565b60006060820190508181036000830152612a22816129e6565b9050612a316020830185611e58565b612a3e604083018461203f565b9392505050565b7f53616c6520636f6d706c65746564000000000000000000000000000000000000600082015250565b6000612a7b600e83611e82565b9150612a8682612a45565b602082019050919050565b60006060820190508181036000830152612aaa81612a6e565b9050612ab96020830185611e58565b612ac6604083018461203f565b939250505056fea264697066735822122087f9e855e699f3f42d1d491d1d358c757ce9087b3453e78f3c7f4b2d4610fb3764736f6c634300081c0033",
  "linkReferences": {},
  "deployedLinkReferences": {}
}