{
  "_format": "hh-sol-artifact-1",
  "contractName": "CreeperMarketplace",
  "sourceName": "contracts/CreeperMarketPlace.sol",
  "abi": [
    {
      "inputs": [],
      "stateMutability": "nonpayable",
      "type": "constructor"
    },
    {
      "inputs": [],
      "name": "ReentrancyGuardReentrantCall",
      "type": "error"
    },
    {
      "anonymous": false,
      "inputs": [
        {
          "indexed": true,
          "internalType": "uint256",
          "name": "itemId",
          "type": "uint256"
        },
        {
          "indexed": true,
          "internalType": "address",
          "name": "nftContract",
          "type": "address"
        },
        {
          "indexed": true,
          "internalType": "uint256",
          "name": "tokenId",
          "type": "uint256"
        },
        {
          "indexed": false,
          "internalType": "address",
          "name": "seller",
          "type": "address"
        },
        {
          "indexed": false,
          "internalType": "address",
          "name": "owner",
          "type": "address"
        },
        {
          "indexed": false,
          "internalType": "uint256",
          "name": "price",
          "type": "uint256"
        },
        {
          "indexed": false,
          "internalType": "bool",
          "name": "sold",
          "type": "bool"
        }
      ],
      "name": "MarketplaceItemCreated",
      "type": "event"
    },
    {
      "inputs": [
        {
          "internalType": "address",
          "name": "nftContract",
          "type": "address"
        },
        {
          "internalType": "uint256",
          "name": "tokenId",
          "type": "uint256"
        }
      ],
      "name": "buyNFT",
      "outputs": [],
      "stateMutability": "payable",
      "type": "function"
    },
    {
      "inputs": [
        {
          "internalType": "address",
          "name": "nftContract",
          "type": "address"
        },
        {
          "internalType": "uint256",
          "name": "tokenId",
          "type": "uint256"
        },
        {
          "internalType": "uint256",
          "name": "price",
          "type": "uint256"
        }
      ],
      "name": "createMarketplaceItem",
      "outputs": [],
      "stateMutability": "payable",
      "type": "function"
    },
    {
      "inputs": [
        {
          "internalType": "address",
          "name": "nftContract",
          "type": "address"
        },
        {
          "internalType": "uint256",
          "name": "itemId",
          "type": "uint256"
        }
      ],
      "name": "createMarketplaceSale",
      "outputs": [],
      "stateMutability": "payable",
      "type": "function"
    },
    {
      "inputs": [],
      "name": "fetchItemsCreated",
      "outputs": [
        {
          "components": [
            {
              "internalType": "uint256",
              "name": "itemId",
              "type": "uint256"
            },
            {
              "internalType": "address",
              "name": "nftContract",
              "type": "address"
            },
            {
              "internalType": "uint256",
              "name": "tokenId",
              "type": "uint256"
            },
            {
              "internalType": "address payable",
              "name": "seller",
              "type": "address"
            },
            {
              "internalType": "address payable",
              "name": "owner",
              "type": "address"
            },
            {
              "internalType": "uint256",
              "name": "price",
              "type": "uint256"
            },
            {
              "internalType": "bool",
              "name": "sold",
              "type": "bool"
            }
          ],
          "internalType": "struct CreeperMarketplace.MarketplaceItem[]",
          "name": "",
          "type": "tuple[]"
        }
      ],
      "stateMutability": "view",
      "type": "function"
    },
    {
      "inputs": [],
      "name": "fetchMarketplaceItems",
      "outputs": [
        {
          "components": [
            {
              "internalType": "uint256",
              "name": "itemId",
              "type": "uint256"
            },
            {
              "internalType": "address",
              "name": "nftContract",
              "type": "address"
            },
            {
              "internalType": "uint256",
              "name": "tokenId",
              "type": "uint256"
            },
            {
              "internalType": "address payable",
              "name": "seller",
              "type": "address"
            },
            {
              "internalType": "address payable",
              "name": "owner",
              "type": "address"
            },
            {
              "internalType": "uint256",
              "name": "price",
              "type": "uint256"
            },
            {
              "internalType": "bool",
              "name": "sold",
              "type": "bool"
            }
          ],
          "internalType": "struct CreeperMarketplace.MarketplaceItem[]",
          "name": "",
          "type": "tuple[]"
        }
      ],
      "stateMutability": "view",
      "type": "function"
    },
    {
      "inputs": [],
      "name": "fetchMyNFTs",
      "outputs": [
        {
          "components": [
            {
              "internalType": "uint256",
              "name": "itemId",
              "type": "uint256"
            },
            {
              "internalType": "address",
              "name": "nftContract",
              "type": "address"
            },
            {
              "internalType": "uint256",
              "name": "tokenId",
              "type": "uint256"
            },
            {
              "internalType": "address payable",
              "name": "seller",
              "type": "address"
            },
            {
              "internalType": "address payable",
              "name": "owner",
              "type": "address"
            },
            {
              "internalType": "uint256",
              "name": "price",
              "type": "uint256"
            },
            {
              "internalType": "bool",
              "name": "sold",
              "type": "bool"
            }
          ],
          "internalType": "struct CreeperMarketplace.MarketplaceItem[]",
          "name": "",
          "type": "tuple[]"
        }
      ],
      "stateMutability": "view",
      "type": "function"
    },
    {
      "inputs": [],
      "name": "getListingPrice",
      "outputs": [
        {
          "internalType": "uint256",
          "name": "",
          "type": "uint256"
        }
      ],
      "stateMutability": "view",
      "type": "function"
    },
    {
      "inputs": [
        {
          "internalType": "address",
          "name": "nftContract",
          "type": "address"
        },
        {
          "internalType": "uint256",
          "name": "tokenId",
          "type": "uint256"
        }
      ],
      "name": "getNFTListingPrice",
      "outputs": [
        {
          "internalType": "uint256",
          "name": "",
          "type": "uint256"
        }
      ],
      "stateMutability": "view",
      "type": "function"
    }
  ],
  "bytecode": "0x608060405266038d7ea4c68000600455348015601a57600080fd5b50600160008190555033600360006101000a81548173ffffffffffffffffffffffffffffffffffffffff021916908373ffffffffffffffffffffffffffffffffffffffff160217905550611e73806100736000396000f3fe60806040526004361061007b5760003560e01c806334c64ae41161004e57806334c64ae41461011d578063a82ba76f1461015a578063bf4892bb14610176578063f064c32e146101925761007b565b806301ae591a1461008057806305ae31e4146100ab57806312e85585146100c7578063202e3740146100f2575b600080fd5b34801561008c57600080fd5b506100956101bd565b6040516100a2919061181f565b60405180910390f35b6100c560048036038101906100c0919061189e565b61046a565b005b3480156100d357600080fd5b506100dc6107dd565b6040516100e99190611900565b60405180910390f35b3480156100fe57600080fd5b506101076107e7565b604051610114919061181f565b60405180910390f35b34801561012957600080fd5b50610144600480360381019061013f919061191b565b610b27565b6040516101519190611900565b60405180910390f35b610174600480360381019061016f919061191b565b610be0565b005b610190600480360381019061018b919061191b565b610f3a565b005b34801561019e57600080fd5b506101a7611217565b6040516101b4919061181f565b60405180910390f35b606060006101cb6001611557565b905060006101d96002611557565b6101e36001611557565b6101ed919061198a565b90506000808267ffffffffffffffff81111561020c5761020b6119be565b5b60405190808252806020026020018201604052801561024557816020015b6102326115cb565b81526020019060019003908161022a5790505b5090506000600190505b84811161045f57600073ffffffffffffffffffffffffffffffffffffffff166005600083815260200190815260200160002060040160009054906101000a900473ffffffffffffffffffffffffffffffffffffffff1673ffffffffffffffffffffffffffffffffffffffff160361044c576000600560008381526020019081526020016000209050806040518060e0016040529081600082015481526020016001820160009054906101000a900473ffffffffffffffffffffffffffffffffffffffff1673ffffffffffffffffffffffffffffffffffffffff1673ffffffffffffffffffffffffffffffffffffffff168152602001600282015481526020016003820160009054906101000a900473ffffffffffffffffffffffffffffffffffffffff1673ffffffffffffffffffffffffffffffffffffffff1673ffffffffffffffffffffffffffffffffffffffff1681526020016004820160009054906101000a900473ffffffffffffffffffffffffffffffffffffffff1673ffffffffffffffffffffffffffffffffffffffff1673ffffffffffffffffffffffffffffffffffffffff168152602001600582015481526020016006820160009054906101000a900460ff161515151581525050838581518110610431576104306119ed565b5b6020026020010181905250838061044790611a1c565b945050505b808061045790611a1c565b91505061024f565b508094505050505090565b610472611565565b600081116104b5576040517f08c379a00000000000000000000000000000000000000000000000000000000081526004016104ac90611ac1565b60405180910390fd5b60045434146104f9576040517f08c379a00000000000000000000000000000000000000000000000000000000081526004016104f090611b53565b60405180910390fd5b61050360016115ab565b600061050f6001611557565b90506040518060e001604052808281526020018573ffffffffffffffffffffffffffffffffffffffff1681526020018481526020013373ffffffffffffffffffffffffffffffffffffffff168152602001600073ffffffffffffffffffffffffffffffffffffffff16815260200183815260200160001515815250600560008381526020019081526020016000206000820151816000015560208201518160010160006101000a81548173ffffffffffffffffffffffffffffffffffffffff021916908373ffffffffffffffffffffffffffffffffffffffff1602179055506040820151816002015560608201518160030160006101000a81548173ffffffffffffffffffffffffffffffffffffffff021916908373ffffffffffffffffffffffffffffffffffffffff16021790555060808201518160040160006101000a81548173ffffffffffffffffffffffffffffffffffffffff021916908373ffffffffffffffffffffffffffffffffffffffff16021790555060a0820151816005015560c08201518160060160006101000a81548160ff02191690831515021790555090505080600660008673ffffffffffffffffffffffffffffffffffffffff1673ffffffffffffffffffffffffffffffffffffffff1681526020019081526020016000206000858152602001908152602001600020819055508373ffffffffffffffffffffffffffffffffffffffff166323b872dd3330866040518463ffffffff1660e01b815260040161074593929190611b82565b600060405180830381600087803b15801561075f57600080fd5b505af1158015610773573d6000803e3d6000fd5b50505050828473ffffffffffffffffffffffffffffffffffffffff16827f77c313154b797ac3eb630bba7605410c9aed6942c3f1860d362056bb90fcd74e3360008760006040516107c79493929190611bc8565b60405180910390a4506107d86115c1565b505050565b6000600454905090565b606060006107f56001611557565b905060008060005b83811015610897573373ffffffffffffffffffffffffffffffffffffffff166005600060018461082d9190611c0d565b815260200190815260200160002060040160009054906101000a900473ffffffffffffffffffffffffffffffffffffffff1673ffffffffffffffffffffffffffffffffffffffff160361088a576001836108879190611c0d565b92505b80806001019150506107fd565b5060008267ffffffffffffffff8111156108b4576108b36119be565b5b6040519080825280602002602001820160405280156108ed57816020015b6108da6115cb565b8152602001906001900390816108d25790505b50905060005b84811015610b1c573373ffffffffffffffffffffffffffffffffffffffff16600560006001846109239190611c0d565b815260200190815260200160002060040160009054906101000a900473ffffffffffffffffffffffffffffffffffffffff1673ffffffffffffffffffffffffffffffffffffffff1603610b0f57600060018261097f9190611c0d565b90506000600560008381526020019081526020016000209050806040518060e0016040529081600082015481526020016001820160009054906101000a900473ffffffffffffffffffffffffffffffffffffffff1673ffffffffffffffffffffffffffffffffffffffff1673ffffffffffffffffffffffffffffffffffffffff168152602001600282015481526020016003820160009054906101000a900473ffffffffffffffffffffffffffffffffffffffff1673ffffffffffffffffffffffffffffffffffffffff1673ffffffffffffffffffffffffffffffffffffffff1681526020016004820160009054906101000a900473ffffffffffffffffffffffffffffffffffffffff1673ffffffffffffffffffffffffffffffffffffffff1673ffffffffffffffffffffffffffffffffffffffff168152602001600582015481526020016006820160009054906101000a900460ff161515151581525050848681518110610af257610af16119ed565b5b6020026020010181905250600185610b0a9190611c0d565b945050505b80806001019150506108f3565b508094505050505090565b600080600660008573ffffffffffffffffffffffffffffffffffffffff1673ffffffffffffffffffffffffffffffffffffffff168152602001908152602001600020600084815260200190815260200160002054905060008111610bc0576040517f08c379a0000000000000000000000000000000000000000000000000000000008152600401610bb790611c8d565b60405180910390fd5b600560008281526020019081526020016000206005015491505092915050565b610be8611565565b6000600660008473ffffffffffffffffffffffffffffffffffffffff1673ffffffffffffffffffffffffffffffffffffffff168152602001908152602001600020600083815260200190815260200160002054905060008111610c80576040517f08c379a0000000000000000000000000000000000000000000000000000000008152600401610c7790611c8d565b60405180910390fd5b600015156005600083815260200190815260200160002060060160009054906101000a900460ff16151514610cea576040517f08c379a0000000000000000000000000000000000000000000000000000000008152600401610ce190611cf9565b60405180910390fd5b600060056000838152602001908152602001600020600501549050803414610d47576040517f08c379a0000000000000000000000000000000000000000000000000000000008152600401610d3e90611d8b565b60405180910390fd5b6005600083815260200190815260200160002060030160009054906101000a900473ffffffffffffffffffffffffffffffffffffffff1673ffffffffffffffffffffffffffffffffffffffff166108fc349081150290604051600060405180830381858888f19350505050158015610dc3573d6000803e3d6000fd5b508373ffffffffffffffffffffffffffffffffffffffff166323b872dd3033866040518463ffffffff1660e01b8152600401610e0193929190611b82565b600060405180830381600087803b158015610e1b57600080fd5b505af1158015610e2f573d6000803e3d6000fd5b50505050336005600084815260200190815260200160002060040160006101000a81548173ffffffffffffffffffffffffffffffffffffffff021916908373ffffffffffffffffffffffffffffffffffffffff16021790555060016005600084815260200190815260200160002060060160006101000a81548160ff021916908315150217905550610ec160026115ab565b600360009054906101000a900473ffffffffffffffffffffffffffffffffffffffff1673ffffffffffffffffffffffffffffffffffffffff166108fc6004549081150290604051600060405180830381858888f19350505050158015610f2b573d6000803e3d6000fd5b505050610f366115c1565b5050565b610f42611565565b600060056000838152602001908152602001600020600501549050600060056000848152602001908152602001600020600201549050600015156005600085815260200190815260200160002060060160009054906101000a900460ff16151514610fe2576040517f08c379a0000000000000000000000000000000000000000000000000000000008152600401610fd990611cf9565b60405180910390fd5b813414611024576040517f08c379a000000000000000000000000000000000000000000000000000000000815260040161101b90611e1d565b60405180910390fd5b6005600084815260200190815260200160002060030160009054906101000a900473ffffffffffffffffffffffffffffffffffffffff1673ffffffffffffffffffffffffffffffffffffffff166108fc349081150290604051600060405180830381858888f193505050501580156110a0573d6000803e3d6000fd5b508373ffffffffffffffffffffffffffffffffffffffff166323b872dd3033846040518463ffffffff1660e01b81526004016110de93929190611b82565b600060405180830381600087803b1580156110f857600080fd5b505af115801561110c573d6000803e3d6000fd5b50505050336005600085815260200190815260200160002060040160006101000a81548173ffffffffffffffffffffffffffffffffffffffff021916908373ffffffffffffffffffffffffffffffffffffffff16021790555060016005600085815260200190815260200160002060060160006101000a81548160ff02191690831515021790555061119e60026115ab565b600360009054906101000a900473ffffffffffffffffffffffffffffffffffffffff1673ffffffffffffffffffffffffffffffffffffffff166108fc6004549081150290604051600060405180830381858888f19350505050158015611208573d6000803e3d6000fd5b5050506112136115c1565b5050565b606060006112256001611557565b905060008060005b838110156112c7573373ffffffffffffffffffffffffffffffffffffffff166005600060018461125d9190611c0d565b815260200190815260200160002060030160009054906101000a900473ffffffffffffffffffffffffffffffffffffffff1673ffffffffffffffffffffffffffffffffffffffff16036112ba576001836112b79190611c0d565b92505b808060010191505061122d565b5060008267ffffffffffffffff8111156112e4576112e36119be565b5b60405190808252806020026020018201604052801561131d57816020015b61130a6115cb565b8152602001906001900390816113025790505b50905060005b8481101561154c573373ffffffffffffffffffffffffffffffffffffffff16600560006001846113539190611c0d565b815260200190815260200160002060030160009054906101000a900473ffffffffffffffffffffffffffffffffffffffff1673ffffffffffffffffffffffffffffffffffffffff160361153f5760006001826113af9190611c0d565b90506000600560008381526020019081526020016000209050806040518060e0016040529081600082015481526020016001820160009054906101000a900473ffffffffffffffffffffffffffffffffffffffff1673ffffffffffffffffffffffffffffffffffffffff1673ffffffffffffffffffffffffffffffffffffffff168152602001600282015481526020016003820160009054906101000a900473ffffffffffffffffffffffffffffffffffffffff1673ffffffffffffffffffffffffffffffffffffffff1673ffffffffffffffffffffffffffffffffffffffff1681526020016004820160009054906101000a900473ffffffffffffffffffffffffffffffffffffffff1673ffffffffffffffffffffffffffffffffffffffff1673ffffffffffffffffffffffffffffffffffffffff168152602001600582015481526020016006820160009054906101000a900460ff161515151581525050848681518110611522576115216119ed565b5b602002602001018190525060018561153a9190611c0d565b945050505b8080600101915050611323565b508094505050505090565b600081600001549050919050565b6002600054036115a1576040517f3ee5aeb500000000000000000000000000000000000000000000000000000000815260040160405180910390fd5b6002600081905550565b6001816000016000828254019250508190555050565b6001600081905550565b6040518060e0016040528060008152602001600073ffffffffffffffffffffffffffffffffffffffff16815260200160008152602001600073ffffffffffffffffffffffffffffffffffffffff168152602001600073ffffffffffffffffffffffffffffffffffffffff168152602001600081526020016000151581525090565b600081519050919050565b600082825260208201905092915050565b6000819050602082019050919050565b6000819050919050565b61168b81611678565b82525050565b600073ffffffffffffffffffffffffffffffffffffffff82169050919050565b60006116bc82611691565b9050919050565b6116cc816116b1565b82525050565b60006116dd82611691565b9050919050565b6116ed816116d2565b82525050565b60008115159050919050565b611708816116f3565b82525050565b60e0820160008201516117246000850182611682565b50602082015161173760208501826116c3565b50604082015161174a6040850182611682565b50606082015161175d60608501826116e4565b50608082015161177060808501826116e4565b5060a082015161178360a0850182611682565b5060c082015161179660c08501826116ff565b50505050565b60006117a8838361170e565b60e08301905092915050565b6000602082019050919050565b60006117cc8261164c565b6117d68185611657565b93506117e183611668565b8060005b838110156118125781516117f9888261179c565b9750611804836117b4565b9250506001810190506117e5565b5085935050505092915050565b6000602082019050818103600083015261183981846117c1565b905092915050565b600080fd5b61184f816116b1565b811461185a57600080fd5b50565b60008135905061186c81611846565b92915050565b61187b81611678565b811461188657600080fd5b50565b60008135905061189881611872565b92915050565b6000806000606084860312156118b7576118b6611841565b5b60006118c58682870161185d565b93505060206118d686828701611889565b92505060406118e786828701611889565b9150509250925092565b6118fa81611678565b82525050565b600060208201905061191560008301846118f1565b92915050565b6000806040838503121561193257611931611841565b5b60006119408582860161185d565b925050602061195185828601611889565b9150509250929050565b7f4e487b7100000000000000000000000000000000000000000000000000000000600052601160045260246000fd5b600061199582611678565b91506119a083611678565b92508282039050818111156119b8576119b761195b565b5b92915050565b7f4e487b7100000000000000000000000000000000000000000000000000000000600052604160045260246000fd5b7f4e487b7100000000000000000000000000000000000000000000000000000000600052603260045260246000fd5b6000611a2782611678565b91507fffffffffffffffffffffffffffffffffffffffffffffffffffffffffffffffff8203611a5957611a5861195b565b5b600182019050919050565b600082825260208201905092915050565b7f5072696365206d757374206265206174206c6561737420312077656900000000600082015250565b6000611aab601c83611a64565b9150611ab682611a75565b602082019050919050565b60006020820190508181036000830152611ada81611a9e565b9050919050565b7f5072696365206d75737420626520657175616c20746f206c697374696e67207060008201527f7269636500000000000000000000000000000000000000000000000000000000602082015250565b6000611b3d602483611a64565b9150611b4882611ae1565b604082019050919050565b60006020820190508181036000830152611b6c81611b30565b9050919050565b611b7c816116b1565b82525050565b6000606082019050611b976000830186611b73565b611ba46020830185611b73565b611bb160408301846118f1565b949350505050565b611bc2816116f3565b82525050565b6000608082019050611bdd6000830187611b73565b611bea6020830186611b73565b611bf760408301856118f1565b611c046060830184611bb9565b95945050505050565b6000611c1882611678565b9150611c2383611678565b9250828201905080821115611c3b57611c3a61195b565b5b92915050565b7f4e4654206e6f74206c6973746564000000000000000000000000000000000000600082015250565b6000611c77600e83611a64565b9150611c8282611c41565b602082019050919050565b60006020820190508181036000830152611ca681611c6a565b9050919050565b7f4974656d20616c726561647920736f6c64000000000000000000000000000000600082015250565b6000611ce3601183611a64565b9150611cee82611cad565b602082019050919050565b60006020820190508181036000830152611d1281611cd6565b9050919050565b7f506c65617365207375626d6974207468652065786163742061736b696e67207060008201527f7269636500000000000000000000000000000000000000000000000000000000602082015250565b6000611d75602483611a64565b9150611d8082611d19565b604082019050919050565b60006020820190508181036000830152611da481611d68565b9050919050565b7f506c65617365207375626d6974207468652061736b696e67207072696365206960008201527f6e206f7264657220746f20636f6d706c65746520746865207075726368617365602082015250565b6000611e07604083611a64565b9150611e1282611dab565b604082019050919050565b60006020820190508181036000830152611e3681611dfa565b905091905056fea26469706673582212203dfc4654b69c4b7436013a9ee5fc1ec43c9743ace737919043619865992ecb8464736f6c634300081c0033",
  "linkReferences": {},
  "deployedLinkReferences": {}
}