{
  "_format": "hh-sol-artifact-1",
  "contractName": "GetTokenFaucet",
  "sourceName": "contracts/GetTokenFaucet.sol",
  "abi": [
    {
      "inputs": [
        {
          "internalType": "address",
          "name": "_lnx",
          "type": "address"
        },
        {
          "internalType": "address",
          "name": "_cep",
          "type": "address"
        }
      ],
      "stateMutability": "nonpayable",
      "type": "constructor"
    },
    {
      "anonymous": false,
      "inputs": [
        {
          "indexed": true,
          "internalType": "address",
          "name": "user",
          "type": "address"
        },
        {
          "indexed": false,
          "internalType": "address",
          "name": "token",
          "type": "address"
        },
        {
          "indexed": false,
          "internalType": "uint256",
          "name": "amount",
          "type": "uint256"
        }
      ],
      "name": "FaucetClaimed",
      "type": "event"
    },
    {
      "anonymous": false,
      "inputs": [
        {
          "indexed": true,
          "internalType": "address",
          "name": "owner",
          "type": "address"
        },
        {
          "indexed": false,
          "internalType": "address",
          "name": "token",
          "type": "address"
        },
        {
          "indexed": false,
          "internalType": "uint256",
          "name": "amount",
          "type": "uint256"
        }
      ],
      "name": "OwnerWithdrawal",
      "type": "event"
    },
    {
      "inputs": [],
      "name": "CEP",
      "outputs": [
        {
          "internalType": "contract IERC20",
          "name": "",
          "type": "address"
        }
      ],
      "stateMutability": "view",
      "type": "function"
    },
    {
      "inputs": [],
      "name": "LNX",
      "outputs": [
        {
          "internalType": "contract IERC20",
          "name": "",
          "type": "address"
        }
      ],
      "stateMutability": "view",
      "type": "function"
    },
    {
      "inputs": [],
      "name": "amount",
      "outputs": [
        {
          "internalType": "uint256",
          "name": "",
          "type": "uint256"
        }
      ],
      "stateMutability": "view",
      "type": "function"
    },
    {
      "inputs": [
        {
          "internalType": "address",
          "name": "token",
          "type": "address"
        }
      ],
      "name": "claim",
      "outputs": [],
      "stateMutability": "nonpayable",
      "type": "function"
    },
    {
      "inputs": [],
      "name": "claimInterval",
      "outputs": [
        {
          "internalType": "uint256",
          "name": "",
          "type": "uint256"
        }
      ],
      "stateMutability": "view",
      "type": "function"
    },
    {
      "inputs": [
        {
          "internalType": "address",
          "name": "",
          "type": "address"
        }
      ],
      "name": "lastClaim",
      "outputs": [
        {
          "internalType": "uint256",
          "name": "",
          "type": "uint256"
        }
      ],
      "stateMutability": "view",
      "type": "function"
    },
    {
      "inputs": [],
      "name": "owner",
      "outputs": [
        {
          "internalType": "address",
          "name": "",
          "type": "address"
        }
      ],
      "stateMutability": "view",
      "type": "function"
    },
    {
      "inputs": [
        {
          "internalType": "uint256",
          "name": "_amount",
          "type": "uint256"
        }
      ],
      "name": "setAmount",
      "outputs": [],
      "stateMutability": "nonpayable",
      "type": "function"
    },
    {
      "inputs": [
        {
          "internalType": "uint256",
          "name": "_interval",
          "type": "uint256"
        }
      ],
      "name": "setClaimInterval",
      "outputs": [],
      "stateMutability": "nonpayable",
      "type": "function"
    },
    {
      "inputs": [
        {
          "internalType": "address",
          "name": "newOwner",
          "type": "address"
        }
      ],
      "name": "transferOwnership",
      "outputs": [],
      "stateMutability": "nonpayable",
      "type": "function"
    },
    {
      "inputs": [
        {
          "internalType": "address",
          "name": "token",
          "type": "address"
        },
        {
          "internalType": "uint256",
          "name": "_amount",
          "type": "uint256"
        }
      ],
      "name": "withdrawTokens",
      "outputs": [],
      "stateMutability": "nonpayable",
      "type": "function"
    }
  ],
  "bytecode": "0x608060405261a8c060025568056bc75e2d6310000060035534801561002357600080fd5b50604051611a67380380611a6783398181016040528101906100459190610171565b336000806101000a81548173ffffffffffffffffffffffffffffffffffffffff021916908373ffffffffffffffffffffffffffffffffffffffff16021790555081600460006101000a81548173ffffffffffffffffffffffffffffffffffffffff021916908373ffffffffffffffffffffffffffffffffffffffff16021790555080600560006101000a81548173ffffffffffffffffffffffffffffffffffffffff021916908373ffffffffffffffffffffffffffffffffffffffff16021790555050506101b1565b600080fd5b600073ffffffffffffffffffffffffffffffffffffffff82169050919050565b600061013e82610113565b9050919050565b61014e81610133565b811461015957600080fd5b50565b60008151905061016b81610145565b92915050565b600080604083850312156101885761018761010e565b5b60006101968582860161015c565b92505060206101a78582860161015c565b9150509250929050565b6118a7806101c06000396000f3fe608060405234801561001057600080fd5b50600436106100a95760003560e01c80638da5cb5b116100715780638da5cb5b14610150578063a627a2631461016e578063aa8c217c1461018c578063e9015213146101aa578063f2d57adf146101c8578063f2fde38b146101e4576100a9565b806306b091f9146100ae5780630b433a12146100ca5780631e83409a146100e8578063271f88b4146101045780635c16e15e14610120575b600080fd5b6100c860048036038101906100c39190610ea8565b610200565b005b6100d26104a1565b6040516100df9190610ef7565b60405180910390f35b61010260048036038101906100fd9190610f12565b6104a7565b005b61011e60048036038101906101199190610f3f565b61086b565b005b61013a60048036038101906101359190610f12565b610903565b6040516101479190610ef7565b60405180910390f35b61015861091b565b6040516101659190610f7b565b60405180910390f35b61017661093f565b6040516101839190610ff5565b60405180910390f35b610194610965565b6040516101a19190610ef7565b60405180910390f35b6101b261096b565b6040516101bf9190610ff5565b60405180910390f35b6101e260048036038101906101dd9190610f3f565b610991565b005b6101fe60048036038101906101f99190610f12565b610a29565b005b60008054906101000a900473ffffffffffffffffffffffffffffffffffffffff1673ffffffffffffffffffffffffffffffffffffffff163373ffffffffffffffffffffffffffffffffffffffff161461028e576040517f08c379a00000000000000000000000000000000000000000000000000000000081526004016102859061106d565b60405180910390fd5b60008273ffffffffffffffffffffffffffffffffffffffff166370a08231306040518263ffffffff1660e01b81526004016102c99190610f7b565b602060405180830381865afa1580156102e6573d6000803e3d6000fd5b505050506040513d601f19601f8201168201806040525081019061030a91906110a2565b90508082111561034f576040517f08c379a00000000000000000000000000000000000000000000000000000000081526004016103469061111b565b60405180910390fd5b8273ffffffffffffffffffffffffffffffffffffffff1663a9059cbb60008054906101000a900473ffffffffffffffffffffffffffffffffffffffff16846040518363ffffffff1660e01b81526004016103aa92919061113b565b6020604051808303816000875af11580156103c9573d6000803e3d6000fd5b505050506040513d601f19601f820116820180604052508101906103ed919061119c565b61042c576040517f08c379a000000000000000000000000000000000000000000000000000000000815260040161042390611215565b60405180910390fd5b60008054906101000a900473ffffffffffffffffffffffffffffffffffffffff1673ffffffffffffffffffffffffffffffffffffffff167f81bb8ab873c357dc0a1bc0671f71a0184e75a780388618f11b67a9504bf766f8848460405161049492919061113b565b60405180910390a2505050565b60025481565b600460009054906101000a900473ffffffffffffffffffffffffffffffffffffffff1673ffffffffffffffffffffffffffffffffffffffff168173ffffffffffffffffffffffffffffffffffffffff1614806105505750600560009054906101000a900473ffffffffffffffffffffffffffffffffffffffff1673ffffffffffffffffffffffffffffffffffffffff168173ffffffffffffffffffffffffffffffffffffffff16145b61058f576040517f08c379a000000000000000000000000000000000000000000000000000000000815260040161058690611281565b60405180910390fd5b6000600254600160003373ffffffffffffffffffffffffffffffffffffffff1673ffffffffffffffffffffffffffffffffffffffff168152602001908152602001600020546105de91906112d0565b9050804210156105ed82610b69565b6040516020016105fd91906113c1565b6040516020818303038152906040529061064d576040517f08c379a0000000000000000000000000000000000000000000000000000000008152600401610644919061142d565b60405180910390fd5b5042600160003373ffffffffffffffffffffffffffffffffffffffff1673ffffffffffffffffffffffffffffffffffffffff1681526020019081526020016000208190555060008273ffffffffffffffffffffffffffffffffffffffff166370a08231306040518263ffffffff1660e01b81526004016106cd9190610f7b565b602060405180830381865afa1580156106ea573d6000803e3d6000fd5b505050506040513d601f19601f8201168201806040525081019061070e91906110a2565b9050600354811015610755576040517f08c379a000000000000000000000000000000000000000000000000000000000815260040161074c9061149b565b60405180910390fd5b8273ffffffffffffffffffffffffffffffffffffffff1663a9059cbb336003546040518363ffffffff1660e01b815260040161079292919061113b565b6020604051808303816000875af11580156107b1573d6000803e3d6000fd5b505050506040513d601f19601f820116820180604052508101906107d5919061119c565b610814576040517f08c379a000000000000000000000000000000000000000000000000000000000815260040161080b90611507565b60405180910390fd5b3373ffffffffffffffffffffffffffffffffffffffff167f2dd15ef43547cfe81462e7864585958b6647ed1f7fa704635b498754071ce9398460035460405161085e92919061113b565b60405180910390a2505050565b60008054906101000a900473ffffffffffffffffffffffffffffffffffffffff1673ffffffffffffffffffffffffffffffffffffffff163373ffffffffffffffffffffffffffffffffffffffff16146108f9576040517f08c379a00000000000000000000000000000000000000000000000000000000081526004016108f09061106d565b60405180910390fd5b8060038190555050565b60016020528060005260406000206000915090505481565b60008054906101000a900473ffffffffffffffffffffffffffffffffffffffff1681565b600560009054906101000a900473ffffffffffffffffffffffffffffffffffffffff1681565b60035481565b600460009054906101000a900473ffffffffffffffffffffffffffffffffffffffff1681565b60008054906101000a900473ffffffffffffffffffffffffffffffffffffffff1673ffffffffffffffffffffffffffffffffffffffff163373ffffffffffffffffffffffffffffffffffffffff1614610a1f576040517f08c379a0000000000000000000000000000000000000000000000000000000008152600401610a169061106d565b60405180910390fd5b8060028190555050565b60008054906101000a900473ffffffffffffffffffffffffffffffffffffffff1673ffffffffffffffffffffffffffffffffffffffff163373ffffffffffffffffffffffffffffffffffffffff1614610ab7576040517f08c379a0000000000000000000000000000000000000000000000000000000008152600401610aae9061106d565b60405180910390fd5b600073ffffffffffffffffffffffffffffffffffffffff168173ffffffffffffffffffffffffffffffffffffffff1603610b26576040517f08c379a0000000000000000000000000000000000000000000000000000000008152600401610b1d90611573565b60405180910390fd5b806000806101000a81548173ffffffffffffffffffffffffffffffffffffffff021916908373ffffffffffffffffffffffffffffffffffffffff16021790555050565b606060006301e1855883610b7d91906115c2565b6107b2610b8a91906112d0565b905060006001622820726301e1855886610ba491906115f3565b610bae91906115c2565b610bb891906112d0565b90506000600162015180622820726301e1855888610bd691906115f3565b610be091906115f3565b610bea91906115c2565b610bf491906112d0565b90506000610e106201518087610c0a91906115f3565b610c1491906115c2565b90506000603c610e1088610c2891906115f3565b610c3291906115c2565b90506000603c88610c4391906115f3565b9050610c4e86610cac565b610c5786610cac565b610c6086610cac565b610c6986610cac565b610c7286610cac565b610c7b86610cac565b604051602001610c9096959493929190611708565b6040516020818303038152906040529650505050505050919050565b606060008203610cf3576040518060400160405280600181526020017f30000000000000000000000000000000000000000000000000000000000000008152509050610e0a565b600082905060005b60008214610d25578080610d0e90611797565b915050600a82610d1e91906115c2565b9150610cfb565b60008167ffffffffffffffff811115610d4157610d406117df565b5b6040519080825280601f01601f191660200182016040528015610d735781602001600182028036833780820191505090505b5090508492505b60008314610e0357600182610d8f919061180e565b9150600a83610d9e91906115f3565b6030610daa91906112d0565b60f81b818381518110610dc057610dbf611842565b5b60200101907effffffffffffffffffffffffffffffffffffffffffffffffffffffffffffff1916908160001a905350600a83610dfc91906115c2565b9250610d7a565b8093505050505b919050565b600080fd5b600073ffffffffffffffffffffffffffffffffffffffff82169050919050565b6000610e3f82610e14565b9050919050565b610e4f81610e34565b8114610e5a57600080fd5b50565b600081359050610e6c81610e46565b92915050565b6000819050919050565b610e8581610e72565b8114610e9057600080fd5b50565b600081359050610ea281610e7c565b92915050565b60008060408385031215610ebf57610ebe610e0f565b5b6000610ecd85828601610e5d565b9250506020610ede85828601610e93565b9150509250929050565b610ef181610e72565b82525050565b6000602082019050610f0c6000830184610ee8565b92915050565b600060208284031215610f2857610f27610e0f565b5b6000610f3684828501610e5d565b91505092915050565b600060208284031215610f5557610f54610e0f565b5b6000610f6384828501610e93565b91505092915050565b610f7581610e34565b82525050565b6000602082019050610f906000830184610f6c565b92915050565b6000819050919050565b6000610fbb610fb6610fb184610e14565b610f96565b610e14565b9050919050565b6000610fcd82610fa0565b9050919050565b6000610fdf82610fc2565b9050919050565b610fef81610fd4565b82525050565b600060208201905061100a6000830184610fe6565b92915050565b600082825260208201905092915050565b7f43616c6c6572206973206e6f7420746865206f776e6572000000000000000000600082015250565b6000611057601783611010565b915061106282611021565b602082019050919050565b600060208201905081810360008301526110868161104a565b9050919050565b60008151905061109c81610e7c565b92915050565b6000602082840312156110b8576110b7610e0f565b5b60006110c68482850161108d565b91505092915050565b7f496e73756666696369656e7420636f6e74726163742062616c616e6365000000600082015250565b6000611105601d83611010565b9150611110826110cf565b602082019050919050565b60006020820190508181036000830152611134816110f8565b9050919050565b60006040820190506111506000830185610f6c565b61115d6020830184610ee8565b9392505050565b60008115159050919050565b61117981611164565b811461118457600080fd5b50565b60008151905061119681611170565b92915050565b6000602082840312156111b2576111b1610e0f565b5b60006111c084828501611187565b91505092915050565b7f546f6b656e207769746864726177616c206661696c6564000000000000000000600082015250565b60006111ff601783611010565b915061120a826111c9565b602082019050919050565b6000602082019050818103600083015261122e816111f2565b9050919050565b7f496e76616c696420746f6b656e00000000000000000000000000000000000000600082015250565b600061126b600d83611010565b915061127682611235565b602082019050919050565b6000602082019050818103600083015261129a8161125e565b9050919050565b7f4e487b7100000000000000000000000000000000000000000000000000000000600052601160045260246000fd5b60006112db82610e72565b91506112e683610e72565b92508282019050808211156112fe576112fd6112a1565b5b92915050565b600081905092915050565b7f5761697420756e74696c20000000000000000000000000000000000000000000600082015250565b6000611345600b83611304565b91506113508261130f565b600b82019050919050565b600081519050919050565b60005b83811015611384578082015181840152602081019050611369565b60008484015250505050565b600061139b8261135b565b6113a58185611304565b93506113b5818560208601611366565b80840191505092915050565b60006113cc82611338565b91506113d88284611390565b915081905092915050565b6000601f19601f8301169050919050565b60006113ff8261135b565b6114098185611010565b9350611419818560208601611366565b611422816113e3565b840191505092915050565b6000602082019050818103600083015261144781846113f4565b905092915050565b7f4e6f7420656e6f75676820746f6b656e7320696e206661756365740000000000600082015250565b6000611485601b83611010565b91506114908261144f565b602082019050919050565b600060208201905081810360008301526114b481611478565b9050919050565b7f546f6b656e207472616e73666572206661696c65640000000000000000000000600082015250565b60006114f1601583611010565b91506114fc826114bb565b602082019050919050565b60006020820190508181036000830152611520816114e4565b9050919050565b7f4e6577206f776e657220697320746865207a65726f2061646472657373000000600082015250565b600061155d601d83611010565b915061156882611527565b602082019050919050565b6000602082019050818103600083015261158c81611550565b9050919050565b7f4e487b7100000000000000000000000000000000000000000000000000000000600052601260045260246000fd5b60006115cd82610e72565b91506115d883610e72565b9250826115e8576115e7611593565b5b828204905092915050565b60006115fe82610e72565b915061160983610e72565b92508261161957611618611593565b5b828206905092915050565b7f2d00000000000000000000000000000000000000000000000000000000000000600082015250565b600061165a600183611304565b915061166582611624565b600182019050919050565b7f2000000000000000000000000000000000000000000000000000000000000000600082015250565b60006116a6600183611304565b91506116b182611670565b600182019050919050565b7f3a00000000000000000000000000000000000000000000000000000000000000600082015250565b60006116f2600183611304565b91506116fd826116bc565b600182019050919050565b60006117148289611390565b915061171f8261164d565b915061172b8288611390565b91506117368261164d565b91506117428287611390565b915061174d82611699565b91506117598286611390565b9150611764826116e5565b91506117708285611390565b915061177b826116e5565b91506117878284611390565b9150819050979650505050505050565b60006117a282610e72565b91507fffffffffffffffffffffffffffffffffffffffffffffffffffffffffffffffff82036117d4576117d36112a1565b5b600182019050919050565b7f4e487b7100000000000000000000000000000000000000000000000000000000600052604160045260246000fd5b600061181982610e72565b915061182483610e72565b925082820390508181111561183c5761183b6112a1565b5b92915050565b7f4e487b7100000000000000000000000000000000000000000000000000000000600052603260045260246000fdfea26469706673582212207aff857efa14e35044c84b6375ee6b02d77d6690854f63da9fa1946f8299e86964736f6c634300081c0033",
  "linkReferences": {},
  "deployedLinkReferences": {}
}