{
  "_format": "hh-sol-artifact-1",
  "contractName": "SwapContract",
  "sourceName": "contracts/SwapContract.sol",
  "abi": [
    {
      "inputs": [
        {
          "internalType": "address",
          "name": "_usdt",
          "type": "address"
        },
        {
          "internalType": "address",
          "name": "_link",
          "type": "address"
        },
        {
          "internalType": "address",
          "name": "_priceFeed",
          "type": "address"
        }
      ],
      "stateMutability": "nonpayable",
      "type": "constructor"
    },
    {
      "anonymous": false,
      "inputs": [
        {
          "indexed": true,
          "internalType": "address",
          "name": "owner",
          "type": "address"
        },
        {
          "indexed": false,
          "internalType": "uint256",
          "name": "usdtAmount",
          "type": "uint256"
        },
        {
          "indexed": false,
          "internalType": "uint256",
          "name": "linkAmount",
          "type": "uint256"
        }
      ],
      "name": "LiquidityAdded",
      "type": "event"
    },
    {
      "anonymous": false,
      "inputs": [
        {
          "indexed": true,
          "internalType": "address",
          "name": "user",
          "type": "address"
        },
        {
          "indexed": false,
          "internalType": "uint256",
          "name": "usdtAmount",
          "type": "uint256"
        },
        {
          "indexed": false,
          "internalType": "uint256",
          "name": "linkAmount",
          "type": "uint256"
        }
      ],
      "name": "Swap",
      "type": "event"
    },
    {
      "inputs": [],
      "name": "LINK",
      "outputs": [
        {
          "internalType": "contract IERC20",
          "name": "",
          "type": "address"
        }
      ],
      "stateMutability": "view",
      "type": "function"
    },
    {
      "inputs": [],
      "name": "USDT",
      "outputs": [
        {
          "internalType": "contract IERC20",
          "name": "",
          "type": "address"
        }
      ],
      "stateMutability": "view",
      "type": "function"
    },
    {
      "inputs": [
        {
          "internalType": "uint256",
          "name": "usdtAmount",
          "type": "uint256"
        },
        {
          "internalType": "uint256",
          "name": "linkAmount",
          "type": "uint256"
        }
      ],
      "name": "addLiquidity",
      "outputs": [],
      "stateMutability": "nonpayable",
      "type": "function"
    },
    {
      "inputs": [],
      "name": "feePercent",
      "outputs": [
        {
          "internalType": "uint256",
          "name": "",
          "type": "uint256"
        }
      ],
      "stateMutability": "view",
      "type": "function"
    },
    {
      "inputs": [],
      "name": "getLatestPrice",
      "outputs": [
        {
          "internalType": "uint256",
          "name": "",
          "type": "uint256"
        }
      ],
      "stateMutability": "view",
      "type": "function"
    },
    {
      "inputs": [],
      "name": "owner",
      "outputs": [
        {
          "internalType": "address",
          "name": "",
          "type": "address"
        }
      ],
      "stateMutability": "view",
      "type": "function"
    },
    {
      "inputs": [],
      "name": "priceFeed",
      "outputs": [
        {
          "internalType": "contract AggregatorV3Interface",
          "name": "",
          "type": "address"
        }
      ],
      "stateMutability": "view",
      "type": "function"
    },
    {
      "inputs": [
        {
          "internalType": "uint256",
          "name": "usdtAmount",
          "type": "uint256"
        }
      ],
      "name": "swapUSDTForLINK",
      "outputs": [],
      "stateMutability": "nonpayable",
      "type": "function"
    }
  ],
  "bytecode": "0x6080604052601e60045534801561001557600080fd5b506040516111d23803806111d2833981810160405281019061003791906101a5565b826000806101000a81548173ffffffffffffffffffffffffffffffffffffffff021916908373ffffffffffffffffffffffffffffffffffffffff16021790555081600160006101000a81548173ffffffffffffffffffffffffffffffffffffffff021916908373ffffffffffffffffffffffffffffffffffffffff16021790555080600260006101000a81548173ffffffffffffffffffffffffffffffffffffffff021916908373ffffffffffffffffffffffffffffffffffffffff16021790555033600360006101000a81548173ffffffffffffffffffffffffffffffffffffffff021916908373ffffffffffffffffffffffffffffffffffffffff1602179055505050506101f8565b600080fd5b600073ffffffffffffffffffffffffffffffffffffffff82169050919050565b600061017282610147565b9050919050565b61018281610167565b811461018d57600080fd5b50565b60008151905061019f81610179565b92915050565b6000806000606084860312156101be576101bd610142565b5b60006101cc86828701610190565b93505060206101dd86828701610190565b92505060406101ee86828701610190565b9150509250925092565b610fcb806102076000396000f3fe608060405234801561001057600080fd5b50600436106100885760003560e01c80638da5cb5b1161005b5780638da5cb5b146101035780638e15f473146101215780639cd441da1461013f578063c54e44eb1461015b57610088565b80631b6b6d231461008d57806349ed1e3e146100ab578063741bef1a146100c75780637fd6f15c146100e5575b600080fd5b610095610179565b6040516100a29190610947565b60405180910390f35b6100c560048036038101906100c0919061099d565b61019f565b005b6100cf610546565b6040516100dc91906109eb565b60405180910390f35b6100ed61056c565b6040516100fa9190610a15565b60405180910390f35b61010b610572565b6040516101189190610a51565b60405180910390f35b610129610598565b6040516101369190610a15565b60405180910390f35b61015960048036038101906101549190610a6c565b61067c565b005b6101636108a4565b6040516101709190610947565b60405180910390f35b600160009054906101000a900473ffffffffffffffffffffffffffffffffffffffff1681565b8060008054906101000a900473ffffffffffffffffffffffffffffffffffffffff1673ffffffffffffffffffffffffffffffffffffffff166370a08231336040518263ffffffff1660e01b81526004016101f99190610a51565b602060405180830381865afa158015610216573d6000803e3d6000fd5b505050506040513d601f19601f8201168201806040525081019061023a9190610ac1565b101561027b576040517f08c379a000000000000000000000000000000000000000000000000000000000815260040161027290610b4b565b60405180910390fd5b6000610285610598565b6305f5e100836102959190610b9a565b61029f9190610c0b565b90506000612710600454836102b49190610b9a565b6102be9190610c0b565b9050600081836102ce9190610c3c565b905080600160009054906101000a900473ffffffffffffffffffffffffffffffffffffffff1673ffffffffffffffffffffffffffffffffffffffff166370a08231306040518263ffffffff1660e01b815260040161032c9190610a51565b602060405180830381865afa158015610349573d6000803e3d6000fd5b505050506040513d601f19601f8201168201806040525081019061036d9190610ac1565b10156103ae576040517f08c379a00000000000000000000000000000000000000000000000000000000081526004016103a590610cbc565b60405180910390fd5b60008054906101000a900473ffffffffffffffffffffffffffffffffffffffff1673ffffffffffffffffffffffffffffffffffffffff166323b872dd3330876040518463ffffffff1660e01b815260040161040b93929190610cdc565b6020604051808303816000875af115801561042a573d6000803e3d6000fd5b505050506040513d601f19601f8201168201806040525081019061044e9190610d4b565b50600160009054906101000a900473ffffffffffffffffffffffffffffffffffffffff1673ffffffffffffffffffffffffffffffffffffffff1663a9059cbb33836040518363ffffffff1660e01b81526004016104ac929190610d78565b6020604051808303816000875af11580156104cb573d6000803e3d6000fd5b505050506040513d601f19601f820116820180604052508101906104ef9190610d4b565b503373ffffffffffffffffffffffffffffffffffffffff167f77f92a1b6a1a11de8ca49515ad4c1fad45632dd3442167d74b90b304a3c7a7588583604051610538929190610da1565b60405180910390a250505050565b600260009054906101000a900473ffffffffffffffffffffffffffffffffffffffff1681565b60045481565b600360009054906101000a900473ffffffffffffffffffffffffffffffffffffffff1681565b600080600260009054906101000a900473ffffffffffffffffffffffffffffffffffffffff1673ffffffffffffffffffffffffffffffffffffffff1663feaf968c6040518163ffffffff1660e01b815260040160a060405180830381865afa158015610608573d6000803e3d6000fd5b505050506040513d601f19601f8201168201806040525081019061062c9190610e42565b50505091505060008113610675576040517f08c379a000000000000000000000000000000000000000000000000000000000815260040161066c90610f09565b60405180910390fd5b8091505090565b600360009054906101000a900473ffffffffffffffffffffffffffffffffffffffff1673ffffffffffffffffffffffffffffffffffffffff163373ffffffffffffffffffffffffffffffffffffffff161461070c576040517f08c379a000000000000000000000000000000000000000000000000000000000815260040161070390610f75565b60405180910390fd5b60008054906101000a900473ffffffffffffffffffffffffffffffffffffffff1673ffffffffffffffffffffffffffffffffffffffff166323b872dd3330856040518463ffffffff1660e01b815260040161076993929190610cdc565b6020604051808303816000875af1158015610788573d6000803e3d6000fd5b505050506040513d601f19601f820116820180604052508101906107ac9190610d4b565b50600160009054906101000a900473ffffffffffffffffffffffffffffffffffffffff1673ffffffffffffffffffffffffffffffffffffffff166323b872dd3330846040518463ffffffff1660e01b815260040161080c93929190610cdc565b6020604051808303816000875af115801561082b573d6000803e3d6000fd5b505050506040513d601f19601f8201168201806040525081019061084f9190610d4b565b503373ffffffffffffffffffffffffffffffffffffffff167fac1d76749e5447b7b16f5ab61447e1bd502f3bb4807af3b28e620d1700a6ee458383604051610898929190610da1565b60405180910390a25050565b60008054906101000a900473ffffffffffffffffffffffffffffffffffffffff1681565b600073ffffffffffffffffffffffffffffffffffffffff82169050919050565b6000819050919050565b600061090d610908610903846108c8565b6108e8565b6108c8565b9050919050565b600061091f826108f2565b9050919050565b600061093182610914565b9050919050565b61094181610926565b82525050565b600060208201905061095c6000830184610938565b92915050565b600080fd5b6000819050919050565b61097a81610967565b811461098557600080fd5b50565b60008135905061099781610971565b92915050565b6000602082840312156109b3576109b2610962565b5b60006109c184828501610988565b91505092915050565b60006109d582610914565b9050919050565b6109e5816109ca565b82525050565b6000602082019050610a0060008301846109dc565b92915050565b610a0f81610967565b82525050565b6000602082019050610a2a6000830184610a06565b92915050565b6000610a3b826108c8565b9050919050565b610a4b81610a30565b82525050565b6000602082019050610a666000830184610a42565b92915050565b60008060408385031215610a8357610a82610962565b5b6000610a9185828601610988565b9250506020610aa285828601610988565b9150509250929050565b600081519050610abb81610971565b92915050565b600060208284031215610ad757610ad6610962565b5b6000610ae584828501610aac565b91505092915050565b600082825260208201905092915050565b7f4e6f7420656e6f75676820555344540000000000000000000000000000000000600082015250565b6000610b35600f83610aee565b9150610b4082610aff565b602082019050919050565b60006020820190508181036000830152610b6481610b28565b9050919050565b7f4e487b7100000000000000000000000000000000000000000000000000000000600052601160045260246000fd5b6000610ba582610967565b9150610bb083610967565b9250828202610bbe81610967565b91508282048414831517610bd557610bd4610b6b565b5b5092915050565b7f4e487b7100000000000000000000000000000000000000000000000000000000600052601260045260246000fd5b6000610c1682610967565b9150610c2183610967565b925082610c3157610c30610bdc565b5b828204905092915050565b6000610c4782610967565b9150610c5283610967565b9250828203905081811115610c6a57610c69610b6b565b5b92915050565b7f4e6f7420656e6f756768204c494e4b206c697175696469747900000000000000600082015250565b6000610ca6601983610aee565b9150610cb182610c70565b602082019050919050565b60006020820190508181036000830152610cd581610c99565b9050919050565b6000606082019050610cf16000830186610a42565b610cfe6020830185610a42565b610d0b6040830184610a06565b949350505050565b60008115159050919050565b610d2881610d13565b8114610d3357600080fd5b50565b600081519050610d4581610d1f565b92915050565b600060208284031215610d6157610d60610962565b5b6000610d6f84828501610d36565b91505092915050565b6000604082019050610d8d6000830185610a42565b610d9a6020830184610a06565b9392505050565b6000604082019050610db66000830185610a06565b610dc36020830184610a06565b9392505050565b600069ffffffffffffffffffff82169050919050565b610de981610dca565b8114610df457600080fd5b50565b600081519050610e0681610de0565b92915050565b6000819050919050565b610e1f81610e0c565b8114610e2a57600080fd5b50565b600081519050610e3c81610e16565b92915050565b600080600080600060a08688031215610e5e57610e5d610962565b5b6000610e6c88828901610df7565b9550506020610e7d88828901610e2d565b9450506040610e8e88828901610aac565b9350506060610e9f88828901610aac565b9250506080610eb088828901610df7565b9150509295509295909350565b7f496e76616c69642070726963652066726f6d206f7261636c6500000000000000600082015250565b6000610ef3601983610aee565b9150610efe82610ebd565b602082019050919050565b60006020820190508181036000830152610f2281610ee6565b9050919050565b7f4f6e6c79206f776e65722063616e20616464206c697175696469747900000000600082015250565b6000610f5f601c83610aee565b9150610f6a82610f29565b602082019050919050565b60006020820190508181036000830152610f8e81610f52565b905091905056fea2646970667358221220f9cb539aa7b356dcb0665563cb2a1401d796e7aaaf24759e2db6081ab465ed9d64736f6c634300081c0033",
  "linkReferences": {},
  "deployedLinkReferences": {}
}