{
  "_format": "hh-sol-artifact-1",
  "contractName": "TokenFactory",
  "sourceName": "contracts/CustomToken.sol",
  "abi": [
    {
      "inputs": [
        {
          "internalType": "uint256",
          "name": "initialFee",
          "type": "uint256"
        }
      ],
      "stateMutability": "nonpayable",
      "type": "constructor"
    },
    {
      "anonymous": false,
      "inputs": [
        {
          "indexed": false,
          "internalType": "uint256",
          "name": "newFee",
          "type": "uint256"
        }
      ],
      "name": "FeeUpdated",
      "type": "event"
    },
    {
      "anonymous": false,
      "inputs": [
        {
          "indexed": true,
          "internalType": "address",
          "name": "tokenAddress",
          "type": "address"
        },
        {
          "indexed": false,
          "internalType": "string",
          "name": "name",
          "type": "string"
        },
        {
          "indexed": false,
          "internalType": "string",
          "name": "symbol",
          "type": "string"
        },
        {
          "indexed": false,
          "internalType": "uint256",
          "name": "supply",
          "type": "uint256"
        },
        {
          "indexed": false,
          "internalType": "address",
          "name": "creator",
          "type": "address"
        }
      ],
      "name": "TokenCreated",
      "type": "event"
    },
    {
      "inputs": [
        {
          "internalType": "string",
          "name": "name",
          "type": "string"
        },
        {
          "internalType": "string",
          "name": "symbol",
          "type": "string"
        },
        {
          "internalType": "uint256",
          "name": "supply",
          "type": "uint256"
        }
      ],
      "name": "createToken",
      "outputs": [],
      "stateMutability": "payable",
      "type": "function"
    },
    {
      "inputs": [],
      "name": "getBalance",
      "outputs": [
        {
          "internalType": "uint256",
          "name": "",
          "type": "uint256"
        }
      ],
      "stateMutability": "view",
      "type": "function"
    },
    {
      "inputs": [],
      "name": "owner",
      "outputs": [
        {
          "internalType": "address",
          "name": "",
          "type": "address"
        }
      ],
      "stateMutability": "view",
      "type": "function"
    },
    {
      "inputs": [],
      "name": "tokenCreationFee",
      "outputs": [
        {
          "internalType": "uint256",
          "name": "",
          "type": "uint256"
        }
      ],
      "stateMutability": "view",
      "type": "function"
    },
    {
      "inputs": [
        {
          "internalType": "uint256",
          "name": "newFee",
          "type": "uint256"
        }
      ],
      "name": "updateFee",
      "outputs": [],
      "stateMutability": "nonpayable",
      "type": "function"
    },
    {
      "inputs": [],
      "name": "withdraw",
      "outputs": [],
      "stateMutability": "nonpayable",
      "type": "function"
    }
  ],
  "bytecode": "0x6080604052348015600f57600080fd5b5060405161250b38038061250b8339818101604052810190602f919060b1565b336000806101000a81548173ffffffffffffffffffffffffffffffffffffffff021916908373ffffffffffffffffffffffffffffffffffffffff160217905550806001819055505060d9565b600080fd5b6000819050919050565b6091816080565b8114609b57600080fd5b50565b60008151905060ab81608a565b92915050565b60006020828403121560c45760c3607b565b5b600060d084828501609e565b91505092915050565b612423806100e86000396000f3fe6080604052600436106100555760003560e01c806312065fe01461005a5780633ccfd60b14610085578063540a9f6f1461009c5780635b060530146100c75780638da5cb5b146100e35780639012c4a81461010e575b600080fd5b34801561006657600080fd5b5061006f610137565b60405161007c9190610498565b60405180910390f35b34801561009157600080fd5b5061009a61013f565b005b3480156100a857600080fd5b506100b1610236565b6040516100be9190610498565b60405180910390f35b6100e160048036038101906100dc9190610639565b61023c565b005b3480156100ef57600080fd5b506100f861037f565b6040516101059190610705565b60405180910390f35b34801561011a57600080fd5b5061013560048036038101906101309190610720565b6103a3565b005b600047905090565b60008054906101000a900473ffffffffffffffffffffffffffffffffffffffff1673ffffffffffffffffffffffffffffffffffffffff163373ffffffffffffffffffffffffffffffffffffffff16146101cd576040517f08c379a00000000000000000000000000000000000000000000000000000000081526004016101c4906107aa565b60405180910390fd5b60008054906101000a900473ffffffffffffffffffffffffffffffffffffffff1673ffffffffffffffffffffffffffffffffffffffff166108fc479081150290604051600060405180830381858888f19350505050158015610233573d6000803e3d6000fd5b50565b60015481565b6001543414610280576040517f08c379a000000000000000000000000000000000000000000000000000000000815260040161027790610816565b60405180910390fd5b60008383833360405161029290610472565b61029f94939291906108a4565b604051809103906000f0801580156102bb573d6000803e3d6000fd5b5090508073ffffffffffffffffffffffffffffffffffffffff167fb7d8fd3c9d56d12c15c8e139bc4e6febd6ad2349b3ebe6a1a91c0a9e7797710d8585853360405161030a94939291906108a4565b60405180910390a260008054906101000a900473ffffffffffffffffffffffffffffffffffffffff1673ffffffffffffffffffffffffffffffffffffffff166108fc349081150290604051600060405180830381858888f19350505050158015610378573d6000803e3d6000fd5b5050505050565b60008054906101000a900473ffffffffffffffffffffffffffffffffffffffff1681565b60008054906101000a900473ffffffffffffffffffffffffffffffffffffffff1673ffffffffffffffffffffffffffffffffffffffff163373ffffffffffffffffffffffffffffffffffffffff1614610431576040517f08c379a000000000000000000000000000000000000000000000000000000000815260040161042890610943565b60405180910390fd5b806001819055507f8c4d35e54a3f2ef1134138fd8ea3daee6a3c89e10d2665996babdf70261e2c76816040516104679190610498565b60405180910390a150565b611a8a8061096483390190565b6000819050919050565b6104928161047f565b82525050565b60006020820190506104ad6000830184610489565b92915050565b6000604051905090565b600080fd5b600080fd5b600080fd5b600080fd5b6000601f19601f8301169050919050565b7f4e487b7100000000000000000000000000000000000000000000000000000000600052604160045260246000fd5b61051a826104d1565b810181811067ffffffffffffffff82111715610539576105386104e2565b5b80604052505050565b600061054c6104b3565b90506105588282610511565b919050565b600067ffffffffffffffff821115610578576105776104e2565b5b610581826104d1565b9050602081019050919050565b82818337600083830152505050565b60006105b06105ab8461055d565b610542565b9050828152602081018484840111156105cc576105cb6104cc565b5b6105d784828561058e565b509392505050565b600082601f8301126105f4576105f36104c7565b5b813561060484826020860161059d565b91505092915050565b6106168161047f565b811461062157600080fd5b50565b6000813590506106338161060d565b92915050565b600080600060608486031215610652576106516104bd565b5b600084013567ffffffffffffffff8111156106705761066f6104c2565b5b61067c868287016105df565b935050602084013567ffffffffffffffff81111561069d5761069c6104c2565b5b6106a9868287016105df565b92505060406106ba86828701610624565b9150509250925092565b600073ffffffffffffffffffffffffffffffffffffffff82169050919050565b60006106ef826106c4565b9050919050565b6106ff816106e4565b82525050565b600060208201905061071a60008301846106f6565b92915050565b600060208284031215610736576107356104bd565b5b600061074484828501610624565b91505092915050565b600082825260208201905092915050565b7f4f6e6c79206f776e65722063616e207769746864726177000000000000000000600082015250565b600061079460178361074d565b915061079f8261075e565b602082019050919050565b600060208201905081810360008301526107c381610787565b9050919050565b7f496e636f7272656374206665652073656e740000000000000000000000000000600082015250565b600061080060128361074d565b915061080b826107ca565b602082019050919050565b6000602082019050818103600083015261082f816107f3565b9050919050565b600081519050919050565b60005b8381101561085f578082015181840152602081019050610844565b60008484015250505050565b600061087682610836565b610880818561074d565b9350610890818560208601610841565b610899816104d1565b840191505092915050565b600060808201905081810360008301526108be818761086b565b905081810360208301526108d2818661086b565b90506108e16040830185610489565b6108ee60608301846106f6565b95945050505050565b7f4f6e6c79206f776e65722063616e207570646174652074686520666565000000600082015250565b600061092d601d8361074d565b9150610938826108f7565b602082019050919050565b6000602082019050818103600083015261095c81610920565b905091905056fe608060405234801561001057600080fd5b50604051611a8a380380611a8a83398181016040528101906100329190610593565b838381600390816100439190610849565b5080600490816100539190610849565b50505061008a816100686100d460201b60201c565b600a6100749190610a8a565b8461007f9190610ad5565b6100dd60201b60201c565b80600560006101000a81548173ffffffffffffffffffffffffffffffffffffffff021916908373ffffffffffffffffffffffffffffffffffffffff16021790555050505050610bd6565b60006012905090565b600073ffffffffffffffffffffffffffffffffffffffff168273ffffffffffffffffffffffffffffffffffffffff160361014f5760006040517fec442f050000000000000000000000000000000000000000000000000000000081526004016101469190610b26565b60405180910390fd5b6101616000838361016560201b60201c565b5050565b600073ffffffffffffffffffffffffffffffffffffffff168373ffffffffffffffffffffffffffffffffffffffff16036101b75780600260008282546101ab9190610b41565b9250508190555061028a565b60008060008573ffffffffffffffffffffffffffffffffffffffff1673ffffffffffffffffffffffffffffffffffffffff16815260200190815260200160002054905081811015610243578381836040517fe450d38c00000000000000000000000000000000000000000000000000000000815260040161023a93929190610b84565b60405180910390fd5b8181036000808673ffffffffffffffffffffffffffffffffffffffff1673ffffffffffffffffffffffffffffffffffffffff16815260200190815260200160002081905550505b600073ffffffffffffffffffffffffffffffffffffffff168273ffffffffffffffffffffffffffffffffffffffff16036102d35780600260008282540392505081905550610320565b806000808473ffffffffffffffffffffffffffffffffffffffff1673ffffffffffffffffffffffffffffffffffffffff168152602001908152602001600020600082825401925050819055505b8173ffffffffffffffffffffffffffffffffffffffff168373ffffffffffffffffffffffffffffffffffffffff167fddf252ad1be2c89b69c2b068fc378daa952ba7f163c4a11628f55a4df523b3ef8360405161037d9190610bbb565b60405180910390a3505050565b6000604051905090565b600080fd5b600080fd5b600080fd5b600080fd5b6000601f19601f8301169050919050565b7f4e487b7100000000000000000000000000000000000000000000000000000000600052604160045260246000fd5b6103f1826103a8565b810181811067ffffffffffffffff821117156104105761040f6103b9565b5b80604052505050565b600061042361038a565b905061042f82826103e8565b919050565b600067ffffffffffffffff82111561044f5761044e6103b9565b5b610458826103a8565b9050602081019050919050565b60005b83811015610483578082015181840152602081019050610468565b60008484015250505050565b60006104a261049d84610434565b610419565b9050828152602081018484840111156104be576104bd6103a3565b5b6104c9848285610465565b509392505050565b600082601f8301126104e6576104e561039e565b5b81516104f684826020860161048f565b91505092915050565b6000819050919050565b610512816104ff565b811461051d57600080fd5b50565b60008151905061052f81610509565b92915050565b600073ffffffffffffffffffffffffffffffffffffffff82169050919050565b600061056082610535565b9050919050565b61057081610555565b811461057b57600080fd5b50565b60008151905061058d81610567565b92915050565b600080600080608085870312156105ad576105ac610394565b5b600085015167ffffffffffffffff8111156105cb576105ca610399565b5b6105d7878288016104d1565b945050602085015167ffffffffffffffff8111156105f8576105f7610399565b5b610604878288016104d1565b935050604061061587828801610520565b92505060606106268782880161057e565b91505092959194509250565b600081519050919050565b7f4e487b7100000000000000000000000000000000000000000000000000000000600052602260045260246000fd5b6000600282049050600182168061068457607f821691505b6020821081036106975761069661063d565b5b50919050565b60008190508160005260206000209050919050565b60006020601f8301049050919050565b600082821b905092915050565b6000600883026106ff7fffffffffffffffffffffffffffffffffffffffffffffffffffffffffffffffff826106c2565b61070986836106c2565b95508019841693508086168417925050509392505050565b6000819050919050565b600061074661074161073c846104ff565b610721565b6104ff565b9050919050565b6000819050919050565b6107608361072b565b61077461076c8261074d565b8484546106cf565b825550505050565b600090565b61078961077c565b610794818484610757565b505050565b5b818110156107b8576107ad600082610781565b60018101905061079a565b5050565b601f8211156107fd576107ce8161069d565b6107d7846106b2565b810160208510156107e6578190505b6107fa6107f2856106b2565b830182610799565b50505b505050565b600082821c905092915050565b600061082060001984600802610802565b1980831691505092915050565b6000610839838361080f565b9150826002028217905092915050565b61085282610632565b67ffffffffffffffff81111561086b5761086a6103b9565b5b610875825461066c565b6108808282856107bc565b600060209050601f8311600181146108b357600084156108a1578287015190505b6108ab858261082d565b865550610913565b601f1984166108c18661069d565b60005b828110156108e9578489015182556001820191506020850194506020810190506108c4565b868310156109065784890151610902601f89168261080f565b8355505b6001600288020188555050505b505050505050565b7f4e487b7100000000000000000000000000000000000000000000000000000000600052601160045260246000fd5b60008160011c9050919050565b6000808291508390505b60018511156109a15780860481111561097d5761097c61091b565b5b600185161561098c5780820291505b808102905061099a8561094a565b9450610961565b94509492505050565b6000826109ba5760019050610a76565b816109c85760009050610a76565b81600181146109de57600281146109e857610a17565b6001915050610a76565b60ff8411156109fa576109f961091b565b5b8360020a915084821115610a1157610a1061091b565b5b50610a76565b5060208310610133831016604e8410600b8410161715610a4c5782820a905083811115610a4757610a4661091b565b5b610a76565b610a598484846001610957565b92509050818404811115610a7057610a6f61091b565b5b81810290505b9392505050565b600060ff82169050919050565b6000610a95826104ff565b9150610aa083610a7d565b9250610acd7fffffffffffffffffffffffffffffffffffffffffffffffffffffffffffffffff84846109aa565b905092915050565b6000610ae0826104ff565b9150610aeb836104ff565b9250828202610af9816104ff565b91508282048414831517610b1057610b0f61091b565b5b5092915050565b610b2081610555565b82525050565b6000602082019050610b3b6000830184610b17565b92915050565b6000610b4c826104ff565b9150610b57836104ff565b9250828201905080821115610b6f57610b6e61091b565b5b92915050565b610b7e816104ff565b82525050565b6000606082019050610b996000830186610b17565b610ba66020830185610b75565b610bb36040830184610b75565b949350505050565b6000602082019050610bd06000830184610b75565b92915050565b610ea580610be56000396000f3fe608060405234801561001057600080fd5b506004361061009e5760003560e01c806370a082311161006657806370a082311461015d5780638da5cb5b1461018d57806395d89b41146101ab578063a9059cbb146101c9578063dd62ed3e146101f95761009e565b806306fdde03146100a3578063095ea7b3146100c157806318160ddd146100f157806323b872dd1461010f578063313ce5671461013f575b600080fd5b6100ab610229565b6040516100b89190610af9565b60405180910390f35b6100db60048036038101906100d69190610bb4565b6102bb565b6040516100e89190610c0f565b60405180910390f35b6100f96102de565b6040516101069190610c39565b60405180910390f35b61012960048036038101906101249190610c54565b6102e8565b6040516101369190610c0f565b60405180910390f35b610147610317565b6040516101549190610cc3565b60405180910390f35b61017760048036038101906101729190610cde565b610320565b6040516101849190610c39565b60405180910390f35b610195610368565b6040516101a29190610d1a565b60405180910390f35b6101b361038e565b6040516101c09190610af9565b60405180910390f35b6101e360048036038101906101de9190610bb4565b610420565b6040516101f09190610c0f565b60405180910390f35b610213600480360381019061020e9190610d35565b610443565b6040516102209190610c39565b60405180910390f35b60606003805461023890610da4565b80601f016020809104026020016040519081016040528092919081815260200182805461026490610da4565b80156102b15780601f10610286576101008083540402835291602001916102b1565b820191906000526020600020905b81548152906001019060200180831161029457829003601f168201915b5050505050905090565b6000806102c66104ca565b90506102d38185856104d2565b600191505092915050565b6000600254905090565b6000806102f36104ca565b90506103008582856104e4565b61030b858585610579565b60019150509392505050565b60006012905090565b60008060008373ffffffffffffffffffffffffffffffffffffffff1673ffffffffffffffffffffffffffffffffffffffff168152602001908152602001600020549050919050565b600560009054906101000a900473ffffffffffffffffffffffffffffffffffffffff1681565b60606004805461039d90610da4565b80601f01602080910402602001604051908101604052809291908181526020018280546103c990610da4565b80156104165780601f106103eb57610100808354040283529160200191610416565b820191906000526020600020905b8154815290600101906020018083116103f957829003601f168201915b5050505050905090565b60008061042b6104ca565b9050610438818585610579565b600191505092915050565b6000600160008473ffffffffffffffffffffffffffffffffffffffff1673ffffffffffffffffffffffffffffffffffffffff16815260200190815260200160002060008373ffffffffffffffffffffffffffffffffffffffff1673ffffffffffffffffffffffffffffffffffffffff16815260200190815260200160002054905092915050565b600033905090565b6104df838383600161066d565b505050565b60006104f08484610443565b90507fffffffffffffffffffffffffffffffffffffffffffffffffffffffffffffffff8110156105735781811015610563578281836040517ffb8f41b200000000000000000000000000000000000000000000000000000000815260040161055a93929190610dd5565b60405180910390fd5b6105728484848403600061066d565b5b50505050565b600073ffffffffffffffffffffffffffffffffffffffff168373ffffffffffffffffffffffffffffffffffffffff16036105eb5760006040517f96c6fd1e0000000000000000000000000000000000000000000000000000000081526004016105e29190610d1a565b60405180910390fd5b600073ffffffffffffffffffffffffffffffffffffffff168273ffffffffffffffffffffffffffffffffffffffff160361065d5760006040517fec442f050000000000000000000000000000000000000000000000000000000081526004016106549190610d1a565b60405180910390fd5b610668838383610844565b505050565b600073ffffffffffffffffffffffffffffffffffffffff168473ffffffffffffffffffffffffffffffffffffffff16036106df5760006040517fe602df050000000000000000000000000000000000000000000000000000000081526004016106d69190610d1a565b60405180910390fd5b600073ffffffffffffffffffffffffffffffffffffffff168373ffffffffffffffffffffffffffffffffffffffff16036107515760006040517f94280d620000000000000000000000000000000000000000000000000000000081526004016107489190610d1a565b60405180910390fd5b81600160008673ffffffffffffffffffffffffffffffffffffffff1673ffffffffffffffffffffffffffffffffffffffff16815260200190815260200160002060008573ffffffffffffffffffffffffffffffffffffffff1673ffffffffffffffffffffffffffffffffffffffff16815260200190815260200160002081905550801561083e578273ffffffffffffffffffffffffffffffffffffffff168473ffffffffffffffffffffffffffffffffffffffff167f8c5be1e5ebec7d5bd14f71427d1e84f3dd0314c0f7b2291e5b200ac8c7c3b925846040516108359190610c39565b60405180910390a35b50505050565b600073ffffffffffffffffffffffffffffffffffffffff168373ffffffffffffffffffffffffffffffffffffffff160361089657806002600082825461088a9190610e3b565b92505081905550610969565b60008060008573ffffffffffffffffffffffffffffffffffffffff1673ffffffffffffffffffffffffffffffffffffffff16815260200190815260200160002054905081811015610922578381836040517fe450d38c00000000000000000000000000000000000000000000000000000000815260040161091993929190610dd5565b60405180910390fd5b8181036000808673ffffffffffffffffffffffffffffffffffffffff1673ffffffffffffffffffffffffffffffffffffffff16815260200190815260200160002081905550505b600073ffffffffffffffffffffffffffffffffffffffff168273ffffffffffffffffffffffffffffffffffffffff16036109b257806002600082825403925050819055506109ff565b806000808473ffffffffffffffffffffffffffffffffffffffff1673ffffffffffffffffffffffffffffffffffffffff168152602001908152602001600020600082825401925050819055505b8173ffffffffffffffffffffffffffffffffffffffff168373ffffffffffffffffffffffffffffffffffffffff167fddf252ad1be2c89b69c2b068fc378daa952ba7f163c4a11628f55a4df523b3ef83604051610a5c9190610c39565b60405180910390a3505050565b600081519050919050565b600082825260208201905092915050565b60005b83811015610aa3578082015181840152602081019050610a88565b60008484015250505050565b6000601f19601f8301169050919050565b6000610acb82610a69565b610ad58185610a74565b9350610ae5818560208601610a85565b610aee81610aaf565b840191505092915050565b60006020820190508181036000830152610b138184610ac0565b905092915050565b600080fd5b600073ffffffffffffffffffffffffffffffffffffffff82169050919050565b6000610b4b82610b20565b9050919050565b610b5b81610b40565b8114610b6657600080fd5b50565b600081359050610b7881610b52565b92915050565b6000819050919050565b610b9181610b7e565b8114610b9c57600080fd5b50565b600081359050610bae81610b88565b92915050565b60008060408385031215610bcb57610bca610b1b565b5b6000610bd985828601610b69565b9250506020610bea85828601610b9f565b9150509250929050565b60008115159050919050565b610c0981610bf4565b82525050565b6000602082019050610c246000830184610c00565b92915050565b610c3381610b7e565b82525050565b6000602082019050610c4e6000830184610c2a565b92915050565b600080600060608486031215610c6d57610c6c610b1b565b5b6000610c7b86828701610b69565b9350506020610c8c86828701610b69565b9250506040610c9d86828701610b9f565b9150509250925092565b600060ff82169050919050565b610cbd81610ca7565b82525050565b6000602082019050610cd86000830184610cb4565b92915050565b600060208284031215610cf457610cf3610b1b565b5b6000610d0284828501610b69565b91505092915050565b610d1481610b40565b82525050565b6000602082019050610d2f6000830184610d0b565b92915050565b60008060408385031215610d4c57610d4b610b1b565b5b6000610d5a85828601610b69565b9250506020610d6b85828601610b69565b9150509250929050565b7f4e487b7100000000000000000000000000000000000000000000000000000000600052602260045260246000fd5b60006002820490506001821680610dbc57607f821691505b602082108103610dcf57610dce610d75565b5b50919050565b6000606082019050610dea6000830186610d0b565b610df76020830185610c2a565b610e046040830184610c2a565b949350505050565b7f4e487b7100000000000000000000000000000000000000000000000000000000600052601160045260246000fd5b6000610e4682610b7e565b9150610e5183610b7e565b9250828201905080821115610e6957610e68610e0c565b5b9291505056fea264697066735822122076c6bece2995ea17c1d7ae92656e9b66600c16e27d9a6933722d2bdb4cd9617b64736f6c634300081c0033a2646970667358221220a2e33307f75844a5df8f52fb8877fcf356b2ba7636f4a4d1f3c3e843276cd3b364736f6c634300081c0033",
  "linkReferences": {},
  "deployedLinkReferences": {}
}