{
  "_format": "hh-sol-artifact-1",
  "contractName": "LiquidityPool",
  "sourceName": "contracts/LiquidityPool.sol",
  "abi": [
    {
      "inputs": [
        {
          "internalType": "address",
          "name": "_tokenA",
          "type": "address"
        },
        {
          "internalType": "address",
          "name": "_tokenB",
          "type": "address"
        },
        {
          "internalType": "address",
          "name": "_priceFeedA",
          "type": "address"
        },
        {
          "internalType": "address",
          "name": "_priceFeedB",
          "type": "address"
        }
      ],
      "stateMutability": "nonpayable",
      "type": "constructor"
    },
    {
      "inputs": [
        {
          "internalType": "address",
          "name": "token",
          "type": "address"
        }
      ],
      "name": "SafeERC20FailedOperation",
      "type": "error"
    },
    {
      "anonymous": false,
      "inputs": [
        {
          "indexed": true,
          "internalType": "address",
          "name": "user",
          "type": "address"
        },
        {
          "indexed": true,
          "internalType": "address",
          "name": "fromToken",
          "type": "address"
        },
        {
          "indexed": true,
          "internalType": "address",
          "name": "toToken",
          "type": "address"
        },
        {
          "indexed": false,
          "internalType": "uint256",
          "name": "amountIn",
          "type": "uint256"
        },
        {
          "indexed": false,
          "internalType": "uint256",
          "name": "amountOut",
          "type": "uint256"
        },
        {
          "indexed": false,
          "internalType": "uint256",
          "name": "fee",
          "type": "uint256"
        }
      ],
      "name": "SwapCompleted",
      "type": "event"
    },
    {
      "inputs": [],
      "name": "FEE_PERCENT",
      "outputs": [
        {
          "internalType": "uint256",
          "name": "",
          "type": "uint256"
        }
      ],
      "stateMutability": "view",
      "type": "function"
    },
    {
      "inputs": [
        {
          "internalType": "address",
          "name": "spender",
          "type": "address"
        }
      ],
      "name": "approveContract",
      "outputs": [],
      "stateMutability": "nonpayable",
      "type": "function"
    },
    {
      "inputs": [
        {
          "internalType": "contract AggregatorV3Interface",
          "name": "priceFeed",
          "type": "address"
        }
      ],
      "name": "getLatestPrice",
      "outputs": [
        {
          "internalType": "uint256",
          "name": "",
          "type": "uint256"
        }
      ],
      "stateMutability": "view",
      "type": "function"
    },
    {
      "inputs": [],
      "name": "owner",
      "outputs": [
        {
          "internalType": "address",
          "name": "",
          "type": "address"
        }
      ],
      "stateMutability": "view",
      "type": "function"
    },
    {
      "inputs": [],
      "name": "priceFeedA",
      "outputs": [
        {
          "internalType": "contract AggregatorV3Interface",
          "name": "",
          "type": "address"
        }
      ],
      "stateMutability": "view",
      "type": "function"
    },
    {
      "inputs": [],
      "name": "priceFeedB",
      "outputs": [
        {
          "internalType": "contract AggregatorV3Interface",
          "name": "",
          "type": "address"
        }
      ],
      "stateMutability": "view",
      "type": "function"
    },
    {
      "inputs": [
        {
          "internalType": "address",
          "name": "fromToken",
          "type": "address"
        },
        {
          "internalType": "address",
          "name": "toToken",
          "type": "address"
        },
        {
          "internalType": "uint256",
          "name": "amountIn",
          "type": "uint256"
        }
      ],
      "name": "swap",
      "outputs": [
        {
          "internalType": "uint256",
          "name": "amountOut",
          "type": "uint256"
        }
      ],
      "stateMutability": "nonpayable",
      "type": "function"
    },
    {
      "inputs": [],
      "name": "tokenA",
      "outputs": [
        {
          "internalType": "address",
          "name": "",
          "type": "address"
        }
      ],
      "stateMutability": "view",
      "type": "function"
    },
    {
      "inputs": [],
      "name": "tokenB",
      "outputs": [
        {
          "internalType": "address",
          "name": "",
          "type": "address"
        }
      ],
      "stateMutability": "view",
      "type": "function"
    }
  ],
  "bytecode": "0x608060405234801561001057600080fd5b506040516114ce3803806114ce833981810160405281019061003291906101e2565b33600460006101000a81548173ffffffffffffffffffffffffffffffffffffffff021916908373ffffffffffffffffffffffffffffffffffffffff160217905550836000806101000a81548173ffffffffffffffffffffffffffffffffffffffff021916908373ffffffffffffffffffffffffffffffffffffffff16021790555082600160006101000a81548173ffffffffffffffffffffffffffffffffffffffff021916908373ffffffffffffffffffffffffffffffffffffffff16021790555081600260006101000a81548173ffffffffffffffffffffffffffffffffffffffff021916908373ffffffffffffffffffffffffffffffffffffffff16021790555080600360006101000a81548173ffffffffffffffffffffffffffffffffffffffff021916908373ffffffffffffffffffffffffffffffffffffffff16021790555050505050610249565b600080fd5b600073ffffffffffffffffffffffffffffffffffffffff82169050919050565b60006101af82610184565b9050919050565b6101bf816101a4565b81146101ca57600080fd5b50565b6000815190506101dc816101b6565b92915050565b600080600080608085870312156101fc576101fb61017f565b5b600061020a878288016101cd565b945050602061021b878288016101cd565b935050604061022c878288016101cd565b925050606061023d878288016101cd565b91505092959194509250565b611276806102586000396000f3fe608060405234801561001057600080fd5b50600436106100935760003560e01c8063383cae1d11610066578063383cae1d146101205780635f64b55b1461013e5780638da5cb5b1461015c578063df791e501461017a578063eaf98d23146101aa57610093565b806307f7aafb146100985780630fc63d10146100b457806314c04ff1146100d257806316345f18146100f0575b600080fd5b6100b260048036038101906100ad9190610b25565b6101c8565b005b6100bc6103db565b6040516100c99190610b61565b60405180910390f35b6100da6103ff565b6040516100e79190610bdb565b60405180910390f35b61010a60048036038101906101059190610c34565b610425565b6040516101179190610c7a565b60405180910390f35b61012861052a565b6040516101359190610bdb565b60405180910390f35b610146610550565b6040516101539190610b61565b60405180910390f35b610164610576565b6040516101719190610b61565b60405180910390f35b610194600480360381019061018f9190610cc1565b61059c565b6040516101a19190610c7a565b60405180910390f35b6101b261099c565b6040516101bf9190610c7a565b60405180910390f35b600460009054906101000a900473ffffffffffffffffffffffffffffffffffffffff1673ffffffffffffffffffffffffffffffffffffffff163373ffffffffffffffffffffffffffffffffffffffff1614610258576040517f08c379a000000000000000000000000000000000000000000000000000000000815260040161024f90610d71565b60405180910390fd5b60008054906101000a900473ffffffffffffffffffffffffffffffffffffffff1673ffffffffffffffffffffffffffffffffffffffff1663095ea7b3827fffffffffffffffffffffffffffffffffffffffffffffffffffffffffffffffff6040518363ffffffff1660e01b81526004016102d3929190610d91565b6020604051808303816000875af11580156102f2573d6000803e3d6000fd5b505050506040513d601f19601f820116820180604052508101906103169190610df2565b50600160009054906101000a900473ffffffffffffffffffffffffffffffffffffffff1673ffffffffffffffffffffffffffffffffffffffff1663095ea7b3827fffffffffffffffffffffffffffffffffffffffffffffffffffffffffffffffff6040518363ffffffff1660e01b8152600401610394929190610d91565b6020604051808303816000875af11580156103b3573d6000803e3d6000fd5b505050506040513d601f19601f820116820180604052508101906103d79190610df2565b5050565b60008054906101000a900473ffffffffffffffffffffffffffffffffffffffff1681565b600360009054906101000a900473ffffffffffffffffffffffffffffffffffffffff1681565b60008073ffffffffffffffffffffffffffffffffffffffff168273ffffffffffffffffffffffffffffffffffffffff1603610466576305f5e1009050610525565b60008273ffffffffffffffffffffffffffffffffffffffff1663feaf968c6040518163ffffffff1660e01b815260040160a060405180830381865afa1580156104b3573d6000803e3d6000fd5b505050506040513d601f19601f820116820180604052508101906104d79190610eac565b50505091505060008113610520576040517f08c379a000000000000000000000000000000000000000000000000000000000815260040161051790610f73565b60405180910390fd5b809150505b919050565b600260009054906101000a900473ffffffffffffffffffffffffffffffffffffffff1681565b600160009054906101000a900473ffffffffffffffffffffffffffffffffffffffff1681565b600460009054906101000a900473ffffffffffffffffffffffffffffffffffffffff1681565b60008060009054906101000a900473ffffffffffffffffffffffffffffffffffffffff1673ffffffffffffffffffffffffffffffffffffffff168473ffffffffffffffffffffffffffffffffffffffff1614806106465750600160009054906101000a900473ffffffffffffffffffffffffffffffffffffffff1673ffffffffffffffffffffffffffffffffffffffff168473ffffffffffffffffffffffffffffffffffffffff16145b610685576040517f08c379a000000000000000000000000000000000000000000000000000000000815260040161067c90610fdf565b60405180910390fd5b60008060009054906101000a900473ffffffffffffffffffffffffffffffffffffffff1673ffffffffffffffffffffffffffffffffffffffff168573ffffffffffffffffffffffffffffffffffffffff1614905060008161070857600360009054906101000a900473ffffffffffffffffffffffffffffffffffffffff1661072c565b600260009054906101000a900473ffffffffffffffffffffffffffffffffffffffff165b905060008261075d57600260009054906101000a900473ffffffffffffffffffffffffffffffffffffffff16610781565b600360009054906101000a900473ffffffffffffffffffffffffffffffffffffffff165b9050600061078e83610425565b9050600061079b83610425565b905060008183896107ac919061102e565b6107b6919061109f565b905060006103e86003836107ca919061102e565b6107d4919061109f565b905080826107e291906110d0565b975060008811610827576040517f08c379a000000000000000000000000000000000000000000000000000000000815260040161081e90611150565b60405180910390fd5b878a73ffffffffffffffffffffffffffffffffffffffff166370a08231306040518263ffffffff1660e01b81526004016108619190610b61565b602060405180830381865afa15801561087e573d6000803e3d6000fd5b505050506040513d601f19601f820116820180604052508101906108a29190611170565b10156108e3576040517f08c379a00000000000000000000000000000000000000000000000000000000081526004016108da906111e9565b60405180910390fd5b61090e33898c73ffffffffffffffffffffffffffffffffffffffff166109a19092919063ffffffff16565b8973ffffffffffffffffffffffffffffffffffffffff168b73ffffffffffffffffffffffffffffffffffffffff163373ffffffffffffffffffffffffffffffffffffffff167fbbf280283a592bb9762694aa5ef9608080da5e0668ea7e2de65736717bb1316e8c8c8660405161098693929190611209565b60405180910390a4505050505050509392505050565b600381565b610a1b838473ffffffffffffffffffffffffffffffffffffffff1663a9059cbb85856040516024016109d4929190610d91565b604051602081830303815290604052915060e01b6020820180517bffffffffffffffffffffffffffffffffffffffffffffffffffffffff8381831617835250505050610a20565b505050565b600080602060008451602086016000885af180610a43576040513d6000823e3d81fd5b3d925060005191505060008214610a5e576001811415610a7a565b60008473ffffffffffffffffffffffffffffffffffffffff163b145b15610abc57836040517f5274afe7000000000000000000000000000000000000000000000000000000008152600401610ab39190610b61565b60405180910390fd5b50505050565b600080fd5b600073ffffffffffffffffffffffffffffffffffffffff82169050919050565b6000610af282610ac7565b9050919050565b610b0281610ae7565b8114610b0d57600080fd5b50565b600081359050610b1f81610af9565b92915050565b600060208284031215610b3b57610b3a610ac2565b5b6000610b4984828501610b10565b91505092915050565b610b5b81610ae7565b82525050565b6000602082019050610b766000830184610b52565b92915050565b6000819050919050565b6000610ba1610b9c610b9784610ac7565b610b7c565b610ac7565b9050919050565b6000610bb382610b86565b9050919050565b6000610bc582610ba8565b9050919050565b610bd581610bba565b82525050565b6000602082019050610bf06000830184610bcc565b92915050565b6000610c0182610ae7565b9050919050565b610c1181610bf6565b8114610c1c57600080fd5b50565b600081359050610c2e81610c08565b92915050565b600060208284031215610c4a57610c49610ac2565b5b6000610c5884828501610c1f565b91505092915050565b6000819050919050565b610c7481610c61565b82525050565b6000602082019050610c8f6000830184610c6b565b92915050565b610c9e81610c61565b8114610ca957600080fd5b50565b600081359050610cbb81610c95565b92915050565b600080600060608486031215610cda57610cd9610ac2565b5b6000610ce886828701610b10565b9350506020610cf986828701610b10565b9250506040610d0a86828701610cac565b9150509250925092565b600082825260208201905092915050565b7f4f6e6c79206f776e65722063616e20617070726f766500000000000000000000600082015250565b6000610d5b601683610d14565b9150610d6682610d25565b602082019050919050565b60006020820190508181036000830152610d8a81610d4e565b9050919050565b6000604082019050610da66000830185610b52565b610db36020830184610c6b565b9392505050565b60008115159050919050565b610dcf81610dba565b8114610dda57600080fd5b50565b600081519050610dec81610dc6565b92915050565b600060208284031215610e0857610e07610ac2565b5b6000610e1684828501610ddd565b91505092915050565b600069ffffffffffffffffffff82169050919050565b610e3e81610e1f565b8114610e4957600080fd5b50565b600081519050610e5b81610e35565b92915050565b6000819050919050565b610e7481610e61565b8114610e7f57600080fd5b50565b600081519050610e9181610e6b565b92915050565b600081519050610ea681610c95565b92915050565b600080600080600060a08688031215610ec857610ec7610ac2565b5b6000610ed688828901610e4c565b9550506020610ee788828901610e82565b9450506040610ef888828901610e97565b9350506060610f0988828901610e97565b9250506080610f1a88828901610e4c565b9150509295509295909350565b7f496e76616c69642070726963652066726f6d206f7261636c6500000000000000600082015250565b6000610f5d601983610d14565b9150610f6882610f27565b602082019050919050565b60006020820190508181036000830152610f8c81610f50565b9050919050565b7f496e76616c696420746f6b656e00000000000000000000000000000000000000600082015250565b6000610fc9600d83610d14565b9150610fd482610f93565b602082019050919050565b60006020820190508181036000830152610ff881610fbc565b9050919050565b7f4e487b7100000000000000000000000000000000000000000000000000000000600052601160045260246000fd5b600061103982610c61565b915061104483610c61565b925082820261105281610c61565b9150828204841483151761106957611068610fff565b5b5092915050565b7f4e487b7100000000000000000000000000000000000000000000000000000000600052601260045260246000fd5b60006110aa82610c61565b91506110b583610c61565b9250826110c5576110c4611070565b5b828204905092915050565b60006110db82610c61565b91506110e683610c61565b92508282039050818111156110fe576110fd610fff565b5b92915050565b7f5377617020616d6f756e7420746f6f206c6f7700000000000000000000000000600082015250565b600061113a601383610d14565b915061114582611104565b602082019050919050565b600060208201905081810360008301526111698161112d565b9050919050565b60006020828403121561118657611185610ac2565b5b600061119484828501610e97565b91505092915050565b7f496e73756666696369656e74206c697175696469747900000000000000000000600082015250565b60006111d3601683610d14565b91506111de8261119d565b602082019050919050565b60006020820190508181036000830152611202816111c6565b9050919050565b600060608201905061121e6000830186610c6b565b61122b6020830185610c6b565b6112386040830184610c6b565b94935050505056fea26469706673582212209b53479ee8c763bbb0b246e2bf506250b2c2340281b2dfc2ea0cc4216ad35fe564736f6c634300081c0033",
  "linkReferences": {},
  "deployedLinkReferences": {}
}