{
  "_format": "hh-sol-artifact-1",
  "contractName": "SendETHWithFee",
  "sourceName": "contracts/SendETHWithFee.sol",
  "abi": [
    {
      "inputs": [],
      "stateMutability": "nonpayable",
      "type": "constructor"
    },
    {
      "anonymous": false,
      "inputs": [
        {
          "indexed": false,
          "internalType": "uint256",
          "name": "newFeePercentage",
          "type": "uint256"
        }
      ],
      "name": "FeeUpdated",
      "type": "event"
    },
    {
      "anonymous": false,
      "inputs": [
        {
          "indexed": true,
          "internalType": "address",
          "name": "from",
          "type": "address"
        },
        {
          "indexed": true,
          "internalType": "address",
          "name": "to",
          "type": "address"
        },
        {
          "indexed": false,
          "internalType": "uint256",
          "name": "amount",
          "type": "uint256"
        },
        {
          "indexed": false,
          "internalType": "address",
          "name": "token",
          "type": "address"
        }
      ],
      "name": "Sent",
      "type": "event"
    },
    {
      "anonymous": false,
      "inputs": [
        {
          "indexed": true,
          "internalType": "address",
          "name": "token",
          "type": "address"
        },
        {
          "indexed": false,
          "internalType": "uint256",
          "name": "amount",
          "type": "uint256"
        }
      ],
      "name": "TokenWithdrawn",
      "type": "event"
    },
    {
      "anonymous": false,
      "inputs": [
        {
          "indexed": true,
          "internalType": "address",
          "name": "owner",
          "type": "address"
        },
        {
          "indexed": false,
          "internalType": "uint256",
          "name": "amount",
          "type": "uint256"
        }
      ],
      "name": "Withdrawn",
      "type": "event"
    },
    {
      "inputs": [],
      "name": "feePercentage",
      "outputs": [
        {
          "internalType": "uint256",
          "name": "",
          "type": "uint256"
        }
      ],
      "stateMutability": "view",
      "type": "function"
    },
    {
      "inputs": [],
      "name": "owner",
      "outputs": [
        {
          "internalType": "address payable",
          "name": "",
          "type": "address"
        }
      ],
      "stateMutability": "view",
      "type": "function"
    },
    {
      "inputs": [
        {
          "internalType": "address",
          "name": "_token",
          "type": "address"
        },
        {
          "internalType": "address payable",
          "name": "_to",
          "type": "address"
        },
        {
          "internalType": "uint256",
          "name": "_amount",
          "type": "uint256"
        }
      ],
      "name": "sendFunds",
      "outputs": [],
      "stateMutability": "payable",
      "type": "function"
    },
    {
      "inputs": [
        {
          "internalType": "uint256",
          "name": "_newFeePercentage",
          "type": "uint256"
        }
      ],
      "name": "setFeePercentage",
      "outputs": [],
      "stateMutability": "nonpayable",
      "type": "function"
    },
    {
      "inputs": [],
      "name": "withdraw",
      "outputs": [],
      "stateMutability": "nonpayable",
      "type": "function"
    },
    {
      "inputs": [
        {
          "internalType": "address",
          "name": "_token",
          "type": "address"
        }
      ],
      "name": "withdrawTokens",
      "outputs": [],
      "stateMutability": "nonpayable",
      "type": "function"
    },
    {
      "stateMutability": "payable",
      "type": "receive"
    }
  ],
  "bytecode": "0x6080604052601e600155348015601457600080fd5b50336000806101000a81548173ffffffffffffffffffffffffffffffffffffffff021916908373ffffffffffffffffffffffffffffffffffffffff16021790555061172f806100646000396000f3fe6080604052600436106100595760003560e01c80633ccfd60b1461006557806349df728c1461007c5780638da5cb5b146100a5578063a001ecdd146100d0578063ae06c1b7146100fb578063e0ca14741461012457610060565b3661006057005b600080fd5b34801561007157600080fd5b5061007a610140565b005b34801561008857600080fd5b506100a3600480360381019061009e9190610cf3565b610355565b005b3480156100b157600080fd5b506100ba6105d9565b6040516100c79190610d41565b60405180910390f35b3480156100dc57600080fd5b506100e56105fd565b6040516100f29190610d75565b60405180910390f35b34801561010757600080fd5b50610122600480360381019061011d9190610dbc565b610603565b005b61013e60048036038101906101399190610e15565b610717565b005b60008054906101000a900473ffffffffffffffffffffffffffffffffffffffff1673ffffffffffffffffffffffffffffffffffffffff163373ffffffffffffffffffffffffffffffffffffffff16146101ce576040517f08c379a00000000000000000000000000000000000000000000000000000000081526004016101c590610ec5565b60405180910390fd5b600047905060008111610216576040517f08c379a000000000000000000000000000000000000000000000000000000000815260040161020d90610f31565b60405180910390fd5b60008060009054906101000a900473ffffffffffffffffffffffffffffffffffffffff1673ffffffffffffffffffffffffffffffffffffffff168260405161025d90610f82565b60006040518083038185875af1925050503d806000811461029a576040519150601f19603f3d011682016040523d82523d6000602084013e61029f565b606091505b50509050806102e3576040517f08c379a00000000000000000000000000000000000000000000000000000000081526004016102da90610fe3565b60405180910390fd5b60008054906101000a900473ffffffffffffffffffffffffffffffffffffffff1673ffffffffffffffffffffffffffffffffffffffff167f7084f5476618d8e60b11ef0d7d3f06914655adb8793e28ff7f018d4c76d505d5836040516103499190610d75565b60405180910390a25050565b60008054906101000a900473ffffffffffffffffffffffffffffffffffffffff1673ffffffffffffffffffffffffffffffffffffffff163373ffffffffffffffffffffffffffffffffffffffff16146103e3576040517f08c379a00000000000000000000000000000000000000000000000000000000081526004016103da90610ec5565b60405180910390fd5b600081905060008173ffffffffffffffffffffffffffffffffffffffff166370a08231306040518263ffffffff1660e01b81526004016104239190611012565b602060405180830381865afa158015610440573d6000803e3d6000fd5b505050506040513d601f19601f820116820180604052508101906104649190611042565b9050600081116104a9576040517f08c379a00000000000000000000000000000000000000000000000000000000081526004016104a0906110bb565b60405180910390fd5b8173ffffffffffffffffffffffffffffffffffffffff1663a9059cbb60008054906101000a900473ffffffffffffffffffffffffffffffffffffffff16836040518363ffffffff1660e01b815260040161050492919061113a565b6020604051808303816000875af1158015610523573d6000803e3d6000fd5b505050506040513d601f19601f82011682018060405250810190610547919061119b565b610586576040517f08c379a000000000000000000000000000000000000000000000000000000000815260040161057d90611214565b60405180910390fd5b8273ffffffffffffffffffffffffffffffffffffffff167fa2bd9fcfcdba69f52bcd9a520846ad4bd685b187483f53efc42d035b2ddebff0826040516105cc9190610d75565b60405180910390a2505050565b60008054906101000a900473ffffffffffffffffffffffffffffffffffffffff1681565b60015481565b60008054906101000a900473ffffffffffffffffffffffffffffffffffffffff1673ffffffffffffffffffffffffffffffffffffffff163373ffffffffffffffffffffffffffffffffffffffff1614610691576040517f08c379a000000000000000000000000000000000000000000000000000000000815260040161068890610ec5565b60405180910390fd5b6103e88111156106d6576040517f08c379a00000000000000000000000000000000000000000000000000000000081526004016106cd90611280565b60405180910390fd5b806001819055507f8c4d35e54a3f2ef1134138fd8ea3daee6a3c89e10d2665996babdf70261e2c768160405161070c9190610d75565b60405180910390a150565b6000811161075a576040517f08c379a0000000000000000000000000000000000000000000000000000000008152600401610751906112ec565b60405180910390fd5b60006127106001548361076d919061133b565b61077791906113ac565b90508082116107bb576040517f08c379a00000000000000000000000000000000000000000000000000000000081526004016107b290611429565b60405180910390fd5b600081836107c99190611449565b9050600073ffffffffffffffffffffffffffffffffffffffff168573ffffffffffffffffffffffffffffffffffffffff1614610a635760008590508073ffffffffffffffffffffffffffffffffffffffff166323b872dd3330876040518463ffffffff1660e01b81526004016108419392919061147d565b6020604051808303816000875af1158015610860573d6000803e3d6000fd5b505050506040513d601f19601f82011682018060405250810190610884919061119b565b6108c3576040517f08c379a00000000000000000000000000000000000000000000000000000000081526004016108ba90611500565b60405180910390fd5b8073ffffffffffffffffffffffffffffffffffffffff1663a9059cbb86846040518363ffffffff1660e01b81526004016108fe92919061113a565b6020604051808303816000875af115801561091d573d6000803e3d6000fd5b505050506040513d601f19601f82011682018060405250810190610941919061119b565b610980576040517f08c379a00000000000000000000000000000000000000000000000000000000081526004016109779061156c565b60405180910390fd5b8073ffffffffffffffffffffffffffffffffffffffff1663a9059cbb60008054906101000a900473ffffffffffffffffffffffffffffffffffffffff16856040518363ffffffff1660e01b81526004016109db92919061113a565b6020604051808303816000875af11580156109fa573d6000803e3d6000fd5b505050506040513d601f19601f82011682018060405250810190610a1e919061119b565b610a5d576040517f08c379a0000000000000000000000000000000000000000000000000000000008152600401610a54906115d8565b60405180910390fd5b50610c22565b82341015610aa6576040517f08c379a0000000000000000000000000000000000000000000000000000000008152600401610a9d90611644565b60405180910390fd5b60008473ffffffffffffffffffffffffffffffffffffffff1682604051610acc90610f82565b60006040518083038185875af1925050503d8060008114610b09576040519150601f19603f3d011682016040523d82523d6000602084013e610b0e565b606091505b5050905080610b52576040517f08c379a0000000000000000000000000000000000000000000000000000000008152600401610b49906116b0565b60405180910390fd5b60008060009054906101000a900473ffffffffffffffffffffffffffffffffffffffff1673ffffffffffffffffffffffffffffffffffffffff1684604051610b9990610f82565b60006040518083038185875af1925050503d8060008114610bd6576040519150601f19603f3d011682016040523d82523d6000602084013e610bdb565b606091505b5050905080610c1f576040517f08c379a0000000000000000000000000000000000000000000000000000000008152600401610c16906115d8565b60405180910390fd5b50505b8373ffffffffffffffffffffffffffffffffffffffff163373ffffffffffffffffffffffffffffffffffffffff167ff0288af446518e58595772d6412c1a2f5b333287bbd0129283557b0a9afaa1238388604051610c819291906116d0565b60405180910390a35050505050565b600080fd5b600073ffffffffffffffffffffffffffffffffffffffff82169050919050565b6000610cc082610c95565b9050919050565b610cd081610cb5565b8114610cdb57600080fd5b50565b600081359050610ced81610cc7565b92915050565b600060208284031215610d0957610d08610c90565b5b6000610d1784828501610cde565b91505092915050565b6000610d2b82610c95565b9050919050565b610d3b81610d20565b82525050565b6000602082019050610d566000830184610d32565b92915050565b6000819050919050565b610d6f81610d5c565b82525050565b6000602082019050610d8a6000830184610d66565b92915050565b610d9981610d5c565b8114610da457600080fd5b50565b600081359050610db681610d90565b92915050565b600060208284031215610dd257610dd1610c90565b5b6000610de084828501610da7565b91505092915050565b610df281610d20565b8114610dfd57600080fd5b50565b600081359050610e0f81610de9565b92915050565b600080600060608486031215610e2e57610e2d610c90565b5b6000610e3c86828701610cde565b9350506020610e4d86828701610e00565b9250506040610e5e86828701610da7565b9150509250925092565b600082825260208201905092915050565b7f4e6f7420746865206f776e657200000000000000000000000000000000000000600082015250565b6000610eaf600d83610e68565b9150610eba82610e79565b602082019050919050565b60006020820190508181036000830152610ede81610ea2565b9050919050565b7f4e6f2045544820746f2077697468647261770000000000000000000000000000600082015250565b6000610f1b601283610e68565b9150610f2682610ee5565b602082019050919050565b60006020820190508181036000830152610f4a81610f0e565b9050919050565b600081905092915050565b50565b6000610f6c600083610f51565b9150610f7782610f5c565b600082019050919050565b6000610f8d82610f5f565b9150819050919050565b7f5769746864726177616c206661696c6564000000000000000000000000000000600082015250565b6000610fcd601183610e68565b9150610fd882610f97565b602082019050919050565b60006020820190508181036000830152610ffc81610fc0565b9050919050565b61100c81610cb5565b82525050565b60006020820190506110276000830184611003565b92915050565b60008151905061103c81610d90565b92915050565b60006020828403121561105857611057610c90565b5b60006110668482850161102d565b91505092915050565b7f4e6f20746f6b656e7320746f2077697468647261770000000000000000000000600082015250565b60006110a5601583610e68565b91506110b08261106f565b602082019050919050565b600060208201905081810360008301526110d481611098565b9050919050565b6000819050919050565b60006111006110fb6110f684610c95565b6110db565b610c95565b9050919050565b6000611112826110e5565b9050919050565b600061112482611107565b9050919050565b61113481611119565b82525050565b600060408201905061114f600083018561112b565b61115c6020830184610d66565b9392505050565b60008115159050919050565b61117881611163565b811461118357600080fd5b50565b6000815190506111958161116f565b92915050565b6000602082840312156111b1576111b0610c90565b5b60006111bf84828501611186565b91505092915050565b7f546f6b656e207769746864726177616c206661696c6564000000000000000000600082015250565b60006111fe601783610e68565b9150611209826111c8565b602082019050919050565b6000602082019050818103600083015261122d816111f1565b9050919050565b7f46656520746f6f20686967680000000000000000000000000000000000000000600082015250565b600061126a600c83610e68565b915061127582611234565b602082019050919050565b600060208201905081810360008301526112998161125d565b9050919050565b7f416d6f756e74206d7573742062652067726561746572207468616e207a65726f600082015250565b60006112d6602083610e68565b91506112e1826112a0565b602082019050919050565b60006020820190508181036000830152611305816112c9565b9050919050565b7f4e487b7100000000000000000000000000000000000000000000000000000000600052601160045260246000fd5b600061134682610d5c565b915061135183610d5c565b925082820261135f81610d5c565b915082820484148315176113765761137561130c565b5b5092915050565b7f4e487b7100000000000000000000000000000000000000000000000000000000600052601260045260246000fd5b60006113b782610d5c565b91506113c283610d5c565b9250826113d2576113d161137d565b5b828204905092915050565b7f416d6f756e7420746f6f20736d616c6c00000000000000000000000000000000600082015250565b6000611413601083610e68565b915061141e826113dd565b602082019050919050565b6000602082019050818103600083015261144281611406565b9050919050565b600061145482610d5c565b915061145f83610d5c565b92508282039050818111156114775761147661130c565b5b92915050565b60006060820190506114926000830186611003565b61149f6020830185611003565b6114ac6040830184610d66565b949350505050565b7f5472616e73666572206661696c65640000000000000000000000000000000000600082015250565b60006114ea600f83610e68565b91506114f5826114b4565b602082019050919050565b60006020820190508181036000830152611519816114dd565b9050919050565b7f53656e64206661696c6564000000000000000000000000000000000000000000600082015250565b6000611556600b83610e68565b915061156182611520565b602082019050919050565b6000602082019050818103600083015261158581611549565b9050919050565b7f466565207472616e73666572206661696c656400000000000000000000000000600082015250565b60006115c2601383610e68565b91506115cd8261158c565b602082019050919050565b600060208201905081810360008301526115f1816115b5565b9050919050565b7f4e6f7420656e6f756768204554482073656e7400000000000000000000000000600082015250565b600061162e601383610e68565b9150611639826115f8565b602082019050919050565b6000602082019050818103600083015261165d81611621565b9050919050565b7f455448207472616e73666572206661696c656400000000000000000000000000600082015250565b600061169a601383610e68565b91506116a582611664565b602082019050919050565b600060208201905081810360008301526116c98161168d565b9050919050565b60006040820190506116e56000830185610d66565b6116f26020830184611003565b939250505056fea2646970667358221220adc039898fb0d140acbf85a4313132e7533015871d2dd5c965238e877e37a48564736f6c634300081c0033",
  "linkReferences": {},
  "deployedLinkReferences": {}
}