{
  "_format": "hh-sol-artifact-1",
  "contractName": "Buy",
  "sourceName": "contracts/Buy.sol",
  "abi": [
    {
      "inputs": [
        {
          "internalType": "address",
          "name": "_CEPcoin",
          "type": "address"
        },
        {
          "internalType": "address",
          "name": "_stablecoin",
          "type": "address"
        },
        {
          "internalType": "address",
          "name": "_CreeperPool",
          "type": "address"
        }
      ],
      "stateMutability": "nonpayable",
      "type": "constructor"
    },
    {
      "inputs": [
        {
          "internalType": "address",
          "name": "spender",
          "type": "address"
        },
        {
          "internalType": "uint256",
          "name": "allowance",
          "type": "uint256"
        },
        {
          "internalType": "uint256",
          "name": "needed",
          "type": "uint256"
        }
      ],
      "name": "ERC20InsufficientAllowance",
      "type": "error"
    },
    {
      "inputs": [
        {
          "internalType": "address",
          "name": "sender",
          "type": "address"
        },
        {
          "internalType": "uint256",
          "name": "balance",
          "type": "uint256"
        },
        {
          "internalType": "uint256",
          "name": "needed",
          "type": "uint256"
        }
      ],
      "name": "ERC20InsufficientBalance",
      "type": "error"
    },
    {
      "inputs": [
        {
          "internalType": "address",
          "name": "approver",
          "type": "address"
        }
      ],
      "name": "ERC20InvalidApprover",
      "type": "error"
    },
    {
      "inputs": [
        {
          "internalType": "address",
          "name": "receiver",
          "type": "address"
        }
      ],
      "name": "ERC20InvalidReceiver",
      "type": "error"
    },
    {
      "inputs": [
        {
          "internalType": "address",
          "name": "sender",
          "type": "address"
        }
      ],
      "name": "ERC20InvalidSender",
      "type": "error"
    },
    {
      "inputs": [
        {
          "internalType": "address",
          "name": "spender",
          "type": "address"
        }
      ],
      "name": "ERC20InvalidSpender",
      "type": "error"
    },
    {
      "anonymous": false,
      "inputs": [
        {
          "indexed": true,
          "internalType": "address",
          "name": "owner",
          "type": "address"
        },
        {
          "indexed": true,
          "internalType": "address",
          "name": "spender",
          "type": "address"
        },
        {
          "indexed": false,
          "internalType": "uint256",
          "name": "value",
          "type": "uint256"
        }
      ],
      "name": "Approval",
      "type": "event"
    },
    {
      "anonymous": false,
      "inputs": [
        {
          "indexed": true,
          "internalType": "address",
          "name": "buyer",
          "type": "address"
        },
        {
          "indexed": false,
          "internalType": "uint256",
          "name": "stablecoinAmount",
          "type": "uint256"
        },
        {
          "indexed": false,
          "internalType": "uint256",
          "name": "CEPcoinAmount",
          "type": "uint256"
        }
      ],
      "name": "CEPcoinBought",
      "type": "event"
    },
    {
      "anonymous": false,
      "inputs": [
        {
          "indexed": false,
          "internalType": "uint256",
          "name": "reserveCEP",
          "type": "uint256"
        },
        {
          "indexed": false,
          "internalType": "uint256",
          "name": "reserveStablecoin",
          "type": "uint256"
        },
        {
          "indexed": false,
          "internalType": "uint256",
          "name": "stablecoinAmountWithFee",
          "type": "uint256"
        },
        {
          "indexed": false,
          "internalType": "uint256",
          "name": "CEPcoinAmount",
          "type": "uint256"
        }
      ],
      "name": "DebugCalculation",
      "type": "event"
    },
    {
      "anonymous": false,
      "inputs": [
        {
          "indexed": false,
          "internalType": "uint256",
          "name": "reserveCEP",
          "type": "uint256"
        },
        {
          "indexed": false,
          "internalType": "uint256",
          "name": "reserveStablecoin",
          "type": "uint256"
        }
      ],
      "name": "DebugReserves",
      "type": "event"
    },
    {
      "anonymous": false,
      "inputs": [
        {
          "indexed": true,
          "internalType": "address",
          "name": "from",
          "type": "address"
        },
        {
          "indexed": true,
          "internalType": "address",
          "name": "to",
          "type": "address"
        },
        {
          "indexed": false,
          "internalType": "uint256",
          "name": "value",
          "type": "uint256"
        }
      ],
      "name": "Transfer",
      "type": "event"
    },
    {
      "inputs": [],
      "name": "CEPcoin",
      "outputs": [
        {
          "internalType": "contract IERC20",
          "name": "",
          "type": "address"
        }
      ],
      "stateMutability": "view",
      "type": "function"
    },
    {
      "inputs": [],
      "name": "FEE",
      "outputs": [
        {
          "internalType": "uint256",
          "name": "",
          "type": "uint256"
        }
      ],
      "stateMutability": "view",
      "type": "function"
    },
    {
      "inputs": [
        {
          "internalType": "address",
          "name": "owner",
          "type": "address"
        },
        {
          "internalType": "address",
          "name": "spender",
          "type": "address"
        }
      ],
      "name": "allowance",
      "outputs": [
        {
          "internalType": "uint256",
          "name": "",
          "type": "uint256"
        }
      ],
      "stateMutability": "view",
      "type": "function"
    },
    {
      "inputs": [
        {
          "internalType": "address",
          "name": "spender",
          "type": "address"
        },
        {
          "internalType": "uint256",
          "name": "value",
          "type": "uint256"
        }
      ],
      "name": "approve",
      "outputs": [
        {
          "internalType": "bool",
          "name": "",
          "type": "bool"
        }
      ],
      "stateMutability": "nonpayable",
      "type": "function"
    },
    {
      "inputs": [
        {
          "internalType": "address",
          "name": "account",
          "type": "address"
        }
      ],
      "name": "balanceOf",
      "outputs": [
        {
          "internalType": "uint256",
          "name": "",
          "type": "uint256"
        }
      ],
      "stateMutability": "view",
      "type": "function"
    },
    {
      "inputs": [
        {
          "internalType": "uint256",
          "name": "stablecoinAmount",
          "type": "uint256"
        }
      ],
      "name": "buyToken",
      "outputs": [
        {
          "internalType": "uint256",
          "name": "CEPcoinAmount",
          "type": "uint256"
        }
      ],
      "stateMutability": "nonpayable",
      "type": "function"
    },
    {
      "inputs": [],
      "name": "creeperPool",
      "outputs": [
        {
          "internalType": "contract CreeperPool",
          "name": "",
          "type": "address"
        }
      ],
      "stateMutability": "view",
      "type": "function"
    },
    {
      "inputs": [],
      "name": "decimals",
      "outputs": [
        {
          "internalType": "uint8",
          "name": "",
          "type": "uint8"
        }
      ],
      "stateMutability": "view",
      "type": "function"
    },
    {
      "inputs": [],
      "name": "name",
      "outputs": [
        {
          "internalType": "string",
          "name": "",
          "type": "string"
        }
      ],
      "stateMutability": "view",
      "type": "function"
    },
    {
      "inputs": [],
      "name": "stablecoin",
      "outputs": [
        {
          "internalType": "contract IERC20",
          "name": "",
          "type": "address"
        }
      ],
      "stateMutability": "view",
      "type": "function"
    },
    {
      "inputs": [],
      "name": "symbol",
      "outputs": [
        {
          "internalType": "string",
          "name": "",
          "type": "string"
        }
      ],
      "stateMutability": "view",
      "type": "function"
    },
    {
      "inputs": [],
      "name": "totalSupply",
      "outputs": [
        {
          "internalType": "uint256",
          "name": "",
          "type": "uint256"
        }
      ],
      "stateMutability": "view",
      "type": "function"
    },
    {
      "inputs": [
        {
          "internalType": "address",
          "name": "to",
          "type": "address"
        },
        {
          "internalType": "uint256",
          "name": "value",
          "type": "uint256"
        }
      ],
      "name": "transfer",
      "outputs": [
        {
          "internalType": "bool",
          "name": "",
          "type": "bool"
        }
      ],
      "stateMutability": "nonpayable",
      "type": "function"
    },
    {
      "inputs": [
        {
          "internalType": "address",
          "name": "from",
          "type": "address"
        },
        {
          "internalType": "address",
          "name": "to",
          "type": "address"
        },
        {
          "internalType": "uint256",
          "name": "value",
          "type": "uint256"
        }
      ],
      "name": "transferFrom",
      "outputs": [
        {
          "internalType": "bool",
          "name": "",
          "type": "bool"
        }
      ],
      "stateMutability": "nonpayable",
      "type": "function"
    }
  ],
  "bytecode": "0x608060405234801561001057600080fd5b506040516124c63803806124c6833981810160405281019061003291906102d0565b6040518060400160405280601581526020017f437265657065722054726164696e6720546f6b656e00000000000000000000008152506040518060400160405280600381526020017f434550000000000000000000000000000000000000000000000000000000000081525081600390816100ad9190610573565b5080600490816100bd9190610573565b505050600073ffffffffffffffffffffffffffffffffffffffff168373ffffffffffffffffffffffffffffffffffffffff161415801561012a5750600073ffffffffffffffffffffffffffffffffffffffff168273ffffffffffffffffffffffffffffffffffffffff1614155b80156101635750600073ffffffffffffffffffffffffffffffffffffffff168173ffffffffffffffffffffffffffffffffffffffff1614155b6101a2576040517f08c379a0000000000000000000000000000000000000000000000000000000008152600401610199906106a2565b60405180910390fd5b82600560006101000a81548173ffffffffffffffffffffffffffffffffffffffff021916908373ffffffffffffffffffffffffffffffffffffffff16021790555081600660006101000a81548173ffffffffffffffffffffffffffffffffffffffff021916908373ffffffffffffffffffffffffffffffffffffffff16021790555080600760006101000a81548173ffffffffffffffffffffffffffffffffffffffff021916908373ffffffffffffffffffffffffffffffffffffffff1602179055505050506106c2565b600080fd5b600073ffffffffffffffffffffffffffffffffffffffff82169050919050565b600061029d82610272565b9050919050565b6102ad81610292565b81146102b857600080fd5b50565b6000815190506102ca816102a4565b92915050565b6000806000606084860312156102e9576102e861026d565b5b60006102f7868287016102bb565b9350506020610308868287016102bb565b9250506040610319868287016102bb565b9150509250925092565b600081519050919050565b7f4e487b7100000000000000000000000000000000000000000000000000000000600052604160045260246000fd5b7f4e487b7100000000000000000000000000000000000000000000000000000000600052602260045260246000fd5b600060028204905060018216806103a457607f821691505b6020821081036103b7576103b661035d565b5b50919050565b60008190508160005260206000209050919050565b60006020601f8301049050919050565b600082821b905092915050565b60006008830261041f7fffffffffffffffffffffffffffffffffffffffffffffffffffffffffffffffff826103e2565b61042986836103e2565b95508019841693508086168417925050509392505050565b6000819050919050565b6000819050919050565b600061047061046b61046684610441565b61044b565b610441565b9050919050565b6000819050919050565b61048a83610455565b61049e61049682610477565b8484546103ef565b825550505050565b600090565b6104b36104a6565b6104be818484610481565b505050565b5b818110156104e2576104d76000826104ab565b6001810190506104c4565b5050565b601f821115610527576104f8816103bd565b610501846103d2565b81016020851015610510578190505b61052461051c856103d2565b8301826104c3565b50505b505050565b600082821c905092915050565b600061054a6000198460080261052c565b1980831691505092915050565b60006105638383610539565b9150826002028217905092915050565b61057c82610323565b67ffffffffffffffff8111156105955761059461032e565b5b61059f825461038c565b6105aa8282856104e6565b600060209050601f8311600181146105dd57600084156105cb578287015190505b6105d58582610557565b86555061063d565b601f1984166105eb866103bd565b60005b82811015610613578489015182556001820191506020850194506020810190506105ee565b86831015610630578489015161062c601f891682610539565b8355505b6001600288020188555050505b505050505050565b600082825260208201905092915050565b7f496e76616c696420746f6b656e20616464726573730000000000000000000000600082015250565b600061068c601583610645565b915061069782610656565b602082019050919050565b600060208201905081810360008301526106bb8161067f565b9050919050565b611df5806106d16000396000f3fe608060405234801561001057600080fd5b50600436106100ea5760003560e01c806370a082311161008c578063a9059cbb11610066578063a9059cbb14610263578063c57981b514610293578063dd62ed3e146102b1578063e9cbd822146102e1576100ea565b806370a08231146101f757806395d89b4114610227578063a62b03eb14610245576100ea565b806323b872dd116100c857806323b872dd1461015b5780632d296bf11461018b578063313ce567146101bb5780634b679245146101d9576100ea565b806306fdde03146100ef578063095ea7b31461010d57806318160ddd1461013d575b600080fd5b6100f76102ff565b6040516101049190611407565b60405180910390f35b610127600480360381019061012291906114c2565b610391565b604051610134919061151d565b60405180910390f35b6101456103b4565b6040516101529190611547565b60405180910390f35b61017560048036038101906101709190611562565b6103be565b604051610182919061151d565b60405180910390f35b6101a560048036038101906101a091906115b5565b6103ed565b6040516101b29190611547565b60405180910390f35b6101c3610bd4565b6040516101d091906115fe565b60405180910390f35b6101e1610bdd565b6040516101ee9190611678565b60405180910390f35b610211600480360381019061020c9190611693565b610c03565b60405161021e9190611547565b60405180910390f35b61022f610c4b565b60405161023c9190611407565b60405180910390f35b61024d610cdd565b60405161025a91906116e1565b60405180910390f35b61027d600480360381019061027891906114c2565b610d03565b60405161028a919061151d565b60405180910390f35b61029b610d26565b6040516102a89190611547565b60405180910390f35b6102cb60048036038101906102c691906116fc565b610d2b565b6040516102d89190611547565b60405180910390f35b6102e9610db2565b6040516102f69190611678565b60405180910390f35b60606003805461030e9061176b565b80601f016020809104026020016040519081016040528092919081815260200182805461033a9061176b565b80156103875780601f1061035c57610100808354040283529160200191610387565b820191906000526020600020905b81548152906001019060200180831161036a57829003601f168201915b5050505050905090565b60008061039c610dd8565b90506103a9818585610de0565b600191505092915050565b6000600254905090565b6000806103c9610dd8565b90506103d6858285610df2565b6103e1858585610e87565b60019150509392505050565b6000808211610431576040517f08c379a0000000000000000000000000000000000000000000000000000000008152600401610428906117e8565b60405180910390fd5b81600660009054906101000a900473ffffffffffffffffffffffffffffffffffffffff1673ffffffffffffffffffffffffffffffffffffffff1663dd62ed3e33306040518363ffffffff1660e01b815260040161048f929190611817565b602060405180830381865afa1580156104ac573d6000803e3d6000fd5b505050506040513d601f19601f820116820180604052508101906104d09190611855565b1015610511576040517f08c379a0000000000000000000000000000000000000000000000000000000008152600401610508906118f4565b60405180910390fd5b6000600560009054906101000a900473ffffffffffffffffffffffffffffffffffffffff1673ffffffffffffffffffffffffffffffffffffffff166370a08231600760009054906101000a900473ffffffffffffffffffffffffffffffffffffffff166040518263ffffffff1660e01b81526004016105909190611914565b602060405180830381865afa1580156105ad573d6000803e3d6000fd5b505050506040513d601f19601f820116820180604052508101906105d19190611855565b90506000600660009054906101000a900473ffffffffffffffffffffffffffffffffffffffff1673ffffffffffffffffffffffffffffffffffffffff166370a08231600760009054906101000a900473ffffffffffffffffffffffffffffffffffffffff166040518263ffffffff1660e01b81526004016106529190611914565b602060405180830381865afa15801561066f573d6000803e3d6000fd5b505050506040513d601f19601f820116820180604052508101906106939190611855565b90507fee3151d1b38cb51b0dd2bc979aa68d337e952f2e0b6834217f05870c2cfb4c2b82826040516106c692919061192f565b60405180910390a16000821180156106de5750600081115b61071d576040517f08c379a0000000000000000000000000000000000000000000000000000000008152600401610714906119ca565b60405180910390fd5b6000612710601e8661072f9190611a19565b6107399190611a8a565b9050600081866107499190611abb565b905080836107579190611aef565b81856107639190611a19565b61076d9190611a8a565b94507f0168eda5739711bb4729081b036253ffc2012ae6891663d350966befc28a412b848483886040516107a49493929190611b23565b60405180910390a1600085116107ef576040517f08c379a00000000000000000000000000000000000000000000000000000000081526004016107e690611bb4565b60405180910390fd5b84600560009054906101000a900473ffffffffffffffffffffffffffffffffffffffff1673ffffffffffffffffffffffffffffffffffffffff1663dd62ed3e600760009054906101000a900473ffffffffffffffffffffffffffffffffffffffff16306040518363ffffffff1660e01b815260040161086f929190611817565b602060405180830381865afa15801561088c573d6000803e3d6000fd5b505050506040513d601f19601f820116820180604052508101906108b09190611855565b10156108f1576040517f08c379a00000000000000000000000000000000000000000000000000000000081526004016108e890611c46565b60405180910390fd5b84600560009054906101000a900473ffffffffffffffffffffffffffffffffffffffff1673ffffffffffffffffffffffffffffffffffffffff166370a08231600760009054906101000a900473ffffffffffffffffffffffffffffffffffffffff166040518263ffffffff1660e01b815260040161096f9190611914565b602060405180830381865afa15801561098c573d6000803e3d6000fd5b505050506040513d601f19601f820116820180604052508101906109b09190611855565b10156109f1576040517f08c379a00000000000000000000000000000000000000000000000000000000081526004016109e890611cd8565b60405180910390fd5b600660009054906101000a900473ffffffffffffffffffffffffffffffffffffffff1673ffffffffffffffffffffffffffffffffffffffff166323b872dd33600760009054906101000a900473ffffffffffffffffffffffffffffffffffffffff16896040518463ffffffff1660e01b8152600401610a7293929190611cf8565b6020604051808303816000875af1158015610a91573d6000803e3d6000fd5b505050506040513d601f19601f82011682018060405250810190610ab59190611d5b565b50600560009054906101000a900473ffffffffffffffffffffffffffffffffffffffff1673ffffffffffffffffffffffffffffffffffffffff166323b872dd600760009054906101000a900473ffffffffffffffffffffffffffffffffffffffff1633886040518463ffffffff1660e01b8152600401610b3793929190611cf8565b6020604051808303816000875af1158015610b56573d6000803e3d6000fd5b505050506040513d601f19601f82011682018060405250810190610b7a9190611d5b565b503373ffffffffffffffffffffffffffffffffffffffff167f872dc8771b5e4560062d09d8ed70292384bec3e9ec54dd9f78b0e2f8e4e4d5818787604051610bc392919061192f565b60405180910390a250505050919050565b60006012905090565b600560009054906101000a900473ffffffffffffffffffffffffffffffffffffffff1681565b60008060008373ffffffffffffffffffffffffffffffffffffffff1673ffffffffffffffffffffffffffffffffffffffff168152602001908152602001600020549050919050565b606060048054610c5a9061176b565b80601f0160208091040260200160405190810160405280929190818152602001828054610c869061176b565b8015610cd35780601f10610ca857610100808354040283529160200191610cd3565b820191906000526020600020905b815481529060010190602001808311610cb657829003601f168201915b5050505050905090565b600760009054906101000a900473ffffffffffffffffffffffffffffffffffffffff1681565b600080610d0e610dd8565b9050610d1b818585610e87565b600191505092915050565b601e81565b6000600160008473ffffffffffffffffffffffffffffffffffffffff1673ffffffffffffffffffffffffffffffffffffffff16815260200190815260200160002060008373ffffffffffffffffffffffffffffffffffffffff1673ffffffffffffffffffffffffffffffffffffffff16815260200190815260200160002054905092915050565b600660009054906101000a900473ffffffffffffffffffffffffffffffffffffffff1681565b600033905090565b610ded8383836001610f7b565b505050565b6000610dfe8484610d2b565b90507fffffffffffffffffffffffffffffffffffffffffffffffffffffffffffffffff811015610e815781811015610e71578281836040517ffb8f41b2000000000000000000000000000000000000000000000000000000008152600401610e6893929190611d88565b60405180910390fd5b610e8084848484036000610f7b565b5b50505050565b600073ffffffffffffffffffffffffffffffffffffffff168373ffffffffffffffffffffffffffffffffffffffff1603610ef95760006040517f96c6fd1e000000000000000000000000000000000000000000000000000000008152600401610ef09190611914565b60405180910390fd5b600073ffffffffffffffffffffffffffffffffffffffff168273ffffffffffffffffffffffffffffffffffffffff1603610f6b5760006040517fec442f05000000000000000000000000000000000000000000000000000000008152600401610f629190611914565b60405180910390fd5b610f76838383611152565b505050565b600073ffffffffffffffffffffffffffffffffffffffff168473ffffffffffffffffffffffffffffffffffffffff1603610fed5760006040517fe602df05000000000000000000000000000000000000000000000000000000008152600401610fe49190611914565b60405180910390fd5b600073ffffffffffffffffffffffffffffffffffffffff168373ffffffffffffffffffffffffffffffffffffffff160361105f5760006040517f94280d620000000000000000000000000000000000000000000000000000000081526004016110569190611914565b60405180910390fd5b81600160008673ffffffffffffffffffffffffffffffffffffffff1673ffffffffffffffffffffffffffffffffffffffff16815260200190815260200160002060008573ffffffffffffffffffffffffffffffffffffffff1673ffffffffffffffffffffffffffffffffffffffff16815260200190815260200160002081905550801561114c578273ffffffffffffffffffffffffffffffffffffffff168473ffffffffffffffffffffffffffffffffffffffff167f8c5be1e5ebec7d5bd14f71427d1e84f3dd0314c0f7b2291e5b200ac8c7c3b925846040516111439190611547565b60405180910390a35b50505050565b600073ffffffffffffffffffffffffffffffffffffffff168373ffffffffffffffffffffffffffffffffffffffff16036111a45780600260008282546111989190611aef565b92505081905550611277565b60008060008573ffffffffffffffffffffffffffffffffffffffff1673ffffffffffffffffffffffffffffffffffffffff16815260200190815260200160002054905081811015611230578381836040517fe450d38c00000000000000000000000000000000000000000000000000000000815260040161122793929190611d88565b60405180910390fd5b8181036000808673ffffffffffffffffffffffffffffffffffffffff1673ffffffffffffffffffffffffffffffffffffffff16815260200190815260200160002081905550505b600073ffffffffffffffffffffffffffffffffffffffff168273ffffffffffffffffffffffffffffffffffffffff16036112c0578060026000828254039250508190555061130d565b806000808473ffffffffffffffffffffffffffffffffffffffff1673ffffffffffffffffffffffffffffffffffffffff168152602001908152602001600020600082825401925050819055505b8173ffffffffffffffffffffffffffffffffffffffff168373ffffffffffffffffffffffffffffffffffffffff167fddf252ad1be2c89b69c2b068fc378daa952ba7f163c4a11628f55a4df523b3ef8360405161136a9190611547565b60405180910390a3505050565b600081519050919050565b600082825260208201905092915050565b60005b838110156113b1578082015181840152602081019050611396565b60008484015250505050565b6000601f19601f8301169050919050565b60006113d982611377565b6113e38185611382565b93506113f3818560208601611393565b6113fc816113bd565b840191505092915050565b6000602082019050818103600083015261142181846113ce565b905092915050565b600080fd5b600073ffffffffffffffffffffffffffffffffffffffff82169050919050565b60006114598261142e565b9050919050565b6114698161144e565b811461147457600080fd5b50565b60008135905061148681611460565b92915050565b6000819050919050565b61149f8161148c565b81146114aa57600080fd5b50565b6000813590506114bc81611496565b92915050565b600080604083850312156114d9576114d8611429565b5b60006114e785828601611477565b92505060206114f8858286016114ad565b9150509250929050565b60008115159050919050565b61151781611502565b82525050565b6000602082019050611532600083018461150e565b92915050565b6115418161148c565b82525050565b600060208201905061155c6000830184611538565b92915050565b60008060006060848603121561157b5761157a611429565b5b600061158986828701611477565b935050602061159a86828701611477565b92505060406115ab868287016114ad565b9150509250925092565b6000602082840312156115cb576115ca611429565b5b60006115d9848285016114ad565b91505092915050565b600060ff82169050919050565b6115f8816115e2565b82525050565b600060208201905061161360008301846115ef565b92915050565b6000819050919050565b600061163e6116396116348461142e565b611619565b61142e565b9050919050565b600061165082611623565b9050919050565b600061166282611645565b9050919050565b61167281611657565b82525050565b600060208201905061168d6000830184611669565b92915050565b6000602082840312156116a9576116a8611429565b5b60006116b784828501611477565b91505092915050565b60006116cb82611645565b9050919050565b6116db816116c0565b82525050565b60006020820190506116f660008301846116d2565b92915050565b6000806040838503121561171357611712611429565b5b600061172185828601611477565b925050602061173285828601611477565b9150509250929050565b7f4e487b7100000000000000000000000000000000000000000000000000000000600052602260045260246000fd5b6000600282049050600182168061178357607f821691505b6020821081036117965761179561173c565b5b50919050565b7f416d6f756e74206d7573742062652067726561746572207468616e2030000000600082015250565b60006117d2601d83611382565b91506117dd8261179c565b602082019050919050565b60006020820190508181036000830152611801816117c5565b9050919050565b6118118161144e565b82525050565b600060408201905061182c6000830185611808565b6118396020830184611808565b9392505050565b60008151905061184f81611496565b92915050565b60006020828403121561186b5761186a611429565b5b600061187984828501611840565b91505092915050565b7f496e73756666696369656e7420737461626c65636f696e20616c6c6f77616e6360008201527f6500000000000000000000000000000000000000000000000000000000000000602082015250565b60006118de602183611382565b91506118e982611882565b604082019050919050565b6000602082019050818103600083015261190d816118d1565b9050919050565b60006020820190506119296000830184611808565b92915050565b60006040820190506119446000830185611538565b6119516020830184611538565b9392505050565b7f496e73756666696369656e7420726573657276657320696e2074686520706f6f60008201527f6c00000000000000000000000000000000000000000000000000000000000000602082015250565b60006119b4602183611382565b91506119bf82611958565b604082019050919050565b600060208201905081810360008301526119e3816119a7565b9050919050565b7f4e487b7100000000000000000000000000000000000000000000000000000000600052601160045260246000fd5b6000611a248261148c565b9150611a2f8361148c565b9250828202611a3d8161148c565b91508282048414831517611a5457611a536119ea565b5b5092915050565b7f4e487b7100000000000000000000000000000000000000000000000000000000600052601260045260246000fd5b6000611a958261148c565b9150611aa08361148c565b925082611ab057611aaf611a5b565b5b828204905092915050565b6000611ac68261148c565b9150611ad18361148c565b9250828203905081811115611ae957611ae86119ea565b5b92915050565b6000611afa8261148c565b9150611b058361148c565b9250828201905080821115611b1d57611b1c6119ea565b5b92915050565b6000608082019050611b386000830187611538565b611b456020830186611538565b611b526040830185611538565b611b5f6060830184611538565b95945050505050565b7f496e73756666696369656e7420746f6b656e20616d6f756e7400000000000000600082015250565b6000611b9e601983611382565b9150611ba982611b68565b602082019050919050565b60006020820190508181036000830152611bcd81611b91565b9050919050565b7f496e73756666696369656e7420434550636f696e20616c6c6f77616e6365206660008201527f726f6d20706f6f6c000000000000000000000000000000000000000000000000602082015250565b6000611c30602883611382565b9150611c3b82611bd4565b604082019050919050565b60006020820190508181036000830152611c5f81611c23565b9050919050565b7f496e73756666696369656e7420434550636f696e2062616c616e636520696e2060008201527f706f6f6c00000000000000000000000000000000000000000000000000000000602082015250565b6000611cc2602483611382565b9150611ccd82611c66565b604082019050919050565b60006020820190508181036000830152611cf181611cb5565b9050919050565b6000606082019050611d0d6000830186611808565b611d1a6020830185611808565b611d276040830184611538565b949350505050565b611d3881611502565b8114611d4357600080fd5b50565b600081519050611d5581611d2f565b92915050565b600060208284031215611d7157611d70611429565b5b6000611d7f84828501611d46565b91505092915050565b6000606082019050611d9d6000830186611808565b611daa6020830185611538565b611db76040830184611538565b94935050505056fea26469706673582212202affc93b1d5ae8bca077c9400fd669fa8e34fb46d78310742616812eed5bb29264736f6c634300081c0033",
  "linkReferences": {},
  "deployedLinkReferences": {}
}