{
  "_format": "hh-sol-artifact-1",
  "contractName": "Buy",
  "sourceName": "contracts/Buy.sol",
  "abi": [
    {
      "inputs": [
        {
          "internalType": "address",
          "name": "_CEPcoin",
          "type": "address"
        },
        {
          "internalType": "address",
          "name": "_stablecoin",
          "type": "address"
        },
        {
          "internalType": "address",
          "name": "_CreeperPool",
          "type": "address"
        }
      ],
      "stateMutability": "nonpayable",
      "type": "constructor"
    },
    {
      "inputs": [
        {
          "internalType": "address",
          "name": "spender",
          "type": "address"
        },
        {
          "internalType": "uint256",
          "name": "allowance",
          "type": "uint256"
        },
        {
          "internalType": "uint256",
          "name": "needed",
          "type": "uint256"
        }
      ],
      "name": "ERC20InsufficientAllowance",
      "type": "error"
    },
    {
      "inputs": [
        {
          "internalType": "address",
          "name": "sender",
          "type": "address"
        },
        {
          "internalType": "uint256",
          "name": "balance",
          "type": "uint256"
        },
        {
          "internalType": "uint256",
          "name": "needed",
          "type": "uint256"
        }
      ],
      "name": "ERC20InsufficientBalance",
      "type": "error"
    },
    {
      "inputs": [
        {
          "internalType": "address",
          "name": "approver",
          "type": "address"
        }
      ],
      "name": "ERC20InvalidApprover",
      "type": "error"
    },
    {
      "inputs": [
        {
          "internalType": "address",
          "name": "receiver",
          "type": "address"
        }
      ],
      "name": "ERC20InvalidReceiver",
      "type": "error"
    },
    {
      "inputs": [
        {
          "internalType": "address",
          "name": "sender",
          "type": "address"
        }
      ],
      "name": "ERC20InvalidSender",
      "type": "error"
    },
    {
      "inputs": [
        {
          "internalType": "address",
          "name": "spender",
          "type": "address"
        }
      ],
      "name": "ERC20InvalidSpender",
      "type": "error"
    },
    {
      "anonymous": false,
      "inputs": [
        {
          "indexed": true,
          "internalType": "address",
          "name": "owner",
          "type": "address"
        },
        {
          "indexed": true,
          "internalType": "address",
          "name": "spender",
          "type": "address"
        },
        {
          "indexed": false,
          "internalType": "uint256",
          "name": "value",
          "type": "uint256"
        }
      ],
      "name": "Approval",
      "type": "event"
    },
    {
      "anonymous": false,
      "inputs": [
        {
          "indexed": true,
          "internalType": "address",
          "name": "buyer",
          "type": "address"
        },
        {
          "indexed": false,
          "internalType": "uint256",
          "name": "stablecoinAmount",
          "type": "uint256"
        },
        {
          "indexed": false,
          "internalType": "uint256",
          "name": "CEPcoinAmount",
          "type": "uint256"
        }
      ],
      "name": "CEPcoinBought",
      "type": "event"
    },
    {
      "anonymous": false,
      "inputs": [
        {
          "indexed": false,
          "internalType": "uint256",
          "name": "reserveCEP",
          "type": "uint256"
        },
        {
          "indexed": false,
          "internalType": "uint256",
          "name": "reserveStablecoin",
          "type": "uint256"
        },
        {
          "indexed": false,
          "internalType": "uint256",
          "name": "stablecoinAmountWithFee",
          "type": "uint256"
        },
        {
          "indexed": false,
          "internalType": "uint256",
          "name": "CEPcoinAmount",
          "type": "uint256"
        }
      ],
      "name": "DebugCalculation",
      "type": "event"
    },
    {
      "anonymous": false,
      "inputs": [
        {
          "indexed": false,
          "internalType": "uint256",
          "name": "reserveCEP",
          "type": "uint256"
        },
        {
          "indexed": false,
          "internalType": "uint256",
          "name": "reserveStablecoin",
          "type": "uint256"
        }
      ],
      "name": "DebugReserves",
      "type": "event"
    },
    {
      "anonymous": false,
      "inputs": [
        {
          "indexed": true,
          "internalType": "address",
          "name": "from",
          "type": "address"
        },
        {
          "indexed": true,
          "internalType": "address",
          "name": "to",
          "type": "address"
        },
        {
          "indexed": false,
          "internalType": "uint256",
          "name": "value",
          "type": "uint256"
        }
      ],
      "name": "Transfer",
      "type": "event"
    },
    {
      "inputs": [],
      "name": "CEPcoin",
      "outputs": [
        {
          "internalType": "contract IERC20",
          "name": "",
          "type": "address"
        }
      ],
      "stateMutability": "view",
      "type": "function"
    },
    {
      "inputs": [],
      "name": "FEE",
      "outputs": [
        {
          "internalType": "uint256",
          "name": "",
          "type": "uint256"
        }
      ],
      "stateMutability": "view",
      "type": "function"
    },
    {
      "inputs": [
        {
          "internalType": "address",
          "name": "owner",
          "type": "address"
        },
        {
          "internalType": "address",
          "name": "spender",
          "type": "address"
        }
      ],
      "name": "allowance",
      "outputs": [
        {
          "internalType": "uint256",
          "name": "",
          "type": "uint256"
        }
      ],
      "stateMutability": "view",
      "type": "function"
    },
    {
      "inputs": [
        {
          "internalType": "address",
          "name": "spender",
          "type": "address"
        },
        {
          "internalType": "uint256",
          "name": "value",
          "type": "uint256"
        }
      ],
      "name": "approve",
      "outputs": [
        {
          "internalType": "bool",
          "name": "",
          "type": "bool"
        }
      ],
      "stateMutability": "nonpayable",
      "type": "function"
    },
    {
      "inputs": [
        {
          "internalType": "address",
          "name": "account",
          "type": "address"
        }
      ],
      "name": "balanceOf",
      "outputs": [
        {
          "internalType": "uint256",
          "name": "",
          "type": "uint256"
        }
      ],
      "stateMutability": "view",
      "type": "function"
    },
    {
      "inputs": [
        {
          "internalType": "uint256",
          "name": "stablecoinAmount",
          "type": "uint256"
        }
      ],
      "name": "buyToken",
      "outputs": [
        {
          "internalType": "uint256",
          "name": "CEPcoinAmount",
          "type": "uint256"
        }
      ],
      "stateMutability": "nonpayable",
      "type": "function"
    },
    {
      "inputs": [],
      "name": "creeperPool",
      "outputs": [
        {
          "internalType": "contract CreeperPool",
          "name": "",
          "type": "address"
        }
      ],
      "stateMutability": "view",
      "type": "function"
    },
    {
      "inputs": [],
      "name": "decimals",
      "outputs": [
        {
          "internalType": "uint8",
          "name": "",
          "type": "uint8"
        }
      ],
      "stateMutability": "view",
      "type": "function"
    },
    {
      "inputs": [],
      "name": "name",
      "outputs": [
        {
          "internalType": "string",
          "name": "",
          "type": "string"
        }
      ],
      "stateMutability": "view",
      "type": "function"
    },
    {
      "inputs": [],
      "name": "stablecoin",
      "outputs": [
        {
          "internalType": "contract IERC20",
          "name": "",
          "type": "address"
        }
      ],
      "stateMutability": "view",
      "type": "function"
    },
    {
      "inputs": [],
      "name": "symbol",
      "outputs": [
        {
          "internalType": "string",
          "name": "",
          "type": "string"
        }
      ],
      "stateMutability": "view",
      "type": "function"
    },
    {
      "inputs": [],
      "name": "totalSupply",
      "outputs": [
        {
          "internalType": "uint256",
          "name": "",
          "type": "uint256"
        }
      ],
      "stateMutability": "view",
      "type": "function"
    },
    {
      "inputs": [
        {
          "internalType": "address",
          "name": "to",
          "type": "address"
        },
        {
          "internalType": "uint256",
          "name": "value",
          "type": "uint256"
        }
      ],
      "name": "transfer",
      "outputs": [
        {
          "internalType": "bool",
          "name": "",
          "type": "bool"
        }
      ],
      "stateMutability": "nonpayable",
      "type": "function"
    },
    {
      "inputs": [
        {
          "internalType": "address",
          "name": "from",
          "type": "address"
        },
        {
          "internalType": "address",
          "name": "to",
          "type": "address"
        },
        {
          "internalType": "uint256",
          "name": "value",
          "type": "uint256"
        }
      ],
      "name": "transferFrom",
      "outputs": [
        {
          "internalType": "bool",
          "name": "",
          "type": "bool"
        }
      ],
      "stateMutability": "nonpayable",
      "type": "function"
    }
  ],
  "bytecode": "0x608060405234801561001057600080fd5b50604051612548380380612548833981810160405281019061003291906102d0565b6040518060400160405280601581526020017f437265657065722054726164696e6720546f6b656e00000000000000000000008152506040518060400160405280600381526020017f434550000000000000000000000000000000000000000000000000000000000081525081600390816100ad9190610573565b5080600490816100bd9190610573565b505050600073ffffffffffffffffffffffffffffffffffffffff168373ffffffffffffffffffffffffffffffffffffffff161415801561012a5750600073ffffffffffffffffffffffffffffffffffffffff168273ffffffffffffffffffffffffffffffffffffffff1614155b80156101635750600073ffffffffffffffffffffffffffffffffffffffff168173ffffffffffffffffffffffffffffffffffffffff1614155b6101a2576040517f08c379a0000000000000000000000000000000000000000000000000000000008152600401610199906106a2565b60405180910390fd5b82600560006101000a81548173ffffffffffffffffffffffffffffffffffffffff021916908373ffffffffffffffffffffffffffffffffffffffff16021790555081600660006101000a81548173ffffffffffffffffffffffffffffffffffffffff021916908373ffffffffffffffffffffffffffffffffffffffff16021790555080600760006101000a81548173ffffffffffffffffffffffffffffffffffffffff021916908373ffffffffffffffffffffffffffffffffffffffff1602179055505050506106c2565b600080fd5b600073ffffffffffffffffffffffffffffffffffffffff82169050919050565b600061029d82610272565b9050919050565b6102ad81610292565b81146102b857600080fd5b50565b6000815190506102ca816102a4565b92915050565b6000806000606084860312156102e9576102e861026d565b5b60006102f7868287016102bb565b9350506020610308868287016102bb565b9250506040610319868287016102bb565b9150509250925092565b600081519050919050565b7f4e487b7100000000000000000000000000000000000000000000000000000000600052604160045260246000fd5b7f4e487b7100000000000000000000000000000000000000000000000000000000600052602260045260246000fd5b600060028204905060018216806103a457607f821691505b6020821081036103b7576103b661035d565b5b50919050565b60008190508160005260206000209050919050565b60006020601f8301049050919050565b600082821b905092915050565b60006008830261041f7fffffffffffffffffffffffffffffffffffffffffffffffffffffffffffffffff826103e2565b61042986836103e2565b95508019841693508086168417925050509392505050565b6000819050919050565b6000819050919050565b600061047061046b61046684610441565b61044b565b610441565b9050919050565b6000819050919050565b61048a83610455565b61049e61049682610477565b8484546103ef565b825550505050565b600090565b6104b36104a6565b6104be818484610481565b505050565b5b818110156104e2576104d76000826104ab565b6001810190506104c4565b5050565b601f821115610527576104f8816103bd565b610501846103d2565b81016020851015610510578190505b61052461051c856103d2565b8301826104c3565b50505b505050565b600082821c905092915050565b600061054a6000198460080261052c565b1980831691505092915050565b60006105638383610539565b9150826002028217905092915050565b61057c82610323565b67ffffffffffffffff8111156105955761059461032e565b5b61059f825461038c565b6105aa8282856104e6565b600060209050601f8311600181146105dd57600084156105cb578287015190505b6105d58582610557565b86555061063d565b601f1984166105eb866103bd565b60005b82811015610613578489015182556001820191506020850194506020810190506105ee565b86831015610630578489015161062c601f891682610539565b8355505b6001600288020188555050505b505050505050565b600082825260208201905092915050565b7f496e76616c696420746f6b656e20616464726573730000000000000000000000600082015250565b600061068c601583610645565b915061069782610656565b602082019050919050565b600060208201905081810360008301526106bb8161067f565b9050919050565b611e77806106d16000396000f3fe608060405234801561001057600080fd5b50600436106100ea5760003560e01c806370a082311161008c578063a9059cbb11610066578063a9059cbb14610263578063c57981b514610293578063dd62ed3e146102b1578063e9cbd822146102e1576100ea565b806370a08231146101f757806395d89b4114610227578063a62b03eb14610245576100ea565b806323b872dd116100c857806323b872dd1461015b5780632d296bf11461018b578063313ce567146101bb5780634b679245146101d9576100ea565b806306fdde03146100ef578063095ea7b31461010d57806318160ddd1461013d575b600080fd5b6100f76102ff565b6040516101049190611489565b60405180910390f35b61012760048036038101906101229190611544565b610391565b604051610134919061159f565b60405180910390f35b6101456103b4565b60405161015291906115c9565b60405180910390f35b610175600480360381019061017091906115e4565b6103be565b604051610182919061159f565b60405180910390f35b6101a560048036038101906101a09190611637565b6103ed565b6040516101b291906115c9565b60405180910390f35b6101c3610c56565b6040516101d09190611680565b60405180910390f35b6101e1610c5f565b6040516101ee91906116fa565b60405180910390f35b610211600480360381019061020c9190611715565b610c85565b60405161021e91906115c9565b60405180910390f35b61022f610ccd565b60405161023c9190611489565b60405180910390f35b61024d610d5f565b60405161025a9190611763565b60405180910390f35b61027d60048036038101906102789190611544565b610d85565b60405161028a919061159f565b60405180910390f35b61029b610da8565b6040516102a891906115c9565b60405180910390f35b6102cb60048036038101906102c6919061177e565b610dad565b6040516102d891906115c9565b60405180910390f35b6102e9610e34565b6040516102f691906116fa565b60405180910390f35b60606003805461030e906117ed565b80601f016020809104026020016040519081016040528092919081815260200182805461033a906117ed565b80156103875780601f1061035c57610100808354040283529160200191610387565b820191906000526020600020905b81548152906001019060200180831161036a57829003601f168201915b5050505050905090565b60008061039c610e5a565b90506103a9818585610e62565b600191505092915050565b6000600254905090565b6000806103c9610e5a565b90506103d6858285610e74565b6103e1858585610f09565b60019150509392505050565b6000808211610431576040517f08c379a00000000000000000000000000000000000000000000000000000000081526004016104289061186a565b60405180910390fd5b81600660009054906101000a900473ffffffffffffffffffffffffffffffffffffffff1673ffffffffffffffffffffffffffffffffffffffff1663dd62ed3e33306040518363ffffffff1660e01b815260040161048f929190611899565b602060405180830381865afa1580156104ac573d6000803e3d6000fd5b505050506040513d601f19601f820116820180604052508101906104d091906118d7565b1015610511576040517f08c379a000000000000000000000000000000000000000000000000000000000815260040161050890611976565b60405180910390fd5b6000600560009054906101000a900473ffffffffffffffffffffffffffffffffffffffff1673ffffffffffffffffffffffffffffffffffffffff166370a08231600760009054906101000a900473ffffffffffffffffffffffffffffffffffffffff166040518263ffffffff1660e01b81526004016105909190611996565b602060405180830381865afa1580156105ad573d6000803e3d6000fd5b505050506040513d601f19601f820116820180604052508101906105d191906118d7565b90506000600660009054906101000a900473ffffffffffffffffffffffffffffffffffffffff1673ffffffffffffffffffffffffffffffffffffffff166370a08231600760009054906101000a900473ffffffffffffffffffffffffffffffffffffffff166040518263ffffffff1660e01b81526004016106529190611996565b602060405180830381865afa15801561066f573d6000803e3d6000fd5b505050506040513d601f19601f8201168201806040525081019061069391906118d7565b90507fee3151d1b38cb51b0dd2bc979aa68d337e952f2e0b6834217f05870c2cfb4c2b82826040516106c69291906119b1565b60405180910390a16000821180156106de5750600081115b61071d576040517f08c379a000000000000000000000000000000000000000000000000000000000815260040161071490611a4c565b60405180910390fd5b6000612710601e8661072f9190611a9b565b6107399190611b0c565b9050600081866107499190611b3d565b905080836107579190611b71565b81856107639190611a9b565b61076d9190611b0c565b94507f0168eda5739711bb4729081b036253ffc2012ae6891663d350966befc28a412b848483886040516107a49493929190611ba5565b60405180910390a1600085116107ef576040517f08c379a00000000000000000000000000000000000000000000000000000000081526004016107e690611c36565b60405180910390fd5b84600560009054906101000a900473ffffffffffffffffffffffffffffffffffffffff1673ffffffffffffffffffffffffffffffffffffffff1663dd62ed3e600760009054906101000a900473ffffffffffffffffffffffffffffffffffffffff16306040518363ffffffff1660e01b815260040161086f929190611899565b602060405180830381865afa15801561088c573d6000803e3d6000fd5b505050506040513d601f19601f820116820180604052508101906108b091906118d7565b10156108f1576040517f08c379a00000000000000000000000000000000000000000000000000000000081526004016108e890611cc8565b60405180910390fd5b84600560009054906101000a900473ffffffffffffffffffffffffffffffffffffffff1673ffffffffffffffffffffffffffffffffffffffff166370a08231600760009054906101000a900473ffffffffffffffffffffffffffffffffffffffff166040518263ffffffff1660e01b815260040161096f9190611996565b602060405180830381865afa15801561098c573d6000803e3d6000fd5b505050506040513d601f19601f820116820180604052508101906109b091906118d7565b10156109f1576040517f08c379a00000000000000000000000000000000000000000000000000000000081526004016109e890611d5a565b60405180910390fd5b600660009054906101000a900473ffffffffffffffffffffffffffffffffffffffff1673ffffffffffffffffffffffffffffffffffffffff166323b872dd33600760009054906101000a900473ffffffffffffffffffffffffffffffffffffffff16896040518463ffffffff1660e01b8152600401610a7293929190611d7a565b6020604051808303816000875af1158015610a91573d6000803e3d6000fd5b505050506040513d601f19601f82011682018060405250810190610ab59190611ddd565b50600560009054906101000a900473ffffffffffffffffffffffffffffffffffffffff1673ffffffffffffffffffffffffffffffffffffffff166323b872dd600760009054906101000a900473ffffffffffffffffffffffffffffffffffffffff1633886040518463ffffffff1660e01b8152600401610b3793929190611d7a565b6020604051808303816000875af1158015610b56573d6000803e3d6000fd5b505050506040513d601f19601f82011682018060405250810190610b7a9190611ddd565b50600760009054906101000a900473ffffffffffffffffffffffffffffffffffffffff1673ffffffffffffffffffffffffffffffffffffffff1663ebe1eb746040518163ffffffff1660e01b8152600401600060405180830381600087803b158015610be557600080fd5b505af1158015610bf9573d6000803e3d6000fd5b505050503373ffffffffffffffffffffffffffffffffffffffff167f872dc8771b5e4560062d09d8ed70292384bec3e9ec54dd9f78b0e2f8e4e4d5818787604051610c459291906119b1565b60405180910390a250505050919050565b60006012905090565b600560009054906101000a900473ffffffffffffffffffffffffffffffffffffffff1681565b60008060008373ffffffffffffffffffffffffffffffffffffffff1673ffffffffffffffffffffffffffffffffffffffff168152602001908152602001600020549050919050565b606060048054610cdc906117ed565b80601f0160208091040260200160405190810160405280929190818152602001828054610d08906117ed565b8015610d555780601f10610d2a57610100808354040283529160200191610d55565b820191906000526020600020905b815481529060010190602001808311610d3857829003601f168201915b5050505050905090565b600760009054906101000a900473ffffffffffffffffffffffffffffffffffffffff1681565b600080610d90610e5a565b9050610d9d818585610f09565b600191505092915050565b601e81565b6000600160008473ffffffffffffffffffffffffffffffffffffffff1673ffffffffffffffffffffffffffffffffffffffff16815260200190815260200160002060008373ffffffffffffffffffffffffffffffffffffffff1673ffffffffffffffffffffffffffffffffffffffff16815260200190815260200160002054905092915050565b600660009054906101000a900473ffffffffffffffffffffffffffffffffffffffff1681565b600033905090565b610e6f8383836001610ffd565b505050565b6000610e808484610dad565b90507fffffffffffffffffffffffffffffffffffffffffffffffffffffffffffffffff811015610f035781811015610ef3578281836040517ffb8f41b2000000000000000000000000000000000000000000000000000000008152600401610eea93929190611e0a565b60405180910390fd5b610f0284848484036000610ffd565b5b50505050565b600073ffffffffffffffffffffffffffffffffffffffff168373ffffffffffffffffffffffffffffffffffffffff1603610f7b5760006040517f96c6fd1e000000000000000000000000000000000000000000000000000000008152600401610f729190611996565b60405180910390fd5b600073ffffffffffffffffffffffffffffffffffffffff168273ffffffffffffffffffffffffffffffffffffffff1603610fed5760006040517fec442f05000000000000000000000000000000000000000000000000000000008152600401610fe49190611996565b60405180910390fd5b610ff88383836111d4565b505050565b600073ffffffffffffffffffffffffffffffffffffffff168473ffffffffffffffffffffffffffffffffffffffff160361106f5760006040517fe602df050000000000000000000000000000000000000000000000000000000081526004016110669190611996565b60405180910390fd5b600073ffffffffffffffffffffffffffffffffffffffff168373ffffffffffffffffffffffffffffffffffffffff16036110e15760006040517f94280d620000000000000000000000000000000000000000000000000000000081526004016110d89190611996565b60405180910390fd5b81600160008673ffffffffffffffffffffffffffffffffffffffff1673ffffffffffffffffffffffffffffffffffffffff16815260200190815260200160002060008573ffffffffffffffffffffffffffffffffffffffff1673ffffffffffffffffffffffffffffffffffffffff1681526020019081526020016000208190555080156111ce578273ffffffffffffffffffffffffffffffffffffffff168473ffffffffffffffffffffffffffffffffffffffff167f8c5be1e5ebec7d5bd14f71427d1e84f3dd0314c0f7b2291e5b200ac8c7c3b925846040516111c591906115c9565b60405180910390a35b50505050565b600073ffffffffffffffffffffffffffffffffffffffff168373ffffffffffffffffffffffffffffffffffffffff160361122657806002600082825461121a9190611b71565b925050819055506112f9565b60008060008573ffffffffffffffffffffffffffffffffffffffff1673ffffffffffffffffffffffffffffffffffffffff168152602001908152602001600020549050818110156112b2578381836040517fe450d38c0000000000000000000000000000000000000000000000000000000081526004016112a993929190611e0a565b60405180910390fd5b8181036000808673ffffffffffffffffffffffffffffffffffffffff1673ffffffffffffffffffffffffffffffffffffffff16815260200190815260200160002081905550505b600073ffffffffffffffffffffffffffffffffffffffff168273ffffffffffffffffffffffffffffffffffffffff1603611342578060026000828254039250508190555061138f565b806000808473ffffffffffffffffffffffffffffffffffffffff1673ffffffffffffffffffffffffffffffffffffffff168152602001908152602001600020600082825401925050819055505b8173ffffffffffffffffffffffffffffffffffffffff168373ffffffffffffffffffffffffffffffffffffffff167fddf252ad1be2c89b69c2b068fc378daa952ba7f163c4a11628f55a4df523b3ef836040516113ec91906115c9565b60405180910390a3505050565b600081519050919050565b600082825260208201905092915050565b60005b83811015611433578082015181840152602081019050611418565b60008484015250505050565b6000601f19601f8301169050919050565b600061145b826113f9565b6114658185611404565b9350611475818560208601611415565b61147e8161143f565b840191505092915050565b600060208201905081810360008301526114a38184611450565b905092915050565b600080fd5b600073ffffffffffffffffffffffffffffffffffffffff82169050919050565b60006114db826114b0565b9050919050565b6114eb816114d0565b81146114f657600080fd5b50565b600081359050611508816114e2565b92915050565b6000819050919050565b6115218161150e565b811461152c57600080fd5b50565b60008135905061153e81611518565b92915050565b6000806040838503121561155b5761155a6114ab565b5b6000611569858286016114f9565b925050602061157a8582860161152f565b9150509250929050565b60008115159050919050565b61159981611584565b82525050565b60006020820190506115b46000830184611590565b92915050565b6115c38161150e565b82525050565b60006020820190506115de60008301846115ba565b92915050565b6000806000606084860312156115fd576115fc6114ab565b5b600061160b868287016114f9565b935050602061161c868287016114f9565b925050604061162d8682870161152f565b9150509250925092565b60006020828403121561164d5761164c6114ab565b5b600061165b8482850161152f565b91505092915050565b600060ff82169050919050565b61167a81611664565b82525050565b60006020820190506116956000830184611671565b92915050565b6000819050919050565b60006116c06116bb6116b6846114b0565b61169b565b6114b0565b9050919050565b60006116d2826116a5565b9050919050565b60006116e4826116c7565b9050919050565b6116f4816116d9565b82525050565b600060208201905061170f60008301846116eb565b92915050565b60006020828403121561172b5761172a6114ab565b5b6000611739848285016114f9565b91505092915050565b600061174d826116c7565b9050919050565b61175d81611742565b82525050565b60006020820190506117786000830184611754565b92915050565b60008060408385031215611795576117946114ab565b5b60006117a3858286016114f9565b92505060206117b4858286016114f9565b9150509250929050565b7f4e487b7100000000000000000000000000000000000000000000000000000000600052602260045260246000fd5b6000600282049050600182168061180557607f821691505b602082108103611818576118176117be565b5b50919050565b7f416d6f756e74206d7573742062652067726561746572207468616e2030000000600082015250565b6000611854601d83611404565b915061185f8261181e565b602082019050919050565b6000602082019050818103600083015261188381611847565b9050919050565b611893816114d0565b82525050565b60006040820190506118ae600083018561188a565b6118bb602083018461188a565b9392505050565b6000815190506118d181611518565b92915050565b6000602082840312156118ed576118ec6114ab565b5b60006118fb848285016118c2565b91505092915050565b7f496e73756666696369656e7420737461626c65636f696e20616c6c6f77616e6360008201527f6500000000000000000000000000000000000000000000000000000000000000602082015250565b6000611960602183611404565b915061196b82611904565b604082019050919050565b6000602082019050818103600083015261198f81611953565b9050919050565b60006020820190506119ab600083018461188a565b92915050565b60006040820190506119c660008301856115ba565b6119d360208301846115ba565b9392505050565b7f496e73756666696369656e7420726573657276657320696e2074686520706f6f60008201527f6c00000000000000000000000000000000000000000000000000000000000000602082015250565b6000611a36602183611404565b9150611a41826119da565b604082019050919050565b60006020820190508181036000830152611a6581611a29565b9050919050565b7f4e487b7100000000000000000000000000000000000000000000000000000000600052601160045260246000fd5b6000611aa68261150e565b9150611ab18361150e565b9250828202611abf8161150e565b91508282048414831517611ad657611ad5611a6c565b5b5092915050565b7f4e487b7100000000000000000000000000000000000000000000000000000000600052601260045260246000fd5b6000611b178261150e565b9150611b228361150e565b925082611b3257611b31611add565b5b828204905092915050565b6000611b488261150e565b9150611b538361150e565b9250828203905081811115611b6b57611b6a611a6c565b5b92915050565b6000611b7c8261150e565b9150611b878361150e565b9250828201905080821115611b9f57611b9e611a6c565b5b92915050565b6000608082019050611bba60008301876115ba565b611bc760208301866115ba565b611bd460408301856115ba565b611be160608301846115ba565b95945050505050565b7f496e73756666696369656e7420746f6b656e20616d6f756e7400000000000000600082015250565b6000611c20601983611404565b9150611c2b82611bea565b602082019050919050565b60006020820190508181036000830152611c4f81611c13565b9050919050565b7f496e73756666696369656e7420434550636f696e20616c6c6f77616e6365206660008201527f726f6d20706f6f6c000000000000000000000000000000000000000000000000602082015250565b6000611cb2602883611404565b9150611cbd82611c56565b604082019050919050565b60006020820190508181036000830152611ce181611ca5565b9050919050565b7f496e73756666696369656e7420434550636f696e2062616c616e636520696e2060008201527f706f6f6c00000000000000000000000000000000000000000000000000000000602082015250565b6000611d44602483611404565b9150611d4f82611ce8565b604082019050919050565b60006020820190508181036000830152611d7381611d37565b9050919050565b6000606082019050611d8f600083018661188a565b611d9c602083018561188a565b611da960408301846115ba565b949350505050565b611dba81611584565b8114611dc557600080fd5b50565b600081519050611dd781611db1565b92915050565b600060208284031215611df357611df26114ab565b5b6000611e0184828501611dc8565b91505092915050565b6000606082019050611e1f600083018661188a565b611e2c60208301856115ba565b611e3960408301846115ba565b94935050505056fea26469706673582212207976323bb2fe7d3866df5279cde74ad5971bffdb223fcffc78b217c9250bed2164736f6c634300081c0033",
  "linkReferences": {},
  "deployedLinkReferences": {}
}