{
  "_format": "hh-sol-artifact-1",
  "contractName": "CreeperBuy",
  "sourceName": "contracts/Buy.sol",
  "abi": [
    {
      "inputs": [
        {
          "internalType": "address",
          "name": "_CEPcoin",
          "type": "address"
        },
        {
          "internalType": "address",
          "name": "_stablecoin",
          "type": "address"
        }
      ],
      "stateMutability": "payable",
      "type": "constructor"
    },
    {
      "inputs": [
        {
          "internalType": "address",
          "name": "spender",
          "type": "address"
        },
        {
          "internalType": "uint256",
          "name": "allowance",
          "type": "uint256"
        },
        {
          "internalType": "uint256",
          "name": "needed",
          "type": "uint256"
        }
      ],
      "name": "ERC20InsufficientAllowance",
      "type": "error"
    },
    {
      "inputs": [
        {
          "internalType": "address",
          "name": "sender",
          "type": "address"
        },
        {
          "internalType": "uint256",
          "name": "balance",
          "type": "uint256"
        },
        {
          "internalType": "uint256",
          "name": "needed",
          "type": "uint256"
        }
      ],
      "name": "ERC20InsufficientBalance",
      "type": "error"
    },
    {
      "inputs": [
        {
          "internalType": "address",
          "name": "approver",
          "type": "address"
        }
      ],
      "name": "ERC20InvalidApprover",
      "type": "error"
    },
    {
      "inputs": [
        {
          "internalType": "address",
          "name": "receiver",
          "type": "address"
        }
      ],
      "name": "ERC20InvalidReceiver",
      "type": "error"
    },
    {
      "inputs": [
        {
          "internalType": "address",
          "name": "sender",
          "type": "address"
        }
      ],
      "name": "ERC20InvalidSender",
      "type": "error"
    },
    {
      "inputs": [
        {
          "internalType": "address",
          "name": "spender",
          "type": "address"
        }
      ],
      "name": "ERC20InvalidSpender",
      "type": "error"
    },
    {
      "anonymous": false,
      "inputs": [
        {
          "indexed": true,
          "internalType": "address",
          "name": "owner",
          "type": "address"
        },
        {
          "indexed": true,
          "internalType": "address",
          "name": "spender",
          "type": "address"
        },
        {
          "indexed": false,
          "internalType": "uint256",
          "name": "value",
          "type": "uint256"
        }
      ],
      "name": "Approval",
      "type": "event"
    },
    {
      "anonymous": false,
      "inputs": [
        {
          "indexed": true,
          "internalType": "address",
          "name": "buyer",
          "type": "address"
        },
        {
          "indexed": false,
          "internalType": "uint256",
          "name": "stablecoinAmount",
          "type": "uint256"
        },
        {
          "indexed": false,
          "internalType": "uint256",
          "name": "CEPcoinAmount",
          "type": "uint256"
        }
      ],
      "name": "CEPcoinBought",
      "type": "event"
    },
    {
      "anonymous": false,
      "inputs": [
        {
          "indexed": true,
          "internalType": "address",
          "name": "provider",
          "type": "address"
        },
        {
          "indexed": false,
          "internalType": "uint256",
          "name": "amountCEPcoin",
          "type": "uint256"
        },
        {
          "indexed": false,
          "internalType": "uint256",
          "name": "amountStablecoin",
          "type": "uint256"
        },
        {
          "indexed": false,
          "internalType": "uint256",
          "name": "liquidity",
          "type": "uint256"
        }
      ],
      "name": "LiquidityAdded",
      "type": "event"
    },
    {
      "anonymous": false,
      "inputs": [
        {
          "indexed": true,
          "internalType": "address",
          "name": "from",
          "type": "address"
        },
        {
          "indexed": true,
          "internalType": "address",
          "name": "to",
          "type": "address"
        },
        {
          "indexed": false,
          "internalType": "uint256",
          "name": "value",
          "type": "uint256"
        }
      ],
      "name": "Transfer",
      "type": "event"
    },
    {
      "inputs": [],
      "name": "CEPcoin",
      "outputs": [
        {
          "internalType": "contract IERC20",
          "name": "",
          "type": "address"
        }
      ],
      "stateMutability": "view",
      "type": "function"
    },
    {
      "inputs": [],
      "name": "FEE",
      "outputs": [
        {
          "internalType": "uint256",
          "name": "",
          "type": "uint256"
        }
      ],
      "stateMutability": "view",
      "type": "function"
    },
    {
      "inputs": [
        {
          "internalType": "uint256",
          "name": "amountCEPcoin",
          "type": "uint256"
        },
        {
          "internalType": "uint256",
          "name": "amountStablecoin",
          "type": "uint256"
        }
      ],
      "name": "addLiquidity",
      "outputs": [],
      "stateMutability": "payable",
      "type": "function"
    },
    {
      "inputs": [
        {
          "internalType": "address",
          "name": "owner",
          "type": "address"
        },
        {
          "internalType": "address",
          "name": "spender",
          "type": "address"
        }
      ],
      "name": "allowance",
      "outputs": [
        {
          "internalType": "uint256",
          "name": "",
          "type": "uint256"
        }
      ],
      "stateMutability": "view",
      "type": "function"
    },
    {
      "inputs": [
        {
          "internalType": "address",
          "name": "spender",
          "type": "address"
        },
        {
          "internalType": "uint256",
          "name": "value",
          "type": "uint256"
        }
      ],
      "name": "approve",
      "outputs": [
        {
          "internalType": "bool",
          "name": "",
          "type": "bool"
        }
      ],
      "stateMutability": "nonpayable",
      "type": "function"
    },
    {
      "inputs": [
        {
          "internalType": "address",
          "name": "account",
          "type": "address"
        }
      ],
      "name": "balanceOf",
      "outputs": [
        {
          "internalType": "uint256",
          "name": "",
          "type": "uint256"
        }
      ],
      "stateMutability": "view",
      "type": "function"
    },
    {
      "inputs": [
        {
          "internalType": "uint256",
          "name": "stablecoinAmount",
          "type": "uint256"
        }
      ],
      "name": "buyToken",
      "outputs": [
        {
          "internalType": "uint256",
          "name": "CEPcoinAmount",
          "type": "uint256"
        }
      ],
      "stateMutability": "nonpayable",
      "type": "function"
    },
    {
      "inputs": [],
      "name": "decimals",
      "outputs": [
        {
          "internalType": "uint8",
          "name": "",
          "type": "uint8"
        }
      ],
      "stateMutability": "view",
      "type": "function"
    },
    {
      "inputs": [],
      "name": "name",
      "outputs": [
        {
          "internalType": "string",
          "name": "",
          "type": "string"
        }
      ],
      "stateMutability": "view",
      "type": "function"
    },
    {
      "inputs": [
        {
          "internalType": "uint256",
          "name": "liquidity",
          "type": "uint256"
        }
      ],
      "name": "removeLiquidity",
      "outputs": [],
      "stateMutability": "nonpayable",
      "type": "function"
    },
    {
      "inputs": [],
      "name": "reserveCEP",
      "outputs": [
        {
          "internalType": "uint256",
          "name": "",
          "type": "uint256"
        }
      ],
      "stateMutability": "view",
      "type": "function"
    },
    {
      "inputs": [],
      "name": "reserveStablecoin",
      "outputs": [
        {
          "internalType": "uint256",
          "name": "",
          "type": "uint256"
        }
      ],
      "stateMutability": "view",
      "type": "function"
    },
    {
      "inputs": [],
      "name": "stablecoin",
      "outputs": [
        {
          "internalType": "contract IERC20",
          "name": "",
          "type": "address"
        }
      ],
      "stateMutability": "view",
      "type": "function"
    },
    {
      "inputs": [],
      "name": "symbol",
      "outputs": [
        {
          "internalType": "string",
          "name": "",
          "type": "string"
        }
      ],
      "stateMutability": "view",
      "type": "function"
    },
    {
      "inputs": [],
      "name": "totalSupply",
      "outputs": [
        {
          "internalType": "uint256",
          "name": "",
          "type": "uint256"
        }
      ],
      "stateMutability": "view",
      "type": "function"
    },
    {
      "inputs": [
        {
          "internalType": "address",
          "name": "to",
          "type": "address"
        },
        {
          "internalType": "uint256",
          "name": "value",
          "type": "uint256"
        }
      ],
      "name": "transfer",
      "outputs": [
        {
          "internalType": "bool",
          "name": "",
          "type": "bool"
        }
      ],
      "stateMutability": "nonpayable",
      "type": "function"
    },
    {
      "inputs": [
        {
          "internalType": "address",
          "name": "from",
          "type": "address"
        },
        {
          "internalType": "address",
          "name": "to",
          "type": "address"
        },
        {
          "internalType": "uint256",
          "name": "value",
          "type": "uint256"
        }
      ],
      "name": "transferFrom",
      "outputs": [
        {
          "internalType": "bool",
          "name": "",
          "type": "bool"
        }
      ],
      "stateMutability": "nonpayable",
      "type": "function"
    }
  ],
  "bytecode": "0x608060405260405161278938038061278983398181016040528101906100259190610248565b6040518060400160405280601581526020017f437265657065722054726164696e6720546f6b656e00000000000000000000008152506040518060400160405280600381526020017f434550000000000000000000000000000000000000000000000000000000000081525081600390816100a091906104d8565b5080600490816100b091906104d8565b505050600073ffffffffffffffffffffffffffffffffffffffff168273ffffffffffffffffffffffffffffffffffffffff161415801561011d5750600073ffffffffffffffffffffffffffffffffffffffff168173ffffffffffffffffffffffffffffffffffffffff1614155b61015c576040517f08c379a000000000000000000000000000000000000000000000000000000000815260040161015390610607565b60405180910390fd5b81600560006101000a81548173ffffffffffffffffffffffffffffffffffffffff021916908373ffffffffffffffffffffffffffffffffffffffff16021790555080600660006101000a81548173ffffffffffffffffffffffffffffffffffffffff021916908373ffffffffffffffffffffffffffffffffffffffff1602179055505050610627565b600080fd5b600073ffffffffffffffffffffffffffffffffffffffff82169050919050565b6000610215826101ea565b9050919050565b6102258161020a565b811461023057600080fd5b50565b6000815190506102428161021c565b92915050565b6000806040838503121561025f5761025e6101e5565b5b600061026d85828601610233565b925050602061027e85828601610233565b9150509250929050565b600081519050919050565b7f4e487b7100000000000000000000000000000000000000000000000000000000600052604160045260246000fd5b7f4e487b7100000000000000000000000000000000000000000000000000000000600052602260045260246000fd5b6000600282049050600182168061030957607f821691505b60208210810361031c5761031b6102c2565b5b50919050565b60008190508160005260206000209050919050565b60006020601f8301049050919050565b600082821b905092915050565b6000600883026103847fffffffffffffffffffffffffffffffffffffffffffffffffffffffffffffffff82610347565b61038e8683610347565b95508019841693508086168417925050509392505050565b6000819050919050565b6000819050919050565b60006103d56103d06103cb846103a6565b6103b0565b6103a6565b9050919050565b6000819050919050565b6103ef836103ba565b6104036103fb826103dc565b848454610354565b825550505050565b600090565b61041861040b565b6104238184846103e6565b505050565b5b818110156104475761043c600082610410565b600181019050610429565b5050565b601f82111561048c5761045d81610322565b61046684610337565b81016020851015610475578190505b61048961048185610337565b830182610428565b50505b505050565b600082821c905092915050565b60006104af60001984600802610491565b1980831691505092915050565b60006104c8838361049e565b9150826002028217905092915050565b6104e182610288565b67ffffffffffffffff8111156104fa576104f9610293565b5b61050482546102f1565b61050f82828561044b565b600060209050601f8311600181146105425760008415610530578287015190505b61053a85826104bc565b8655506105a2565b601f19841661055086610322565b60005b8281101561057857848901518255600182019150602085019450602081019050610553565b868310156105955784890151610591601f89168261049e565b8355505b6001600288020188555050505b505050505050565b600082825260208201905092915050565b7f496e76616c696420746f6b656e20616464726573730000000000000000000000600082015250565b60006105f16015836105aa565b91506105fc826105bb565b602082019050919050565b60006020820190508181036000830152610620816105e4565b9050919050565b612153806106366000396000f3fe6080604052600436106100fe5760003560e01c806370a08231116100955780639cd441da116100645780639cd441da1461034d578063a9059cbb14610369578063c57981b5146103a6578063dd62ed3e146103d1578063e9cbd8221461040e576100fe565b806370a082311461029157806395d89b41146102ce57806397560dac146102f95780639c8f9f2314610324576100fe565b806323b872dd116100d157806323b872dd146101c15780632d296bf1146101fe578063313ce5671461023b5780634b67924514610266576100fe565b806306fdde0314610103578063095ea7b31461012e57806317d8eb7a1461016b57806318160ddd14610196575b600080fd5b34801561010f57600080fd5b50610118610439565b6040516101259190611873565b60405180910390f35b34801561013a57600080fd5b506101556004803603810190610150919061192e565b6104cb565b6040516101629190611989565b60405180910390f35b34801561017757600080fd5b506101806104ee565b60405161018d91906119b3565b60405180910390f35b3480156101a257600080fd5b506101ab6104f4565b6040516101b891906119b3565b60405180910390f35b3480156101cd57600080fd5b506101e860048036038101906101e391906119ce565b6104fe565b6040516101f59190611989565b60405180910390f35b34801561020a57600080fd5b5061022560048036038101906102209190611a21565b61052d565b60405161023291906119b3565b60405180910390f35b34801561024757600080fd5b506102506108e5565b60405161025d9190611a6a565b60405180910390f35b34801561027257600080fd5b5061027b6108ee565b6040516102889190611ae4565b60405180910390f35b34801561029d57600080fd5b506102b860048036038101906102b39190611aff565b610914565b6040516102c591906119b3565b60405180910390f35b3480156102da57600080fd5b506102e361095c565b6040516102f09190611873565b60405180910390f35b34801561030557600080fd5b5061030e6109ee565b60405161031b91906119b3565b60405180910390f35b34801561033057600080fd5b5061034b60048036038101906103469190611a21565b6109f4565b005b61036760048036038101906103629190611b2c565b610d14565b005b34801561037557600080fd5b50610390600480360381019061038b919061192e565b610ff5565b60405161039d9190611989565b60405180910390f35b3480156103b257600080fd5b506103bb611018565b6040516103c891906119b3565b60405180910390f35b3480156103dd57600080fd5b506103f860048036038101906103f39190611b6c565b61101d565b60405161040591906119b3565b60405180910390f35b34801561041a57600080fd5b506104236110a4565b6040516104309190611ae4565b60405180910390f35b60606003805461044890611bdb565b80601f016020809104026020016040519081016040528092919081815260200182805461047490611bdb565b80156104c15780601f10610496576101008083540402835291602001916104c1565b820191906000526020600020905b8154815290600101906020018083116104a457829003601f168201915b5050505050905090565b6000806104d66110ca565b90506104e38185856110d2565b600191505092915050565b60075481565b6000600254905090565b6000806105096110ca565b90506105168582856110e4565b610521858585611179565b60019150509392505050565b6000808211610571576040517f08c379a000000000000000000000000000000000000000000000000000000000815260040161056890611c58565b60405180910390fd5b6000601e6127106105829190611ca7565b8361058d9190611cdb565b9050806127106008546105a09190611cdb565b6105aa9190611d1d565b816007546105b89190611cdb565b6105c29190611d80565b915060008211610607576040517f08c379a00000000000000000000000000000000000000000000000000000000081526004016105fe90611dfd565b60405180910390fd5b600660009054906101000a900473ffffffffffffffffffffffffffffffffffffffff1673ffffffffffffffffffffffffffffffffffffffff166323b872dd3330866040518463ffffffff1660e01b815260040161066693929190611e2c565b6020604051808303816000875af1158015610685573d6000803e3d6000fd5b505050506040513d601f19601f820116820180604052508101906106a99190611e8f565b50600560009054906101000a900473ffffffffffffffffffffffffffffffffffffffff1673ffffffffffffffffffffffffffffffffffffffff1663a9059cbb33846040518363ffffffff1660e01b8152600401610707929190611ebc565b6020604051808303816000875af1158015610726573d6000803e3d6000fd5b505050506040513d601f19601f8201168201806040525081019061074a9190611e8f565b50600560009054906101000a900473ffffffffffffffffffffffffffffffffffffffff1673ffffffffffffffffffffffffffffffffffffffff166370a08231306040518263ffffffff1660e01b81526004016107a69190611ee5565b602060405180830381865afa1580156107c3573d6000803e3d6000fd5b505050506040513d601f19601f820116820180604052508101906107e79190611f15565b600781905550600660009054906101000a900473ffffffffffffffffffffffffffffffffffffffff1673ffffffffffffffffffffffffffffffffffffffff166370a08231306040518263ffffffff1660e01b81526004016108489190611ee5565b602060405180830381865afa158015610865573d6000803e3d6000fd5b505050506040513d601f19601f820116820180604052508101906108899190611f15565b6008819055503373ffffffffffffffffffffffffffffffffffffffff167f872dc8771b5e4560062d09d8ed70292384bec3e9ec54dd9f78b0e2f8e4e4d58184846040516108d7929190611f42565b60405180910390a250919050565b60006012905090565b600560009054906101000a900473ffffffffffffffffffffffffffffffffffffffff1681565b60008060008373ffffffffffffffffffffffffffffffffffffffff1673ffffffffffffffffffffffffffffffffffffffff168152602001908152602001600020549050919050565b60606004805461096b90611bdb565b80601f016020809104026020016040519081016040528092919081815260200182805461099790611bdb565b80156109e45780601f106109b9576101008083540402835291602001916109e4565b820191906000526020600020905b8154815290600101906020018083116109c757829003601f168201915b5050505050905090565b60085481565b60008111610a37576040517f08c379a0000000000000000000000000000000000000000000000000000000008152600401610a2e90611fb7565b60405180910390fd5b6000610a416104f4565b60075483610a4f9190611cdb565b610a599190611d80565b90506000610a656104f4565b60085484610a739190611cdb565b610a7d9190611d80565b9050610a89338461126d565b600560009054906101000a900473ffffffffffffffffffffffffffffffffffffffff1673ffffffffffffffffffffffffffffffffffffffff1663a9059cbb33846040518363ffffffff1660e01b8152600401610ae6929190611ebc565b6020604051808303816000875af1158015610b05573d6000803e3d6000fd5b505050506040513d601f19601f82011682018060405250810190610b299190611e8f565b50600660009054906101000a900473ffffffffffffffffffffffffffffffffffffffff1673ffffffffffffffffffffffffffffffffffffffff1663a9059cbb33836040518363ffffffff1660e01b8152600401610b87929190611ebc565b6020604051808303816000875af1158015610ba6573d6000803e3d6000fd5b505050506040513d601f19601f82011682018060405250810190610bca9190611e8f565b50600560009054906101000a900473ffffffffffffffffffffffffffffffffffffffff1673ffffffffffffffffffffffffffffffffffffffff166370a08231306040518263ffffffff1660e01b8152600401610c269190611ee5565b602060405180830381865afa158015610c43573d6000803e3d6000fd5b505050506040513d601f19601f82011682018060405250810190610c679190611f15565b600781905550600660009054906101000a900473ffffffffffffffffffffffffffffffffffffffff1673ffffffffffffffffffffffffffffffffffffffff166370a08231306040518263ffffffff1660e01b8152600401610cc89190611ee5565b602060405180830381865afa158015610ce5573d6000803e3d6000fd5b505050506040513d601f19601f82011682018060405250810190610d099190611f15565b600881905550505050565b600082118015610d245750600081115b610d63576040517f08c379a0000000000000000000000000000000000000000000000000000000008152600401610d5a90612023565b60405180910390fd5b600560009054906101000a900473ffffffffffffffffffffffffffffffffffffffff1673ffffffffffffffffffffffffffffffffffffffff166323b872dd3330856040518463ffffffff1660e01b8152600401610dc293929190611e2c565b6020604051808303816000875af1158015610de1573d6000803e3d6000fd5b505050506040513d601f19601f82011682018060405250810190610e059190611e8f565b50600660009054906101000a900473ffffffffffffffffffffffffffffffffffffffff1673ffffffffffffffffffffffffffffffffffffffff166323b872dd3330846040518463ffffffff1660e01b8152600401610e6593929190611e2c565b6020604051808303816000875af1158015610e84573d6000803e3d6000fd5b505050506040513d601f19601f82011682018060405250810190610ea89190611e8f565b50600080610eb46104f4565b03610ed457610ecd8284610ec89190611cdb565b6112ef565b9050610f1f565b610f1c600754610ee26104f4565b85610eed9190611cdb565b610ef79190611d80565b600854610f026104f4565b85610f0d9190611cdb565b610f179190611d80565b61134c565b90505b60008111610f62576040517f08c379a0000000000000000000000000000000000000000000000000000000008152600401610f599061208f565b60405180910390fd5b8260076000828254610f749190611d1d565b925050819055508160086000828254610f8d9190611d1d565b92505081905550610f9e3382611365565b3373ffffffffffffffffffffffffffffffffffffffff167f64b83944e79c3ce8d4c297411de637c3e102d064677aac0c163976ebdcd6f50e848484604051610fe8939291906120af565b60405180910390a2505050565b6000806110006110ca565b905061100d818585611179565b600191505092915050565b601e81565b6000600160008473ffffffffffffffffffffffffffffffffffffffff1673ffffffffffffffffffffffffffffffffffffffff16815260200190815260200160002060008373ffffffffffffffffffffffffffffffffffffffff1673ffffffffffffffffffffffffffffffffffffffff16815260200190815260200160002054905092915050565b600660009054906101000a900473ffffffffffffffffffffffffffffffffffffffff1681565b600033905090565b6110df83838360016113e7565b505050565b60006110f0848461101d565b90507fffffffffffffffffffffffffffffffffffffffffffffffffffffffffffffffff8110156111735781811015611163578281836040517ffb8f41b200000000000000000000000000000000000000000000000000000000815260040161115a939291906120e6565b60405180910390fd5b611172848484840360006113e7565b5b50505050565b600073ffffffffffffffffffffffffffffffffffffffff168373ffffffffffffffffffffffffffffffffffffffff16036111eb5760006040517f96c6fd1e0000000000000000000000000000000000000000000000000000000081526004016111e29190611ee5565b60405180910390fd5b600073ffffffffffffffffffffffffffffffffffffffff168273ffffffffffffffffffffffffffffffffffffffff160361125d5760006040517fec442f050000000000000000000000000000000000000000000000000000000081526004016112549190611ee5565b60405180910390fd5b6112688383836115be565b505050565b600073ffffffffffffffffffffffffffffffffffffffff168273ffffffffffffffffffffffffffffffffffffffff16036112df5760006040517f96c6fd1e0000000000000000000000000000000000000000000000000000000081526004016112d69190611ee5565b60405180910390fd5b6112eb826000836115be565b5050565b60008060026001846113019190611d1d565b61130b9190611d80565b90508291505b8181101561134657809150600281828561132b9190611d80565b6113359190611d1d565b61133f9190611d80565b9050611311565b50919050565b600081831061135b578161135d565b825b905092915050565b600073ffffffffffffffffffffffffffffffffffffffff168273ffffffffffffffffffffffffffffffffffffffff16036113d75760006040517fec442f050000000000000000000000000000000000000000000000000000000081526004016113ce9190611ee5565b60405180910390fd5b6113e3600083836115be565b5050565b600073ffffffffffffffffffffffffffffffffffffffff168473ffffffffffffffffffffffffffffffffffffffff16036114595760006040517fe602df050000000000000000000000000000000000000000000000000000000081526004016114509190611ee5565b60405180910390fd5b600073ffffffffffffffffffffffffffffffffffffffff168373ffffffffffffffffffffffffffffffffffffffff16036114cb5760006040517f94280d620000000000000000000000000000000000000000000000000000000081526004016114c29190611ee5565b60405180910390fd5b81600160008673ffffffffffffffffffffffffffffffffffffffff1673ffffffffffffffffffffffffffffffffffffffff16815260200190815260200160002060008573ffffffffffffffffffffffffffffffffffffffff1673ffffffffffffffffffffffffffffffffffffffff1681526020019081526020016000208190555080156115b8578273ffffffffffffffffffffffffffffffffffffffff168473ffffffffffffffffffffffffffffffffffffffff167f8c5be1e5ebec7d5bd14f71427d1e84f3dd0314c0f7b2291e5b200ac8c7c3b925846040516115af91906119b3565b60405180910390a35b50505050565b600073ffffffffffffffffffffffffffffffffffffffff168373ffffffffffffffffffffffffffffffffffffffff16036116105780600260008282546116049190611d1d565b925050819055506116e3565b60008060008573ffffffffffffffffffffffffffffffffffffffff1673ffffffffffffffffffffffffffffffffffffffff1681526020019081526020016000205490508181101561169c578381836040517fe450d38c000000000000000000000000000000000000000000000000000000008152600401611693939291906120e6565b60405180910390fd5b8181036000808673ffffffffffffffffffffffffffffffffffffffff1673ffffffffffffffffffffffffffffffffffffffff16815260200190815260200160002081905550505b600073ffffffffffffffffffffffffffffffffffffffff168273ffffffffffffffffffffffffffffffffffffffff160361172c5780600260008282540392505081905550611779565b806000808473ffffffffffffffffffffffffffffffffffffffff1673ffffffffffffffffffffffffffffffffffffffff168152602001908152602001600020600082825401925050819055505b8173ffffffffffffffffffffffffffffffffffffffff168373ffffffffffffffffffffffffffffffffffffffff167fddf252ad1be2c89b69c2b068fc378daa952ba7f163c4a11628f55a4df523b3ef836040516117d691906119b3565b60405180910390a3505050565b600081519050919050565b600082825260208201905092915050565b60005b8381101561181d578082015181840152602081019050611802565b60008484015250505050565b6000601f19601f8301169050919050565b6000611845826117e3565b61184f81856117ee565b935061185f8185602086016117ff565b61186881611829565b840191505092915050565b6000602082019050818103600083015261188d818461183a565b905092915050565b600080fd5b600073ffffffffffffffffffffffffffffffffffffffff82169050919050565b60006118c58261189a565b9050919050565b6118d5816118ba565b81146118e057600080fd5b50565b6000813590506118f2816118cc565b92915050565b6000819050919050565b61190b816118f8565b811461191657600080fd5b50565b60008135905061192881611902565b92915050565b6000806040838503121561194557611944611895565b5b6000611953858286016118e3565b925050602061196485828601611919565b9150509250929050565b60008115159050919050565b6119838161196e565b82525050565b600060208201905061199e600083018461197a565b92915050565b6119ad816118f8565b82525050565b60006020820190506119c860008301846119a4565b92915050565b6000806000606084860312156119e7576119e6611895565b5b60006119f5868287016118e3565b9350506020611a06868287016118e3565b9250506040611a1786828701611919565b9150509250925092565b600060208284031215611a3757611a36611895565b5b6000611a4584828501611919565b91505092915050565b600060ff82169050919050565b611a6481611a4e565b82525050565b6000602082019050611a7f6000830184611a5b565b92915050565b6000819050919050565b6000611aaa611aa5611aa08461189a565b611a85565b61189a565b9050919050565b6000611abc82611a8f565b9050919050565b6000611ace82611ab1565b9050919050565b611ade81611ac3565b82525050565b6000602082019050611af96000830184611ad5565b92915050565b600060208284031215611b1557611b14611895565b5b6000611b23848285016118e3565b91505092915050565b60008060408385031215611b4357611b42611895565b5b6000611b5185828601611919565b9250506020611b6285828601611919565b9150509250929050565b60008060408385031215611b8357611b82611895565b5b6000611b91858286016118e3565b9250506020611ba2858286016118e3565b9150509250929050565b7f4e487b7100000000000000000000000000000000000000000000000000000000600052602260045260246000fd5b60006002820490506001821680611bf357607f821691505b602082108103611c0657611c05611bac565b5b50919050565b7f416d6f756e74206d7573742062652067726561746572207468616e2030000000600082015250565b6000611c42601d836117ee565b9150611c4d82611c0c565b602082019050919050565b60006020820190508181036000830152611c7181611c35565b9050919050565b7f4e487b7100000000000000000000000000000000000000000000000000000000600052601160045260246000fd5b6000611cb2826118f8565b9150611cbd836118f8565b9250828203905081811115611cd557611cd4611c78565b5b92915050565b6000611ce6826118f8565b9150611cf1836118f8565b9250828202611cff816118f8565b91508282048414831517611d1657611d15611c78565b5b5092915050565b6000611d28826118f8565b9150611d33836118f8565b9250828201905080821115611d4b57611d4a611c78565b5b92915050565b7f4e487b7100000000000000000000000000000000000000000000000000000000600052601260045260246000fd5b6000611d8b826118f8565b9150611d96836118f8565b925082611da657611da5611d51565b5b828204905092915050565b7f496e73756666696369656e7420746f6b656e20616d6f756e7400000000000000600082015250565b6000611de76019836117ee565b9150611df282611db1565b602082019050919050565b60006020820190508181036000830152611e1681611dda565b9050919050565b611e26816118ba565b82525050565b6000606082019050611e416000830186611e1d565b611e4e6020830185611e1d565b611e5b60408301846119a4565b949350505050565b611e6c8161196e565b8114611e7757600080fd5b50565b600081519050611e8981611e63565b92915050565b600060208284031215611ea557611ea4611895565b5b6000611eb384828501611e7a565b91505092915050565b6000604082019050611ed16000830185611e1d565b611ede60208301846119a4565b9392505050565b6000602082019050611efa6000830184611e1d565b92915050565b600081519050611f0f81611902565b92915050565b600060208284031215611f2b57611f2a611895565b5b6000611f3984828501611f00565b91505092915050565b6000604082019050611f5760008301856119a4565b611f6460208301846119a4565b9392505050565b7f4c6971756964697479206d7573742062652067726561746572207468616e2030600082015250565b6000611fa16020836117ee565b9150611fac82611f6b565b602082019050919050565b60006020820190508181036000830152611fd081611f94565b9050919050565b7f416d6f756e7473206d7573742062652067726561746572207468616e20300000600082015250565b600061200d601e836117ee565b915061201882611fd7565b602082019050919050565b6000602082019050818103600083015261203c81612000565b9050919050565b7f496e73756666696369656e74206c6971756964697479206d696e746564000000600082015250565b6000612079601d836117ee565b915061208482612043565b602082019050919050565b600060208201905081810360008301526120a88161206c565b9050919050565b60006060820190506120c460008301866119a4565b6120d160208301856119a4565b6120de60408301846119a4565b949350505050565b60006060820190506120fb6000830186611e1d565b61210860208301856119a4565b61211560408301846119a4565b94935050505056fea26469706673582212204f8dc11d49e61442a484beff0355695236d5e0c5338f3a7abe95e6c40ef3723964736f6c634300081c0033",
  "linkReferences": {},
  "deployedLinkReferences": {}
}